:100000000C9481020C94CA020C94CA020C94CA0289
:100010000C94CA020C94CA020C94CA020C94CA0230
:100020000C94CA020C94CA020C940A260C94E02682
:100030000C9446210C94CA020C94CA020C94CA0275
:100040000C94CA020C94CA020C94CA020C94CA0200
:100050000C94CA020C949F210C94CA020C94CA02FC
:100060000C94CA020C94CA020C94CA020C94CA02E0
:100070000C94CA020C94CA020C94CA020C94CA02D0
:100080000C94CA020C94CA020C94CA020C94CA02C0
:100090000C94CA020C94CA02DB04DB040D050D05A6
:1000A0005A05780599069906830518062906290632
:1000B0008906990699069206390739074B074B07B7
:1000C00042074B074B074B073907390747074B07D1
:1000D0004B07470751277827702878277028C427AF
:1000E000E72770283E284D28290014001A00080030
:1000F000150017001C0018000C00120013002A0045
:100100002B0004001600070009000A000B000D0078
:100110000E000F0033002800E1001D001B00060048
:100120001900050011001000360037003800E30008
:1001300000000000E000E20000412C002C00004123
:10014000010001000000000029001E001F00200027
:1001500021002200230024002500260027002A0079
:100160002B00C45CC35C010001000100005C0100C5
:10017000010052004F002800E100010001000100D1
:1001800001000100010001005000510001000100C8
:10019000000000000100010001002C002C00010003
:1001A00001000100000000001E0F0500047F3F1F3A
:1001B000643214643214783C1E1E140A052223256E
:1001C0002628292A2C2D2F3032333536383A3B3D1C
:1001D0003E4042434547494A4C4E5051535557596A
:1001E0005A5C5E6062646668696B6D6F7173757787
:1001F000797B7D7F81838587898A8C8E9092949686
:10020000989A9C9E9FA1A3A5A7A8AAACAEAFB1B394
:10021000B4B6B8B9BBBCBEBFC1C2C3C5C6C7C9CAE4
:10022000CBCCCDCED0D1D2D2D3D4D5D6D7D7D8D9A6
:10023000D9DADADBDBDBDCDCDCDCDCDDDDDDDDDC04
:10024000DCDCDCDCDBDBDBDADAD9D9D8D7D7D6D516
:10025000D4D3D2D2D1D0CECDCCCBCAC9C7C6C5C3D8
:10026000C2C1BFBEBCBBB9B8B6B4B3B1AFAEACAA25
:10027000A8A7A5A3A19F9E9C9A98969492908E8CD5
:100280008A89878583817F7D7B79777573716F6DAF
:100290006B6968666462605E5C5A59575553515089
:1002A0004E4C4A4947454342403E3D3B3A3836353D
:1002B0003332302F2D2C2A292826252322FFAA7FEE
:1002C0005540000101010101010101010202020288
:1002D00002020202020303030303030303040404F0
:1002E00004040404050505050506060606060707B9
:1002F00007070708080808090909090A0A0A0B0B71
:100300000B0C0C0C0D0D0D0E0E0E0F0F0F1010110F
:100310001111121213131414151516161717181895
:1003200019191A1A1B1B1C1D1D1E1E1F20202122FD
:1003300022232424252626272829292A2B2C2D2D43
:100340002E2F30313232333435363738393A3B3C60
:100350003D3E3F404142434445464748494A4C4D53
:100360004E4F50515354555658595A5B5D5E5F611C
:100370006264656668696B6C6D6F707273757778AF
:100380007A7B7D7E8082838587888A8C8E8F91930D
:100390009596989A9C9EA0A2A3A5A7A9ABADAFB134
:1003A000B3B5B7BABCBEC0C2C4C6C9CBCDCFD1D419
:1003B000D6D8DBDDDFE2E4E7E9EBEEF0F3F5F8FABF
:1003C000FDFF1C03730070006C0069007400630083
:1003D0007500730074006F006D003400340000007D
:1003E0001403530061006D00750078003600310081
:1003F0003400360000000403090409023B00020136
:1004000000A0FA0904000001030101000921110103
:1004100000012240000705810308000A09040100C9
:100420000103000000092111010001227B000705E2
:10043000820320000A12010002000000082CB646C8
:100440006101000102000105010902A10185020903
:1004500001A1000509190129081500250195087554
:100460000181020501093009311581257F95027549
:1004700008810609381581257F95017508810605D3
:100480000C0A38021581257F950175088106C0C0C8
:1004900005010980A101850319012AB7001501266C
:1004A000B700950175108100C0050C0901A10185F7
:1004B0000419012AA002150126A0029501751081D8
:1004C00000C005010906A101050719E029E715008B
:1004D00025019508750181029501750881010507BF
:1004E000190029FF150026FF0095067508810005F3
:1004F000081901290595057501910295017503916A
:1005000001C011241FBECFEFD0E2DEBFCDBF04B6C5
:1005100003FE27C08091F8039091F903A091FA039C
:10052000B091FB038730904BA740B04BD1F41092B1
:10053000F8031092F9031092FA031092FB0314BE11
:1005400084B7877F84BF0FB6F894A8958091600028
:10055000886180936000109260000FBEE0E0F0EFD1
:10056000099511E0A0E0B1E0EEE3F4E500E00BBF97
:1005700002C007900D92AA3CB107D9F723E0AAEC7C
:10058000B1E001C01D92A83FB207E1F70E944213FB
:100590000C941D2A0C94000081E0089581E00895D8
:1005A0000C94CE0208950C94D2021F93CF93DF9344
:1005B00000D000D01F92CDB7DEB749835A836B833A
:1005C0003091CC0189819A81311114C0662359F090
:1005D000222349F00E94DD08182F682F89819A8113
:1005E0000E94860803C00E94B108182F69817A8191
:1005F000812F04C00E94DD0869817A810F900F90DD
:100600000F900F900F90DF91CF911F910C947C0F62
:10061000FC01262F408151816281738184810C9479
:10062000D50281E00895CF93DF93EC0160E00E9452
:100630000803BE01DF91CF910C94D3020E94AC114C
:100640000E9496030C94E9110C94E51108950E9400
:1006500027070E9426032FEF84E39CE0215080406F
:100660009040E1F700C000000C94C5210F931F9348
:10067000CF93DF938C0161E00E940803EC01B80185
:100680000E94D002882309F444C0B801CE010E9420
:100690009A1E8823F1F1B801CE010E94EC1E882336
:1006A000C1F1B801CE010E941720882391F1B80151
:1006B000CE010E942D1D882361F1F80182818823DB
:1006C00009F1CB358DE5D807C1F050F4C115FCE533
:1006D000DF0781F0CF3DDC45A9F40E94780E19C0F8
:1006E000CC35EDE5DE0761F0CD35DD4559F40E94EE
:1006F000FC0C08C00E9427030CC00E94050D02C01C
:100700000E94080DC801DF91CF911F910F910C94A9
:10071000CC0280E0DF91CF911F910F910895089551
:100720000C948F0381E008950C9492030895CF9365
:10073000C82F0E9490038C2F0E949403CF9108959C
:10074000CF93DF93CDB7DEB72B970FB6F894DEBF0C
:100750000FBECDBF4F83588769877A878B8761111A
:100760000E942B0D9E012F5F3F4F86E0F9011192F1
:100770008A95E9F785E0FE013796D90101900D923F
:100780008A95E1F789819A814C815D81452B31F011
:100790009F3F31F491E08F3F19F403C091E001C015
:1007A00090E090FF09C049815A816B817C818D81E5
:1007B0009E810E942B0C05C0C9010E94110381116A
:1007C000F2CF2B960FB6F894DEBF0FBECDBFDF91F0
:1007D000CF910895FC01808191810E941F090895A5
:1007E000CF93882309F450C0C82F8CEF8C0F813A27
:1007F000D0F46C2F80910401909105010E94AA20F1
:10080000882349F06C2F80910401909105010E948A
:10081000E2200E945D0D6C2F8091040190910501F2
:100820000E94E0200CC080E28C0F883058F4C77022
:1008300081E001C0880FCA95EAF70E940E0DCF91A2
:100840000C945D0DEBE5EC0FE33040F4F0E0E65A7C
:10085000FE4F808190E0CF910C947220E8E5EC0F80
:10086000E73150F4F0E0EE0FFF1FE45DFE4F8081B2
:100870009181CF910C948820CD3E30F08C2F0E9436
:10088000CF13CF910C94A114CF910895882389F1AF
:100890009CEF980F913A40F4682F80910401909159
:1008A00005010E94E2200DC090E2980F983058F4A4
:1008B000877091E001C0990F8A95EAF7892F0E940D
:1008C000140D0C945D0D9BE5980F933020F480E09F
:1008D00090E00C94722098E5980F973120F480E016
:1008E00090E00C9488208D3E20F00E942A140C94F5
:1008F000A11408951F93CF93DF93182FEB010E944B
:10090000F003209741F08FE99FE00197F1F700C0D5
:1009100000002197F6CF812FDF91CF911F910C948A
:100920004604893319F060E070E002C060E570E0D1
:100930000C947A04882321F00E940E0D0C945D0D16
:100940000895882321F00E94140D0C945D0D0895E4
:10095000CF92DF92EF92FF920F931F93CF93DF938B
:100960007C01062FC72FFC01D281158112951F70C3
:100970000E94E30C882399F0DD2389F08C2F807F7F
:10098000803421F080E2800F883048F082E00E94BD
:10099000AD0D0E94E30C91E0D82ED92601C0D12CD8
:1009A000CC2EC2948FE0C8228C2D90E0FC01E45B39
:1009B000FF4F0C9408298C2F807FCF70882311F073
:1009C000C295C07FDD2399F0CC2309F48DC180E26C
:1009D000800F883010F0011104C08C2F0E940E0D82
:1009E00003C08C2F0E941E0D0E945D0D7DC1802FC3
:1009F0000E944604CC2309F49CC180E2800F883019
:100A000010F0011104C08C2F0E94140D03C08C2F14
:100A10000E94240D0E945D0D8CC18C2F807FCF70B1
:100A2000803211F0C295C07F002319F00130C9F067
:100A300022C0DD2371F0112341F0113031F40E9406
:100A40003E0D8C2B0E94460D74C10E943E0D8C2BD6
:100A50001DC0112319F0113009F46BC10E94530D10
:100A600025C0DD2321F0163008F063C10EC015301B
:100A700008F05FC11BC0DD2361F0112331F0F701E5
:100A8000858180FF31C18F7085838C2F0E949A04ED
:100A900050C1112359F0093309F037C1FFEF27EE98
:100AA00083E0F15020408040E1F72DC18C2F0E945F
:100AB000A1043FC18C2F86958695837019F08130F3
:100AC00061F037C1DD2321F0802F9C2F937002C08D
:100AD00080E090E00E94722034C1DD2321F0802F5D
:100AE0009C2F937002C080E090E00E94882029C172
:100AF000802FDD2319F00E94CF1302C00E942A1418
:100B00000E94A1141EC18C2F837009F045C0D11121
:100B100014C1402F429546954770440F440F602FF3
:100B20006F70862F90E0A0E0B0E0042E04C0880F24
:100B3000991FAA1FBB1F0A94D2F704FF10C00FE031
:100B400010E020E030E004C0000F111F221F331F0F
:100B50004A95D2F7009510952095309503C000E096
:100B600010E09801C695C695C370BC01CD01602BFD
:100B7000712B822B932BC23049F058F4C13019F0FD
:100B80000E949C07DAC00E948A07D7C00E94AE0765
:100B9000D4C00E948807D1C0DD2319F08C2F81704A
:100BA00001C08695882309F4C8C0402F4295469518
:100BB0004770440F440F602F6F70862F90E0A0E0C5
:100BC000B0E0042E04C0880F991FAA1FBB1F0A940F
:100BD000D2F704FF10C00FE010E020E030E004C0C6
:100BE000000F111F221F331F4A95D2F70095109551
:100BF0002095309503C000E010E09801C695C69599
:100C0000C370BC01CD01602B712B822B932BC230A2
:100C100049F058F4C13019F00E9461088EC00E945A
:100C20004F088BC00E94730888C00E94C20785C00D
:100C3000CF70DD2339F08C2F0E94E807802F0E94AF
:100C40009A047BC0802F0E94A1048C2F0E94090867
:100C500074C0023F01F128F4003F41F0013FA1F0D0
:100C60003FC0033FF9F0043F39F13AC0DD2341F0C2
:100C7000153008F05EC08C2F8F710E942E0859C06D
:100C8000163008F056C0F7CFDD2339F08C2F8F7166
:100C90000E94E8074EC0DD23C9F38C2F8F710E949C
:100CA000090847C0DD2329F08C2F8F710E94D307DC
:100CB00040C00E94CE073DC0DD2349F0CF718C2F8C
:100CC0000E94E80763E08C2F0E94920D32C081E001
:100CD0000E94AD0D123068F182E00E94AD0D29C076
:100CE000DD2331F0112391F2802F0E94F00321C007
:100CF000112399F2093349F49FEFE7EEF3E09150A5
:100D0000E040F040E1F700C00000802F0E94460460
:100D100010C04C2F4F70602FC7010E94780F0E94A7
:100D20004D090FC04C2F4F70602FC7010E947B0FE1
:100D300008C088EF8C0D843020F40E944D200E9462
:100D40009703DD20C9F00E94DF0C80FD15C0F7017C
:100D500012820E94D90C0E94E807C7010E94DD069A
:100D60000E94D90CDF91CF911F910F91FF90EF90CE
:100D7000DF90CF900C940908DF91CF911F910F91D4
:100D8000FF90EF90DF90CF9008950F931F93CF9334
:100D9000DF93EC01688179818A810E942A098C01A4
:100DA0000E9485080E947607B801CE010E94A8041F
:100DB000DF91CF911F910F910895CF93DF93EC01B5
:100DC000988189812B813C81232B31F08F3F31F435
:100DD00081E09F3F19F403C081E001C080E080FD05
:100DE00019C0CE010E94360381110CC00E94E30C91
:100DF000882381F08A81882369F082E0DF91CF9196
:100E00000C94AD0DCE010E94C506CE01DF91CF91AD
:100E10000C941303DF91CF91089580E090E00E943D
:100E2000722080E090E00E9488200E942B0D0E949A
:100E30003B0D0E945D0D0E94D2150C94A11480916F
:100E40000401909105010E94E4200C940D070E947A
:100E50001B0D0C941F07E92FE295EF704E2F50E009
:100E6000FA013297EE30F105B0F4E45AFF4F0C94DA
:100E70000829803F91F018F4883E68F40EC0843F42
:100E800051F40BC0883E48F0813F29F406C093FB23
:100E9000882780F9089580E0089581E00895FC0195
:100EA000808191810E941F090E942B070895CF9392
:100EB000DF9300D000D01F92CDB7DEB70F900F9018
:100EC0000F900F900F90DF91CF910895CF93DF9304
:100ED00000D000D000D0CDB7DEB726960FB6F8947C
:100EE000DEBF0FBECDBFDF91CF9108950895089565
:100EF0000C9477070C9478070E947A076093EF01AF
:100F00007093F0018093F1019093F2010C940D071E
:100F10000C947C070F931F930091EF011091F00147
:100F20002091F1013091F201602B712B822B932BD8
:100F30001F910F910C947C070F931F930091EF0169
:100F40001091F0012091F1013091F20160237123A1
:100F5000822393231F910F910C947C070F931F936F
:100F60000091EF011091F0012091F1013091F20117
:100F700060277127822793271F910F910C947C077C
:100F80000C9477070E94C0076093EB017093EC010B
:100F90008093ED019093EE010C940D0760E070E0FA
:100FA000CB010C94C2070F931F9341E050E060E027
:100FB00070E08A019B0104C0000F111F221F331F24
:100FC0008A95D2F7C901B8011F910F910C94C207FD
:100FD0000F931F9341E050E060E070E004C0440FC5
:100FE000551F661F771F8A95D2F78091EB0190916C
:100FF000EC01A091ED01B091EE018A019B01082B5B
:10100000192B2A2B3B2BC901B8011F910F910C946E
:10101000C2070F931F9341E050E060E070E004C00E
:10102000440F551F661F771F8A95D2F7409550953C
:10103000609570958091EB019091EC01A091ED018C
:10104000B091EE018A019B01082319232A233B2337
:10105000C901B8011F910F910C94C2070F931F9300
:1010600041E050E060E070E004C0440F551F661F8F
:10107000771F8A95D2F78091EB019091EC01A091B6
:10108000ED01B091EE018A019B01082719272A275B
:101090003B27C901B8011F910F910C94C2070F9310
:1010A0001F930091EB011091EC012091ED01309123
:1010B000EE01602B712B822B932B1F910F910C94BF
:1010C000C2070F931F930091EB011091EC01209147
:1010D000ED013091EE0160237123822393231F9150
:1010E0000F910C94C2070F931F930091EB01109185
:1010F000EC012091ED013091EE01602771278227EC
:1011000093271F910F910C94C20708952CE0929F92
:10111000800D1124E82FE695E695E695877051E05D
:1011200001C0550F8A95EAF785E0E89FF001112488
:10113000E353FE4F20E030E070E04081CB01022E0F
:1011400002C0969587950A94E2F78170819584276D
:101150008523842781932F5F3F4F2530310569F721
:1011600008952CE0929F800D1124682F6695669556
:101170006695982F977085E0689FB001112440E034
:1011800050E080E0FB01E40FF51FE353FE4F2081A8
:1011900030E0092E02C0369527950A94E2F72170B7
:1011A0003327042E01C0220F0A94EAF7822B4F5FE7
:1011B0005F4F4530510531F70895BF92CF92DF92CE
:1011C000EF92FF920F931F93CF93DF938C01C09008
:1011D000EB01D090EC01E090ED01F090EE018091F8
:1011E000EF019091F001A091F101B091F201C82AB4
:1011F000D92AEA2AFB2ACFE1D0E0D701C6010C2E7A
:1012000004C0B695A795979587950A94D2F780FD67
:1012100004C0219790F7B12C07C0BC2EB8018C2FC9
:101220000E94B3100197A9F38B2DDF91CF911F91ED
:101230000F91FF90EF90DF90CF90BF900895CF93E4
:10124000DF93EC010E94DD08BE010E94B310DF9124
:10125000CF9108951F93CF93DF93EB019091CC0131
:10126000992321F0CB010E941F0913C0882349F064
:10127000CB010E94DD08182F682FCE010E9486083E
:1012800004C0CB010E94B108182FBE01812F0E941B
:10129000B310DF91CF911F910895EF92FF920F93BA
:1012A0001F93CF93DF938C01892B09F46CC0F12C31
:1012B000EE24E394E8012196F8018491843740F408
:1012C000843008F051C0813081F0823019F15BC068
:1012D000853709F444C0A8F19CE7980F903708F0CF
:1012E00052C08F770E94460441C00E5F1F4FFE011F
:1012F000849190E2980F983050F48770FE2D01C0D1
:10130000FF0F8A95EAF78F2F0E942E0D14C00E94BE
:10131000F0032DC00E5F1F4FFE01849190E2980FE5
:10132000983060F48770FE2D01C0FF0F8A95EAF7B0
:101330008F2F0E94340D0E945D0D19C00E9446043B
:1013400016C00E5F1F4FFE01C491CC2381F08FE9C0
:101350009FE00197F1F700C00000C150F6CF0E5F8B
:101360001F4FFE01F49003C00E94F0038E018F2DE9
:10137000882309F49FCFEFE9FFE03197F1F700C030
:1013800000008150F5CFDF91CF911F910F91FF9019
:10139000EF9008951F93CF93DF93C091F30116E070
:1013A0008091F401C81799F0D0E01C9FF0011D9FB7
:1013B000F00D1124EB50FE4F408151816281738109
:1013C000848195810E9466072196C770E9CFDF91DD
:1013D000CF911F910895409125025091260260916E
:1013E0002702709128028091290290912A020C9480
:1013F00066070F931F93CF93DF9380912A02829504
:101400008F7009F05DC080912702882309F458C0CD
:101410008091F3011091F4016091250270912602F0
:10142000C0912802D091290291E06F3F09F090E02D
:10143000292F06E0811709F443C0209721F07F3F50
:1014400021F030E003C031E001C0322F90E030FDE8
:1014500034C0089FF001099FF00D1124DF01AB504B
:10146000BE4F11963C911197371327C03C9136130C
:1014700024C012963C91129731111FC013964D91C2
:101480005C9114974C1B5D0B483C5105B0F4809166
:101490002A028F70806180932A02E650FE4F80817D
:1014A0008F708061808385E292E00E94DD06DF918B
:1014B000CF911F910F910C94CA0901968770BACFF2
:1014C000DF91CF911F910F9108959F92AF92BF929C
:1014D000CF92DF92EF92FF920F931F93CF93DF9300
:1014E000CDB7DEB761970FB6F894DEBF0FBECDBFA4
:1014F0008C0185E0F801DE011D9601900D928A9520
:10150000E1F7F801E2809091250260912602209196
:101510002802309129022115310531F06F3F31F455
:1015200081E09F3F19F403C081E001C080E0F82F03
:10153000F1709F2E80FD3FC1F80140815181A38051
:10154000B48085E2C82E82E0D82EF0902702F50103
:10155000E21BF30BFF2009F4D9C080912A02E83C7A
:10156000F10508F095C0282F207F09F052C05613CE
:1015700013C0491311C0FE2CE1100EC08F708061A2
:1015800080932A020E94EB09C6010E94DD06809129
:101590002A02F80185834CC1AB2831F05F3F31F45A
:1015A00081E04F3F19F403C081E001C080E080FD7D
:1015B00003C081E08E2502C080E090E0F82FF1703A
:1015C000FF2E80FF1CC08091F3012091F40136E0D2
:1015D000821709F40BC190E0389FF001399FF00D9C
:1015E0001124EB50FE4F6181561306C060814613F3
:1015F00003C06281E61203C001968770E9CFFE2C1A
:10160000EE2009F415C180912A02816080932A029C
:1016100054C0561306C0491304C0E11002C0F801BB
:1016200099C0C8010E944F07882361F1EE2051F153
:1016300020912A02822F82958F7090E0029774F099
:10164000809125029091260298878F831986BB8608
:10165000AA862C87CE0107960E94DD0686E0F80157
:10166000A5E2B2E001900D928A95E1F70E94F90996
:101670000E94EB090AC0561711F1C8010E944F07DA
:1016800081112CC0C8010E94DD06FF24F394D0C054
:10169000282F207F81F77A2DB98AA88A6E2D898913
:1016A0000E94570785E292E00E94DD0686E0F6017F
:1016B00011928A95E9F70E94EB09F12CB9C0491300
:1016C000DCCFE110DACFF8018583C8010E94DD0686
:1016D00086E0F60111928A95E9F7AAC0EE2091F210
:1016E00020912A02822F82958F7090E002970CF44D
:1016F000B5CF80912502909126029A8389831B821F
:10170000BD82AC822E83CE010196A6CFE83CF105C6
:1017100008F044C0FE2CEE2009F4B4CF561330C0BC
:1017200049132EC020912A0220FD21C0822F8295CC
:101730008F70482F50E041155105C9F0F8012583FD
:101740004F30510541F08F5F982F9295907F822FF7
:101750008F70892B8583C8010E94DD0686E0F80121
:10176000A5E2B2E001900D928A95E1F73CC086E0D7
:10177000F801A5E2B2E001900D928A95E1F758C018
:10178000C8010E944F07811169CF80912A028160B0
:1017900080932A02C8010E94DD064AC07A2DB98AC8
:1017A000A88A6E2D89890E94570786E0F60111925A
:1017B0008A95E9F718C0EE2009F464CFC8010E94A9
:1017C0004F07F82E882309F45DCF86E0F801A5E2E3
:1017D000B2E001900D928A95E1F785E292E00E94D5
:1017E000EA030E94F9090E94EB0922C04D875E8737
:1017F0008D859E850E941F09292F22952F702230EA
:1018000028F49F7039F0811105C00BC0243028F4F2
:101810009F7049F4805E883020F0C8010E94DD0688
:101820009F2CF92C05C0F8019581907F99F7F9CF8D
:101830008F2D61960FB6F894DEBF0FBECDBFDF913E
:10184000CF911F910F91FF90EF90DF90CF90BF90BD
:10185000AF909F9008951F93CF93DF93CDB7DEB7DE
:101860002C970FB6F894DEBF0FBECDBF4F835887BD
:1018700069877A878B879C87CE0107960E94650AC5
:101880008823D1F09F8188852A853B85232B31F0E1
:101890008F3F31F481E09F3F19F403C081E001C024
:1018A00080E080FD47C04F81588569857A858B85AA
:1018B0009C850E9466073EC086E0FE013796DE01E9
:1018C000119601900D928A95E1F7FF81E8856A856E
:1018D0007B856115710531F0EF3F31F481E0FF3F09
:1018E00019F403C081E001C080E080FD23C0209195
:1018F000F40130E0C9010196877099274091F30106
:1019000050E084179507F1F1F983EA837D836C83B6
:1019100096E0929FD001939FB00D1124AB50BE4F23
:10192000FE01319601900D929A95E1F78093F401B2
:101930000E94CA0916E08091F3019091F401891781
:1019400071F1189FC00111248B509E4F0E94650AAF
:10195000882329F1E091F3011E9FF0011124EB503F
:10196000FE4F4081518162817381848195810E9403
:1019700066078091F30190E0019687709927809324
:10198000F301D9CF0E9427071092F4011092F301BE
:10199000E5E2F2E086E0DF011D928A95E9F72C96F8
:1019A0000FB6F894DEBF0FBECDBFDF91CF911F9170
:1019B000089580912B028595859585950895809150
:1019C0002B028770089590912B02977081E009F4A3
:1019D00080E008959091530392FB222720F9281765
:1019E00051F080FB92F990935303809152039091B0
:1019F00053030C94F40D08958091530382FB8827C0
:101A000080F991E089270C94EA0C81E00C94EA0CAF
:101A100080E00C94EA0C809137020895909137028F
:101A2000892B8093370208958095909137028923FE
:101A300080933702089510923702089590913602EC
:101A4000892B8093360208958095909136028923E0
:101A500080933602089510923602089590913502CF
:101A6000892B8093350208958095909135028923C2
:101A700080933502089510923502089580912C02CA
:101A8000089508950C94410D0C94420D90915303C8
:101A900092FD08C090912C02981721F080932C029F
:101AA0000C94440D089580912C02882329F0109203
:101AB0002C0280E00C94440D0895E0910401F09113
:101AC0000501809137028083E0910401F0910501C6
:101AD000908180913602892B8083E0910401F091FE
:101AE0000501908180913502892B808380912C02A1
:101AF000882381F0E0910401F09105019081892B08
:101B0000808380910401909105010E949E208111A3
:101B10000E94530D80910401909105010C9459206D
:101B20000C94410D9091530392FD10C098E0899F51
:101B300090011124262B20932B020E94E80780910C
:101B40002B028595859585950C94900D0C94E8074E
:101B500010922B0280E00C94900D20912B02809526
:101B6000822380932B02982F977041F430E0482F06
:101B7000082E000C550B2417350721F490915303C0
:101B800092FF07C08595859585950E9409080C945C
:101B9000A80D08956FEF7FEF80E090E00C94E829A6
:101BA00080E090E00E94C42921E0893E9E4F09F028
:101BB00020E0822F089582E090E00C94B62983E023
:101BC00090E00C94B629CF9384E090E00E94B6296F
:101BD000C82F82E290E00E94B6292C2F30E0A901A4
:101BE000582BCA01CF910895CF93C92F682F84E055
:101BF00090E00E94CA296C2F82E290E0CF910C9471
:101C0000CA29AB01BC018FE090E00C94DC29AB0148
:101C1000BC0183E190E00C94DC2960E070E0CB0132
:101C20000C94070E60E070E0CB010E94010E0C9452
:101C30000D0E69EE7EEF80E090E00E94E82960E002
:101C400082E090E00E94CA2960E083E090E00E9478
:101C5000CA291092EF011092F0011092F101109236
:101C6000F20160E084E090E00E94CA2960E082E234
:101C700090E00E94CA2960E085E090E00E94CA29B5
:101C800060E086E090E00E94CA296FEF87E090E074
:101C90000E94CA2940E050E0BA0188E090E00E942A
:101CA000DC2960E08DE090E00E94CA2940E050E02D
:101CB000BA0188E190E00E94DC2960E087E190E0D1
:101CC0000E94CA2940E050E0BA018CE190E00E94F5
:101CD000DC2960E070E080E290E00E94E82940E0CA
:101CE00050E0BA0188E190E00E94DC290C94120EC9
:101CF0000C94190E682F8EE090E00C94CA290E9473
:101D0000842160934502709346028093470290932A
:101D10004802609341027093420280934302909381
:101D20004402089585B7806885BF85B7806885BF00
:101D3000089581E008950C94990E08950C949D0ED9
:101D40000C949D0E0C94A00E0C949D0E0C94A40E5D
:101D50000C949D0E0E94920E8FE891E10E94E92161
:101D60000E94A80E0C94A60E0E949E0E0C949D0E2E
:101D70000E946F210E949A120E942B1C0C94A20EAA
:101D80006F927F928F929F92AF92BF92CF92DF928B
:101D9000EF92FF920F931F93CF93DF93CDB7DEB7F0
:101DA0002A970FB6F894DEBF0FBECDBF0E94BC12BB
:101DB00081110E947F0E39E3832E32E0932E00E0E2
:101DC00010E0C02E802F0E94D0115C01F4016190C0
:101DD00071904F016826792661147104B1F40F5F88
:101DE0001F4F0430110569F78FEF89838A831B82A7
:101DF0000E9478218160782F9D838C8349815A814C
:101E00006B818D810E94A0033AC08091490281FDBF
:101E10000E94D911D12CEE24E394F12CC3018E2120
:101E20009F21892B29F10E949B0E8823A9F0DE8235
:101E3000CF82AE20BF2081E0AB2809F480E0888704
:101E40000E9478218160782F9A8789874E815F81EF
:101E500068858A850E94A003000F111FF801E75CC6
:101E6000FD4F80819181E826F926F182E08207C04A
:101E7000D394EE0CFF1CFCE0DF12D0CFB0CF0E9459
:101E80006F1C0E94BF140E944D2090913802891748
:101E9000D1F00E944D20809338022A960FB6F89414
:101EA000DEBF0FBECDBFDF91CF911F910F91FF908D
:101EB000EF90DF90CF90BF90AF909F908F907F90EA
:101EC0006F900C9497032A960FB6F894DEBF0FBE5E
:101ED000CDBFDF91CF911F910F91FF90EF90DF90D9
:101EE000CF90BF90AF909F908F907F906F9008950C
:101EF00080E090E00895089520E3829FC0011124BE
:101F0000FC012CE0729FE00DF11D1124E60FF11D84
:101F1000EE0FFF1FE851FF4F859194910895880FB0
:101F2000991FFC01E855FE4F859194910895CF9338
:101F3000DF930E94B810EC01811520E5920708F0AC
:101F40003FC0811540E4940708F0D2C0883E910557
:101F500000F5803E910508F002C1883A910570F4C1
:101F6000853A910508F0A6C08130910509F49FC01B
:101F700008F4F2C0049708F0F2C0EEC08F3B910560
:101F800008F4A1C0803C910508F4E6C0805C91098A
:101F9000A5C0811550E2950760F4C11581E0D8070E
:101FA00008F0DDC0CD3ED10508F4D6C0CE01906565
:101FB000D7C0811520E3920708F093C09F708EC0B0
:101FC000811545E5940708F046C0811554E595074D
:101FD00008F0A6C0C11582E5D80718F5C11521E59E
:101FE000D20708F088C0CE01F4E096958795FA955F
:101FF000E1F7282F23703C2F337081E090E002C07E
:10200000880F991F3A95E2F79C68922B2C2F2F701E
:102010002695269540E2249F90011124822B932B34
:102020009FC09E01237033279C2F96959695C115CE
:10203000D34508F065C041E050E002C0440F551F91
:102040002A95E2F780E2989F90011124CA01822B21
:10205000932B9C6885C0811559E5950798F4C115A7
:1020600088E5D80708F061C0C11526E5D20708F059
:1020700073C08C2F0E944C118F7190E0982F88278D
:1020800090626EC081154AE5940708F453C09056DB
:102090008115904208F060C08D2F8F710E944C1105
:1020A0009E01332730628F71A901582B53C081E004
:1020B00090E056C0855AC82FD0E0C557DE4F8881C2
:1020C00090E090644DC0885AC82FD0E0CC0FDD1F3F
:1020D000C35ADE4F88819981946442C00E948F0F59
:1020E0003FC09927D3FF02C0986C3AC0906C38C0AB
:1020F0009F70906A35C09C2F8827816F906A30C08E
:1021000041E050E002C0440F551F2A95E2F780E2FB
:10211000989F90011124CA01822B932B9A6820C0AA
:10212000982F8827846F906A1BC09C2F8827806F08
:10213000906A16C08F700E944C119E0194E03695F3
:1021400027959A95E1F72F7030E0322F22273069DA
:10215000A901482BCA0104C080E090E001C0CE0173
:10216000DF91CF9108950E947C0F0E94970F0895F0
:102170008238910569F1B0F48133910509F46DC09D
:1021800048F48932910509F463C08A32910509F453
:1021900069C008958533910509F455C089339105C7
:1021A000B9F00895833E910569F138F4803E9105B8
:1021B000B1F0823E910509F10895863E9105A9F19D
:1021C000873E9105B9F1843E910509F064C023C0B2
:1021D0002091520320FD4FC021FD4DC008958091F4
:1021E000520380FD44C08091530380FF44C080911E
:1021F000520384FD42C083EE4DC08091520382FFA2
:1022000038C0F5CF8091520382FD33C080915303D3
:1022100080FD31C0ECCF8091530381FF32C08091AB
:10222000520384FD2AC087EE35C08091520383FF9C
:1022300026C0F5CF8091520383FD21C080915303C6
:1022400081FD1FC0ECCF8091520385FD1CC01DC0D5
:102250008091520385FD19C016C08091520386FDFE
:1022600016C017C08091520386FD13C010C089E3C9
:1022700011C082EE0FC080EE0DC080E00BC086EE74
:1022800009C084EE07C089E205C085E303C08AE285
:1022900001C081E390E008959091520392FF0DC038
:1022A000282F2871283019F4877F846006C0282FD2
:1022B0002471243011F48B7F886093FF0DC0282F88
:1022C0002871283119F4877E846106C0282F247173
:1022D000243111F48B7E88612091530320FF0DC0BF
:1022E000382F3871383019F4877F816006C0382F55
:1022F0003171313011F48E7F886021FF0DC0282F9D
:102300002871283119F4877E816106C0282F217138
:10231000213111F48E7E886194FD877E089580E0DE
:1023200008950C94CA0D0E94BC122FEF86E791E02D
:10233000215080409040E1F700C000000E94BC1294
:1023400080E00E94D01180FF04C00E9491110C9483
:10235000C52108950C9493110E94D00D811102C0E3
:102360000E94780E0E94DB0D809349020E94E30DCB
:1023700090935303809352030E94AA110E94DF0D91
:10238000682F70E080E090E00E9488076091EB0188
:102390007091EC018091ED019091EE010C94C007D9
:1023A000E82FF0E0EE0FFF1FE45AFC4F808191818F
:1023B0000895089580EA8A95F1F7089500C0089578
:1023C0000C94DA1108950C94E2110C94E3110C941E
:1023D000E2110C94E711F894E82FE295EF70F0E029
:1023E00031A1282F2F7081E090E001C0880F2A953D
:1023F000EAF7982F9095932391A392A1892B82A31A
:10240000789408950F931F93CF93DF93CAE9D1E097
:1024100089918F3F11F00E94EB1181E0CE39D807EE
:10242000B9F7CEE8D1E00AE911E089918F3F11F0C8
:102430000E94EB110C171D07C1F7DF91CF911F917F
:102440000F910895AF92BF92CF92DF92EF92FF92D9
:102450000F931F93CF93DF938C01C62FD0E0CE0153
:1024600086569E4F6C01DC019C919F3F09F457C03A
:10247000B62EF894E92FE295EF70F0E081A19F70FD
:1024800021E030E001C0220F9A95EAF7822B81A368
:1024900082A12095282322A378940E94DE11EEE8E1
:1024A000F1E020E030E0E12CF12C41E050E08191BE
:1024B0008F3FC1F0A82FA295AF70B0E090966C91BD
:1024C00070E08F70DB0102C0B595A7958A95E2F7A1
:1024D000A0FD08C0CA01022E02C0880F991F0A94ED
:1024E000E2F702C080E090E0E82AF92A2F5F3F4F30
:1024F0002C303105E1F6F60180818F3F11F00E940A
:10250000EB1161E0E114F10409F460E08B2D0E940D
:10251000E011CC0FDD1FC00FD11FF982E882DF91DF
:10252000CF911F910F91FF90EF90DF90CF90BF90D0
:10253000AF9008950E940212A4E5B3E011961C9298
:102540001E92ECE5F3E01182108213961C921E920B
:1025500012971382128215961C921E92149715825E
:10256000148217961C921E9216971782168284E088
:102570000E9407130C941E03FF920F931F93CF9397
:10258000DF93CDB7DEB728970FB6F894DEBF0FBE46
:10259000CDBF8E010F5F1F4F88E0F80111928A9521
:1025A000E9F7F12C6F2DC8010E942212F394F4E098
:1025B000FF12F8CF48E050E0B80184E593E00E94B4
:1025C000A929FF24F394009709F4F12C892B41F0F9
:1025D00088E0F801A4E5B3E001900D928A95E1F757
:1025E0002F2D44E06CE573E084E593E00E9408132E
:1025F0000E9424038F2D28960FB6F894DEBF0FBEDD
:10260000CDBFDF91CF911F910F91FF900895089555
:10261000FF920F931F93CF93DF93F82E092F162F5E
:10262000D72FC42F222349F081E080934C020E94CF
:10263000782190934B0280934A0280914C02882328
:10264000D9F080914A0290914B020E949021059707
:1026500098F0EF2DF02FA12FBD2F80E090E04C2FB0
:1026600050E08417950734F4219131912D933D93D7
:102670000196F7CF10924C02DF91CF911F910F91ED
:10268000FF9008950E94EB200E9448230E9461233E
:102690000E9473230E94B40EFBCF8091530280FFEF
:1026A0000BC060910B0185E0689FB0011124759506
:1026B0006795759567952BC081FF09C060910B01E7
:1026C00085E0689FB00111247595679520C082FF51
:1026D00007C060910B0185E0689FB001112417C00D
:1026E000909152029923D1F060910A01961788F7D0
:1026F00020910B0185E0289F90011124929FA00159
:10270000939F500D112470E0CA010E94D2286038B6
:10271000710540F46115710519F406C065E070E0BB
:10272000862F08958FE7089581E0089580915302E0
:1027300080FF08C06091070170E0759567957595F9
:10274000679521C081FF06C06091070170E0759513
:10275000679519C082FF04C06091070170E010C046
:1027600090915102992399F0609106019617A0F774
:1027700080910701899FC001112470E00E94D22836
:102780006038710540F46115710519F406C061E007
:1027900070E0862F08958FE7089581E008958D3EBB
:1027A00021F40E944D13819504C08E3E29F40E94AD
:1027B0004D138093570208958F3E21F40E944D13CC
:1027C000819504C0803F29F40E944D1380935602E6
:1027D0000895893F19F40E94961305C08A3F31F489
:1027E0000E94961381958093580208958B3F21F49F
:1027F0000E949613819504C08C3F29F40E94961381
:102800008093590208959FE0980F983078F421E062
:1028100030E0A90102C0440F551F9A95E2F7CA01A2
:1028200090915502892B8093550208958D3F21F494
:102830008091530281600BC08E3F21F4809153023E
:10284000826005C08F3F29F4809153028460809399
:10285000530208958D3E39F49091570297FF35C089
:102860001092570259C08E3E29F4909157021916C2
:10287000BCF32BC0909156028F3E29F497FF25C0E0
:102880001092560249C0803F19F41916CCF31DC0AE
:1028900090915802893F29F41916BCF410925802FD
:1028A0003BC08A3F19F497FF10C0F8CF8B3F39F433
:1028B0009091590297FF09C0109259022DC08C3F88
:1028C00021F4909159021916BCF39FE0980F9830AB
:1028D00080F421E030E0A90102C0440F551F9A9511
:1028E000E2F7CA01809590915502892380935502A1
:1028F00013C08D3F21F4809153028E7F0BC08E3F19
:1029000021F4809153028D7F05C08F3F29F480917F
:1029100053028B7F8093530280915602811106C02F
:1029200080915702811102C0109252028091580288
:10293000811106C080915902811102C0109251028A
:1029400008950E94782120915602211104C02091FF
:102950005702222321F09093500280934F0220913E
:102960005802211104C020915902222321F0909392
:102970004E0280934D0284E592E00C946420EF9225
:10298000FF920F931F93CF93DF9300D000D000D01E
:10299000CDB7DEB786E0E4E5F2E0DE011196019006
:1029A0000D928A95E1F7E0905602F090570200915F
:1029B000580210915902109256021092570210922A
:1029C000580210925902E11003C0FF2009F45DC0C3
:1029D00080914F02909150020E949021AC01909101
:1029E0005202992339F020910C0130E02417350769
:1029F00058F04BC020910D018AE0289F90011124CE
:102A00002417350718F041C09F3F19F09F5F90933E
:102A10005202EE2061F00E944D131E1414F09FEF3D
:102A200001C091E0989F902D112490935602FF20B1
:102A300061F00E944D131F1414F09FEF01C091E04C
:102A4000989F902D11249093570230915602332372
:102A5000E1F0209157022223C1F045EB3403C0017D
:102A60001124992319F09093560203C081E08093BA
:102A7000560235EB2303C0011124992319F09093DA
:102A8000570203C081E080935702011103C0112354
:102A900009F45DC080914D0290914E020E949021F8
:102AA000AC0190915102992339F02091080130E056
:102AB0002417350758F04BC0209109018AE0289F60
:102AC000900111242417350718F041C09F3F19F0D9
:102AD0009F5F90935102002361F00E94961310169D
:102AE00014F09FEF01C091E0989F902D11249093D6
:102AF0005802112361F00E949613111614F09FEFF3
:102B000001C091E0989F902D11249093590230912B
:102B100058023323E1F0209159022223C1F045EB02
:102B20003403C0011124992319F09093580203C073
:102B300081E08093580235EB2303C00111249923CF
:102B400019F09093590203C081E08093590280915B
:102B5000560281110BC080915702811107C08091EC
:102B60005802811103C08091590281110E94A11461
:102B7000EB82FC820D831E8386E0FE013196A4E584
:102B8000B2E001900D928A95E1F726960FB6F8947F
:102B9000DEBF0FBECDBFDF91CF911F910F91FF9090
:102BA000EF900895E4E5F2E086E0DF011D928A955A
:102BB000E9F71092520210925102109253020895B6
:102BC000EF92FF920F931F93CF93DF938B01682FA8
:102BD00011110AC0442329F0E82FF0E0EE53FD4F15
:102BE0006491762F862F75C0212F30E0E82FF0E01A
:102BF000442321F0EE53FD4FE491F0E046E0049FC2
:102C0000C0011124CFEFD0E0BE010E94BE284BEAE4
:102C10004603C001479F900D1124800F911D800F26
:102C2000911D982F990F890FAE01421B530B4E9F98
:102C3000D0014F9FB00D5E9FB00D11249B2F189FA8
:102C4000A0011124452F55278E01041B150B0E9F43
:102C5000A0010F9F500D1E9F500D11247E01E81AF8
:102C6000F108E29E8001E39E100DF29E100D1124EA
:102C7000212F3327C21BD30BCE9F9001CF9F300D46
:102C8000DE9F300D112462307105A9F048F4611502
:102C9000710569F061307105C9F48B2F752F0DC076
:102CA0006430710581F058F06630710579F47E2F3B
:102CB0008B2F932F0DC0832F7B2F9E2F09C08E2F1C
:102CC0007B2F952F05C08E2F732F02C07E2F852F4F
:102CD000692FDF91CF911F910F91FF90EF90089591
:102CE00041E00E94E015089508950E94701608952D
:102CF000CF93DF93762FE901682F842F0E947516FA
:102D0000798368838A83DF91CF91089580916403EA
:102D1000282F269530E02115310519F48170826045
:102D200005C02B32310524F08170846580936403E3
:102D3000089588E090E00C94BE29CF92DF92EF9244
:102D4000FF926B017C010E948616B701A60188E004
:102D500090E0FF90EF90DF90CF900C94DC29E4E6B8
:102D6000F3E083E0808311828FEF82838383148278
:102D700060817181828193810C949D16809164039E
:102D800080FF02C08695089580E0089590916803C1
:102D9000933018F49F5F90936803882351F06091FB
:102DA00064037091650380916603909167030C94AE
:102DB0009D16089581E00C94C6169091680399239E
:102DC00019F0915090936803882351F06091640347
:102DD0007091650380916603909167030C949D1632
:102DE000089581E00C94DD1670E00C94FC1D609158
:102DF00012018091640380FF0AC08091110123E0D9
:102E0000829FC001112487599C4F0C94F416809125
:102E1000130190911401891780F7E82FF0E09F01CA
:102E2000220F331FE20FF31FE759FC4F118210826C
:102E300012828F5FF0CF9091640390FF16C0909143
:102E4000130120911401921770F4E92FF0E0DF01D3
:102E5000AA0FBB1FEA0FFB1FE759FC4F818360835A
:102E600042839F5FF0CF0C94F7160895CF93DF93C2
:102E700000D01F92CDB7DEB79091640390FF0AC0D7
:102E80009E012F5F3F4F0E9478164B8169818A8196
:102E90000E941B170F900F900F90DF91CF91089514
:102EA000CF93DF93EC01EC81F0E0E354FE4F4491CB
:102EB000E4E6F3E0628181810E9436178C818F5FA6
:102EC0008C83DF91CF910895CF93DF93EC01E4E6FB
:102ED000F3E0438162818C810E9436178C818F5F81
:102EE0008C83DF91CF9108950F931F93CF93DF933E
:102EF00000D01F92CDB7DEB78C0180915A028111AC
:102F00000AC09E012F5F3F4F4FEF6FEF0E94781670
:102F10008A8180935A02F8018481813051F028F02F
:102F2000823061F440915A020AC080915A0240E016
:102F300007C060915A0240E080E003C040E080E0BA
:102F400060E00E941B17F801848190E0019663E025
:102F500070E00E94D22884830F900F900F90DF9131
:102F6000CF911F910F910895AF92BF92CF92DF92B0
:102F7000EF92FF920F931F93CF93DF9300D01F9296
:102F8000CDB7DEB7182FF62E042FE22E90916403F2
:102F900090FF6DC0E92FE695AE2FB0E0A256BE4F70
:102FA0008C91809338039E7F923061F49E012F5F55
:102FB0003F4F812F0E9478164B8169818A810E9440
:102FC0001B1743C0823019F4009167033EC086305E
:102FD00019F41091650339C08930D9F38931A9F505
:102FE000E9518E2F8170D82EE695F0E0E354FD4F25
:102FF000A590B490C12CBB2460911501C61618F59C
:103000002C2D30E0A29EC001A39E900DB29E900D8B
:10301000112470E00E94BE28812FD11002C0860FBB
:1030200001C0861B90911301290F311DA901440F86
:10303000551F240F351F27593C4F402F6F2D0E94DD
:103040007816C394D9CF0E94F71610936503F092B7
:10305000660300936703EE2051F060916403709162
:10306000650380916603909167030E949D160F90FF
:103070000F900F90DF91CF911F910F91FF90EF90E4
:10308000DF90CF90BF90AF900895E4E6F3E0918198
:10309000282F4381628188E0890F0C94B41781E066
:1030A0000C944518E4E6F3E09181282F4381628176
:1030B00088EF890F0C94B41781E00C945218E4E661
:1030C000F3E0628128E0620F08F46FEF282F43815C
:1030D00081810C94B41781E00C945F18E4E6F3E06E
:1030E000628128E0621B08F460E0282F438181811F
:1030F0000C94B41781E00C946E18E4E6F3E043817D
:1031000028E0420F08F44FEF282F628181810C9450
:10311000B41781E00C947D18E4E6F3E0438128E0E5
:10312000421B08F440E0282F628181810C94B4177F
:1031300081E00C948C1820E00C94B417FF920F934C
:103140001F93CF93DF93EC01F12C0FEF10E0609110
:103150001501F616F0F4809113012F2D30E0280FA1
:10316000311DC901880F991F280F391F27593C4F5E
:1031700070E0C8010E94D228962F8C81409167038D
:1031800060916603F99E800D11240E947816F394D5
:10319000DECF0E94F7169A818C8190FF02C08F5F6C
:1031A00001C081508C83DF91CF911F910F91FF90CF
:1031B0000895AF92BF92CF92DF92EF92FF920F935A
:1031C0001F93CF93DF93FC01828180FF02C00FEF3A
:1031D00001C001E010E04AE2A42E80911501181709
:1031E00008F043C080911301C12ED12CE601C80F15
:1031F000D11DCE01880F991FC80FD91FC759DC4FA9
:10320000198218821A8234E0E32EF12CB12C8091BD
:103210005C028B0D8B322CF06A2D0E94B028892F16
:1032200005C087FF03C090911501890F082E000C7F
:10323000990BC816D90691F4809167038E9DA00161
:103240008F9D500D112455954795559547959E0195
:1032500060916603809165030E947816B00EF1E0DC
:10326000EF1AF108A1F61F5FB8CF0E94F716809100
:103270005C02013031F4811102C08091150181504E
:1032800007C090E001966091150170E00E94D2287D
:1032900080935C02DF91CF911F910F91FF90EF908F
:1032A000DF90CF90BF90AF900895CF93809113019E
:1032B00090911401891770F4E82FF0E09F01220F1C
:1032C000331FE20FF31FE759FC4F11821082128265
:1032D0008F5FF0CFC0E060911501C617C0F5EC2FED
:1032E000F0E070E0CF010E94D22820911301820FFC
:1032F00020915B02022E000C330B90E0E217F307E3
:10330000CCF020911001022E000C330B2E173F073A
:103310008CF09C01220F331F820F931F9C012759B1
:103320003C4F4091670360916603809165030E9462
:1033300078160BC0FC01EE0FFF1F8E0F9F1FFC01C4
:10334000E759FC4F118210821282CF5FC4CF0E94D6
:10335000F71620910F0180915B02820F80935B0230
:1033600090911001920F9093100119165CF4082EA1
:10337000000C990B4091150150E041505109841700
:1033800095071CF0219520930F01CF9108958F92FE
:103390009F92AF92BF92CF92DF92EF92FF920F93E4
:1033A0001F93CF93DF938C01FC014481C42FD0E0A5
:1033B0009E01DE010E9419299B01AC010E942F2968
:1033C0006B017C01E0E2F0E0EC1BFD0BA5E5B0E059
:1033D0009B01AC010E942F294B015C019F01DF0181
:1033E0000E9411299B01AC010E943A299B01AC016A
:1033F0002C0D3D1D4E1D5F1DC501B4010E94E62828
:10340000C22FD22F2A3228F4F3E02F9F90011124EB
:103410000DC025E530E02C1B3109C901880F991F2B
:10342000280F391F37FF02C02F5F3F4F3595279573
:10343000C22FC095F12C85E5E82EED1A809115017B
:10344000F816C8F4F1FC02C08E2D01C08D2F9091AA
:1034500013012F2D30E0290F311DA901440F551FF5
:10346000240F351F27593C4F4C2F609166030E9453
:103470007816F394E3CF0E94F716F8018481811146
:1034800002C091E003C0803219F49FEF90930E01C7
:1034900090910E01890FF8018483DF91CF911F91E4
:1034A0000F91FF90EF90DF90CF90BF90AF909F90E3
:1034B0008F9008950F931F93CF93DF93EC0100E05B
:1034C00010E080911501282F30E00217130724F532
:1034D000909113019801290F311DA901440F551F27
:1034E000240F351F27593C4F869590E04C810817D3
:1034F00019071CF4442331F002C0411103C040916C
:10350000670301C040E060916603809165030E94FB
:1035100078160F5F1F4FD5CF0E94F7168C8190E071
:103520000196817099278C83DF91CF911F910F9124
:1035300008957F928F929F92AF92BF92CF92DF9227
:10354000EF92FF920F931F93CF93DF93FC01828042
:10355000748081E08483EDEBF1E09490ECE3F2E0A1
:10356000E491A12CF5E0BF2ECC24CA94D12CE9190A
:103570000E2F10E080911501A81608F0A2C0EA2CC9
:10358000F12C22E0281568F0BE9CF001BF9CF00DE4
:103590001124E35AFD4F8091650380838091660377
:1035A000818371100AC0BE9CF001BF9CF00D1124F4
:1035B000E35AFD4F138212826AC0BE9CE001BF9C99
:1035C000D00D1124C35ADD4F8B818823F9F081502F
:1035D0008B832FEF829FC00111246C8170E00E94C9
:1035E000BE28FB01FF27E354FE4F8491E82FE91921
:1035F0002FEFE29FC0011124B8010E94BE288091E4
:103600006703689FB00111247A8341C00E948D290D
:10361000209167032695215830E0A901440F551FDA
:10362000322F2227240F351F232F3327821793078A
:1036300074F582E0881588F40E948D29B6010E94F5
:10364000D22888830E948D29209166032695622FB7
:1036500070E00E94D228280F2983BE9CF001BF9CF5
:10366000F00D1124E35AFD4F1282809167038431DB
:1036700020F0893C18F088EC01C084E1BE9CF00188
:10368000BF9CF00D1124E35AFD4F84838383809106
:1036900013019701280F311DC901880F991F280FA9
:1036A000391F27593C4FBE9CF001BF9CF00D1124DF
:1036B000E35AFD4F4281618180810E947816A39474
:1036C00059CFDF91CF911F910F91FF90EF90DF9035
:1036D000CF90BF90AF909F908F907F900C94F716F3
:1036E000E4E6F3E080818E7F808360817181828156
:1036F00093810E949D16109239032FEF80E792E08C
:10370000215080409040E1F700C000000C94F71673
:10371000E4E6F3E080818E7F8083109239032FEFFF
:1037200080E792E0215080409040E1F700C0000027
:103730000C94F716109239038091360381110AC058
:1037400081E0809336038091640381708093350318
:103750000C94881B089560916403669570E04BE0BB
:1037600050E086E191E00E949C29892B19F481E0C8
:10377000809339030E9478219093300380932F0324
:1037800008959091640390FF35C09170811102C03B
:10379000926006C08B3210F0946502C0880F982B9F
:1037A00090936403662351F0609164037091650304
:1037B00080916603909167030E949D166091640357
:1037C000669570E04BE050E086E191E00E949C2914
:1037D000892B19F01092390302C00E94AB1B81E0C3
:1037E0008093320340916703609166038091650383
:1037F0000C949B180895682F90916403969581E02E
:10380000890F8B3208F081E00C94C11B81E00C948D
:10381000FB1B682F9091640396958FEF890F09F435
:103820008AE20C94C11B81E00C94091C61E00C94A9
:10383000C11BE4E6F3E080818160808386950C946F
:10384000161C8091640380FD0C94701B0C94191C51
:1038500060E00C94C11B8091370381112EC00E943F
:10386000D00D811104C00E94780E0E94AF160E94F4
:103870009916609364037093650380936603909335
:1038800067036E7F61F40E94AF160E9499166093E1
:1038900064037093650380936603909367030E94AB
:1038A0008616109239038091640380FF03C08695C9
:1038B0000E94281C81E0809337030895E4E6F3E03A
:1038C00080818160808386950C94281C1092360339
:1038D0008091350381110E945E1C0C94AB1B0F93E9
:1038E0001F93CF93DF9380913903882309F495C008
:1038F00080913803E0916403E695E81BE09331037F
:10390000823049F4F0E0E754FE4FE491CE2FD0E04E
:1039100000E517E159C0863049F4F0E0EA54FE4F63
:10392000E491CE2FD0E004E617E14EC0893051F487
:10393000E695F0E0ED54FE4FE491CE2FD0E00EE995
:1039400018E142C08F3051F4E695F0E0E055FE4FAB
:10395000E491CE2FD0E009ED18E136C0853149F46D
:10396000F0E0E355FE4FE491CE2FD0E005E519E1FC
:103970002BC08831D9F0833239F4EBEAF1E0C591FC
:10398000D49104E717E120C08432A9F08532C1F454
:103990008E2F63E00E94A428E92FF0E0E855FE4F47
:1039A000E491CE2FD0E009E91AE10EC0C8E2D0E0E0
:1039B00007EC19E109C0C4EFD1E00AE51AE104C03F
:1039C000C0EDD7E004E716E180913203882361F06F
:1039D000109232030E9478219093300380932F033A
:1039E00010923403109233030E947821E0912F0348
:1039F000F09130038E1B9F0B8F3F9F4770F4EC0FAD
:103A0000FD1FF0933003E0932F038FE293E0F80162
:103A1000DF91CF911F910F910994DF91CF911F9169
:103A20000F910895882311F0FA0101C0FB01099458
:103A3000CF93DF93C82FD62F0E94BE168C1740F06D
:103A40000E94BE168D1720F4DF91CF910C94061CB6
:103A50008C2FDF91CF910C94161C1F93CF93DF9383
:103A6000FB011281112309F4C1C0EC010E940B0D6E
:103A70008272CD3CFCE5DF0709F49BC008F043C02F
:103A8000C73CECE5DE0709F480C0D8F4C43C9CE5F3
:103A9000D90709F46DC038F4C33CDC4509F0A7C070
:103AA0000E94211C6BC0C53C9CE5D90709F468C085
:103AB000C63CDC4509F09BC04CE558E16FE478E179
:103AC0005BC0CA3CFCE5DF0709F469C070F4C83C80
:103AD000ECE5DE0709F45EC0C93CDC4509F087C0AF
:103AE0004BE658E16AE778E147C0CB3C9CE5D90753
:103AF00009F45AC0CC3CDC4509F079C041EF56E1ED
:103B00006AED76E139C0C23DFCE5DF0709F45EC02D
:103B100098F4CF3C9CE5D90709F452C008F44EC094
:103B2000C03DFCE5DF0709F44EC0C13DDC4509F0AE
:103B30005EC06EE089E057C0C53D9CE5D90709F439
:103B40004BC058F4C33DFCE5DF0709F442C0C43D57
:103B5000DC4509F04CC088E143C0C63D9CE5D9076F
:103B6000F1F1CE35DD4509F042C06AE285E23BC0A5
:103B700043E15CE166E07CE10E94121D10E037C089
:103B800046E05CE163E17CE1F7CF4FE458E16CE5AE
:103B900078E1F2CF4AE758E16BE678E1EDCF48E90A
:103BA00058E169E878E1E8CF49E858E168E978E167
:103BB000E3CF4AED56E161EF76E1DECF81E010C060
:103BC00065E082E010C068E086E00DC064E18FE04F
:103BD0000AC067E185E107C062E289E104C083E2CF
:103BE0000E94161CCBCF0E94181DC8CF11E0812F58
:103BF000DF91CF911F9108953C9A28B12F7E38B163
:103C000030614FB7F894FC01CB01880F991F680F02
:103C1000791F6E0F7F1FE617F70789F0819198E0F3
:103C200038B9000000C087FF28B9880F000000C025
:103C300000C000C028B900C09A9591F7ECCF4FBFE3
:103C40008FE594E00197F1F700C0000008950F930D
:103C50001F93CF93DF93C42FD22FFC01828188233F
:103C6000C9F040933C030E94782190933B038093DA
:103C70003A0380E28C0F883008F057C0C77081E0AB
:103C800001C0880FCA95EAF7DF91CF911F910F917C
:103C90000C949A0480913C03481330C080913A03FD
:103CA00090913B030E949021883C910538F510E2E9
:103CB0001D0FCD17B9F080E28C0F883040F4C7702B
:103CC00081E001C0880FCA95EAF70E94A10418306C
:103CD00028F581E09D2F977001C0880F9A95EAF72B
:103CE0000E949A04802F0E9491041830F0F4D7703B
:103CF00081E001C0880FDA95EAF70AC080E28C0FF4
:103D0000883098F4C77081E001C0880FCA95EAF73F
:103D1000DF91CF911F910F910C94A104802FDF911F
:103D2000CF911F910F910C949104DF91CF911F912E
:103D30000F9108950F939C01CB01243F4CE534076C
:103D400031F188F4293DFCE53F07D9F02A3D4CE5E7
:103D5000340779F1283D3C45A9F506E221EE41EE14
:103D600068ED7CE52BC0263FFCE53F07E1F0A8F0BD
:103D7000273F3C4539F507E225EE46EE67EF7CE547
:103D80001DC007E225EE45EE69ED7CE517C006E2B1
:103D900021EE40EE64EF7CE511C007E225EE44EE33
:103DA00065EF7CE50BC006E221EE42EE66EF7CE5B6
:103DB00005C008E221E045EE6AED7CE50E94271E81
:103DC00080E008C0FC018281882319F010923C0336
:103DD00001C081E00F910895CF93DF93EC01FB01C7
:103DE0008281882309F41FC1C230FCE5DF0708F493
:103DF0001BC1C6319CE5D90738F09E012B5F3C45BD
:103E00002930310508F010C10E94E30D909353034F
:103E100080935203C031ECE5DE0709F4C3C008F01B
:103E200041C0C8308CE5D80709F49AC0F0F4C4301A
:103E3000ECE5DE0709F487C068F4C2308CE5D807EA
:103E400009F477C0C330DC4509F0E3C08091520328
:103E5000826076C0C630ECE5DE0709F46EC008F07B
:103E60007BC08091520388606BC0CC308CE5D80752
:103E700009F485C068F4CA30ECE5DE0709F474C0C3
:103E800008F079C00E94270780915203806858C0CB
:103E9000CE308CE5D80709F476C008F07FC0809159
:103EA00052038BC0CC3FECE5DE0709F44FC018F598
:103EB000C3318CE5D80709F47DC078F4C131ECE555
:103EC000DE0709F473C0C231DC4509F0A2C00E94CC
:103ED0002707809152038F7733C0C5318CE5D8070F
:103EE00009F472C008F486C0CB3FDC4509F091C0EC
:103EF000809153033EC0C115FDE5DF0709F45FC0A3
:103F000058F4CE3F9CE5D90709F444C008F43FC0FB
:103F10008091530382602DC0C230FDE5DF0709F4B4
:103F200075C008F45DC0C330DD4509F072C080E0A3
:103F30006EC080915203816003C080915203806102
:103F40008093520366C08091520311C08091530345
:103F50008260809353035DC0809152038062F0CFF2
:103F6000809152038064ECCF80915203886084601A
:103F7000E7CF8160EECF809152038E7FE1CF8091B9
:103F800052038D7FDDCF80915203877FD9CF8091FF
:103F9000530318C0809153038D7FDBCF8091520370
:103FA0008F7ECECF809152038F7DCACF80915203F6
:103FB0008F7BC6CF80915203877F8B7FC1CF80914B
:103FC00053038D7F8E7FC5CF8091520382FB2227C2
:103FD00020F991E0922790FB82F990FB83F9B0CF12
:103FE00080915303982F909591708E7F892B90FB31
:103FF00081F9AFCF0E9427078091520387FB2227C8
:1040000020F991E0922790FB87F99ACF81E00E94F6
:104010007A0E80915203909153030E94F40D0E94F6
:10402000270780E001C081E0DF91CF910895CF9311
:10403000DF9386319C4541F5EB010E940B0D982FD3
:104040008A812091040130910501882379F09A7AC0
:1040500081E009F480E080933D03911102C069E2A0
:1040600001C065E3C9010E94E0200AC080913D03C0
:10407000811102C069E201C065E3C9010E94E2202A
:104080000E945D0D80E001C081E0DF91CF91089535
:1040900090934303809342030895E0914203F0918B
:1040A0004303309721F00190F081E02D099480E0E6
:1040B0000895E0914203F0914303309721F002808C
:1040C000F381E02D09940895E0914203F0914303B8
:1040D000309739F022E0DC012C930480F581E02D4B
:1040E000099408952091400330914103281739071E
:1040F00071F09093410380934003E0914203F0916B
:104100004303309721F00680F781E02D099408954C
:1041100020913E0330913F032817390771F09093A7
:104120003F0380933E03E0914203F09143033097B5
:1041300021F00084F185E02D09940895FC01329668
:1041400097E080E0915029F021912223D9F38F5FED
:10415000F9CF0895662349F0FC0132960896219123
:10416000621729F0E817F907D1F780E0089581E098
:1041700008959C01FC0132969FEF80E04191461723
:1041800089F09F3F19F4411101C0982F8F5F86304D
:10419000A9F79F3F39F0F901E90FF11D97FDFA9555
:1041A0006283089508959C012A5F3F4FFC0142817C
:1041B000461301C01282019682179307B9F708953A
:1041C0000C94B9200C94D320029626E0FC011192A5
:1041D0002A95E9F70895089508950C94EC200C941D
:1041E000EC20CF930E94EF200E94BC120E94ED2091
:1041F000C0E08C2F0E94D011892B29F4CF5FC430EE
:10420000C1F780E001C081E0CF9108950C94EC20CB
:104210000C9406218091EF03843059F10E9408210B
:1042200080E00E9497030E949A1B1092440320E4AE
:1042300088E190E00FB6F894A895809360000FBED7
:104240002093600083B7817F846083BF83B78160E0
:1042500083BF7894889583B78E7F83BF0FB6F89419
:10426000A895809160008861809360001092600042
:104270000FBE08950C94EC200E9427070E944D2049
:104280000E9497030E94661C0C943A211F920F9281
:104290000FB60F9211248F939F93AF93BF9380918A
:1042A0004403811113C08091E7039091E803A0912A
:1042B000E903B091EA034196A11DB11D8093E70384
:1042C0009093E803A093E903B093EA03BF91AF9101
:1042D0009F918F910F900FBE0F901F90189582E0C5
:1042E00084BD93E095BD9AEF97BD80936E000895CD
:1042F0002FB7F8948091E7039091E803A091E90328
:10430000B091EA032FBF08952FB7F8946091E703A7
:104310007091E8038091E9039091EA032FBF08951B
:104320009C014FB7F8948091E7039091E803A09126
:10433000E903B091EA034FBF821B930B0895789471
:104340001F920F920FB60F9211248F939F93AF93EA
:10435000BF938091E7039091E803A091E903B091A6
:10436000EA030196A11DB11D8093E7039093E80332
:10437000A093E903B093EA03BF91AF919F918F910E
:104380000F900FBE0F901F90189581E08093E00072
:1043900080E28093D8001092C9008FE19EE40197DB
:1043A000F1F700C0000087E090EBDC018093F80398
:1043B0009093F903A093FA03B093FB039CE088E188
:1043C0000FB6F894A895809360000FBE909360009C
:1043D000FFCF9093CB018093CA0108958091500341
:1043E00008959091EF03943031F5809345037093D5
:1043F00047036093460382E08093E9008FEF90913A
:10440000E800815095FD06C095ED9A95F1F7000002
:104410008111F5CF8091E80085FF0DC040E050E0AC
:1044200063E070E085E493E00E94FF238091E80060
:104430008E778093E8000895BC0184E00C94F1210C
:10444000BC0183E00C94F12122E02093E9002FEFDE
:104450003091E800215035FD06C035ED3A95F1F771
:1044600000002111F5CF2091E80025FF0BC040E0AE
:1044700050E066E070E00E94FF238091E8008E77B4
:104480008093E8000895CF93DF9321E02093E90023
:104490002FEF3091E800215035FD06C035ED3A95FB
:1044A000F1F700002111F5CF2091E80025FF14C09D
:1044B000EC0140E050E068E070E00E94FF23809152
:1044C000E8008E778093E80088E0FE01A8E4B3E07E
:1044D00001900D928A95E1F7DF91CF910895809137
:1044E000EE03811109C00E948C250E94EE25809167
:1044F000E20084608093E20008951092EE03089534
:1045000008950895089542E061EC81E00E94052538
:1045100042E261EC82E00C9405258091F103833046
:1045200009F45EC030F4813071F0823009F497C034
:1045300008958A3009F483C08B3009F469C089304A
:1045400009F0A5C020C08091F003813A09F09FC016
:104550008091E800877F8093E8008091F403909138
:10456000F503892B21F468E088E493E003C060E060
:1045700080E090E070E00E944A248091E8008B7710
:104580008093E80008958091F003813209F07FC0A4
:104590008091F4039091F503029708F078C0809120
:1045A000E800877F8093E8008091E80082FD05C0E5
:1045B0008091EF038111F8CF6AC08091F200909151
:1045C000F300029729F48091F1008B7F813021F470
:1045D0008091F100809350038091E8008B7753C065
:1045E0008091F003813A09F052C08091F4039091D8
:1045F000F503892B09F04BC08091E800877F8093F9
:10460000E8008091E80080FFFCCF80912B0136C04C
:104610008091F0038132D9F58091F4039091F503F4
:10462000892BA9F58091E800877F8093E8000E949C
:104630003A258091F20380932B010C9427078091F7
:10464000F003813221F58091E800877F8093E800B4
:104650000E943A258091F30380935103089580913D
:10466000F003813AA1F48091E800877F8093E8000D
:104670008091E80080FFFCCF809151038093F1008E
:104680008091E8008E778093E8000C943A25089595
:1046900084B7877F84BF0FB6F894A8958091600097
:1046A000886180936000109260000FBE90E080E807
:1046B0000FB6F89480936100909361000FBE0C9444
:1046C000AA0E0E948C250E94EE25E2EEF0E0808189
:1046D0008460808378940E9489280E94B80E81E2C9
:1046E00091E00C9448208091EF038530A9F48091EB
:1046F000EF03853079F40E940A218091ED0388232D
:10470000B1F30E94F120882391F30E94E9230E94D3
:104710002707EDCF0E943C210C94C00E0C949023EF
:10472000292F332723303105C9F060F421303105BA
:1047300081F02230310509F044C08BE390E02AEF8C
:1047400033E043C021323105E1F02232310549F135
:1047500038C082E190E025E334E037C0992781300A
:10476000910549F028F0029761F5E2ECF3E005C00D
:10477000E6EFF3E002C0E0EEF3E0849190E09F0109
:1047800024C06115710541F061307105D1F489E0F3
:1047900090E025E234E019C089E090E02CE034E0BC
:1047A00014C06115710541F06130710551F48BE75A
:1047B00090E027E434E009C080E490E022EC34E0AB
:1047C00004C080E090E020E030E0FA0131832083F3
:1047D000089584E189BD86E189BD09B400FEFDCF5D
:1047E0008091D8008F7D8093D8008091E000826016
:1047F0008093E0008091E00081FDFCCF0895CF928E
:10480000DF92EF92FF920F931F93CF93DF93EC0110
:104810008B017A010E945925811133C0E114F10402
:1048200039F0F70180819181081B190BC80FD91F3E
:10483000C12CD12C0115110519F18091E80085FDDD
:1048400016C08091E8008E778093E800E114F104AF
:1048500049F0F70180819181C80ED91ED182C082B2
:1048600085E00FC00E945925882321F30AC0899151
:104870008093F10001501109FFEFCF1ADF0ADACF60
:1048800080E0DF91CF911F910F91FF90EF90DF902B
:10489000CF9008952091F6033091F703261737073C
:1048A00048F06115710539F42091E8002E772093C6
:1048B000E80001C0B901FC0120E06115710569F152
:1048C0008091EF038823E1F18530E1F18091E800E8
:1048D00083FD3AC08091E80082FD2CC08091E80001
:1048E00080FFEBCF8091F2009091F300611571058C
:1048F00051F08830910538F421912093F1006150F6
:1049000071090196F3CF21E0089709F020E080912A
:10491000E8008E778093E800D0CF2111D1CF0AC074
:104920008091EF03882361F0853061F08091E80089
:1049300083FD0AC08091E80082FFF2CF80E00895F5
:1049400082E0089583E0089581E008952091F603C0
:104950003091F7032617370748F06115710539F4D0
:104960002091E8002E772093E80001C0B901FC01F6
:1049700020E06115710581F18091EF03882309F42E
:104980003EC0853009F43DC08091E80083FD3BC006
:104990008091E80082FD2DC08091E80080FFE9CF82
:1049A0008091F2009091F3006115710559F0883003
:1049B000910540F424912093F100319661507109E2
:1049C0000196F2CF21E0089709F020E08091E800FD
:1049D0008E778093E800CDCF2111CECF0AC0809191
:1049E000EF03882361F0853061F08091E80083FD5A
:1049F0000AC08091E80082FFF2CF80E0089582E053
:104A0000089583E0089581E00895982F973068F520
:104A10009093E900981739F07091EC002091ED0027
:104A20005091F00003C0242F762F50E021FD02C0EA
:104A30009F5FECCF3091EB003E7F3093EB003091E5
:104A4000ED003D7F3093ED003091EB00316030930D
:104A5000EB007093EC002093ED005093F000209158
:104A6000EE0027FDE5CF80E008958F708093E90088
:104A700081E008958091F00387FF11C08091E800E4
:104A800082FD05C08091EF038111F8CF11C08091A4
:104A9000E8008B770BC08091EF03882349F0809169
:104AA000E80080FFF8CF8091E8008E778093E800DF
:104AB00008952091E4003091E50095E64091EC00E6
:104AC000842F817040FF23C08091E80080FD1DC0CD
:104AD0008091EF03882399F0853099F08091EB0065
:104AE00085FD11C04091E4005091E5002417350781
:104AF00029F3915011F09A01E1CF84E0089582E00A
:104B0000089583E0089581E0089580E0089540913C
:104B1000E80042FFDDCF08950E94FD250E94052692
:104B2000E0EEF0E0808181608083E8EDF0E080815C
:104B30008F77808319BCA7EDB0E08C918E7F8C932A
:104B400080818F7E80831092EE0308950F931F93D0
:104B5000CF93DF930E94FD250E940526C8EDD0E08B
:104B600088818F77888388818068888388818F7D1A
:104B70008883E7EDF0E080818068808319BC109223
:104B8000EF031092EB031092ED031092EC0300EE92
:104B900010E0F80180818B7F808388818160888329
:104BA00042E060E080E00E940525E1EEF0E08081D7
:104BB0008E7F8083E2EEF0E080818160808380815F
:104BC00088608083F80180818E7F80838881806106
:104BD0008883DF91CF911F910F910895E8EDF0E068
:104BE00080818F7E8083E7EDF0E08081816080832B
:104BF00081E08093EE030C94A625E8EDF0E080813F
:104C00008C7F80831092E20008951092DA00109257
:104C1000E10008951F920F920FB60F9211240BB668
:104C20000F922F933F934F935F936F937F938F9345
:104C30009F93AF93BF93EF93FF938091E10082FF27
:104C40000BC08091E20082FF07C08091E1008B7F62
:104C50008093E1000E9488288091DA0080FF1FC0C5
:104C60008091D80080FF1BC08091DA008E7F8093F6
:104C7000DA008091D90080FF0DC084E189BD86E112
:104C800089BD09B400FEFDCF81E08093EF030E944F
:104C90006F2205C019BC1092EF030E947D22809103
:104CA000E10080FF19C08091E20080FF15C0809173
:104CB000E2008E7F8093E2008091E2008061809329
:104CC000E2008091D80080628093D80019BC85E012
:104CD0008093EF030E9481228091E10084FF30C025
:104CE0008091E20084FF2CC084E189BD86E189BD0A
:104CF00009B400FEFDCF8091D8008F7D8093D8004D
:104D00008091E1008F7E8093E1008091E2008F7EB0
:104D10008093E2008091E20081608093E2008091C4
:104D2000EB03882311F084E007C08091E30087FD46
:104D300002C081E001C083E08093EF030E948222E1
:104D40008091E10083FF29C08091E20083FF25C0AC
:104D50008091E100877F8093E10082E08093EF0300
:104D60001092EB038091E1008E7F8093E1008091AF
:104D7000E2008E7F8093E2008091E2008061809368
:104D8000E20042E060E080E00E9405258091F000B2
:104D900088608093F0000E948022FF91EF91BF9184
:104DA000AF919F918F917F916F915F914F913F91C3
:104DB0002F910F900BBE0F900FBE0F901F90189564
:104DC0001F920F920FB60F9211240BB60F922F93D2
:104DD0003F934F935F936F937F938F939F93AF9383
:104DE000BF93CF93DF93EF93FF93C091E900CF7010
:104DF0008091EC00D82FD17080FDD0E81092E900AE
:104E00008091F000877F8093F00078940E9428279B
:104E10001092E9008091F00088608093F000CD2B23
:104E2000CF70C093E900FF91EF91DF91CF91BF91D7
:104E3000AF919F918F917F916F915F914F913F9132
:104E40002F910F900BBE0F900FBE0F901F901895D3
:104E50001F93CF93DF93CDB7DEB7AA970FB6F89421
:104E6000DEBF0FBECDBFE0EFF3E08091F100819394
:104E700023E0E83FF207C9F70E948D228091E80005
:104E800083FF2EC18091F0039091F103492F50E0F0
:104E90004A30510508F024C1FA01E659FF4F0C943D
:104EA0000829803821F0823809F01AC108C08091A1
:104EB000EC039091ED03992389F082600FC08091FB
:104EC000F4038F70873008F00BC18093E900809164
:104ED000EB0085FB882780F91092E9009091E800AB
:104EE000977F9093E8008093F1001092F100D1C079
:104EF000282F2D7F09F0F4C0882319F0823061F04B
:104F0000EFC08091F203813009F0EAC0933009F0DC
:104F100080E08093ED032EC08091F20381112AC0BE
:104F20008091F4038F702FEF280F263008F0D8C03F
:104F30008093E9002091EB0020FF1CC0933021F406
:104F40008091EB00806214C09091EB00906190938F
:104F5000EB0021E030E0A90102C0440F551F8A9503
:104F6000E2F74093EA001092EA008091EB0088603B
:104F70008093EB001092E9008091E800877F809396
:104F8000E8000E943A25ACC08111AAC01091F2033A
:104F90001F778091E3008078812B8093E3008091DC
:104FA000E800877F8093E8000E943A258091E8001E
:104FB00080FFFCCF8091E30080688093E3001111B3
:104FC00002C082E001C083E08093EF0389C0805873
:104FD000823008F085C08091F2039091F3038C3DFC
:104FE00053E0950779F583E08A838AE289834FB796
:104FF000F894DE01139620E03EE051E2E32FF0E06A
:1050000050935700E49120FF03C0E295EF703F5F9B
:10501000EF708E2F90E0EA3010F0C79601C0C09676
:105020008D939D932F5F243149F74FBF8091E80006
:10503000877F8093E8006AE270E0CE0101960E94CB
:105040004A2416C06091F4037091F503AE014F5FDE
:105050005F4F0E948E23BC01892B09F441C09091BF
:10506000E800977F9093E80089819A810E94A624A6
:105070008091E8008B778093E80032C0803881F51A
:105080008091E800877F8093E8008091EB03809314
:10509000F1008091E8008E7772CF811121C080915C
:1050A000F2039091F30399270297D4F48091E800DA
:1050B000877F8093E8008091F2038093EB030E9446
:1050C0003A258091EB03811106C08091E30087FDB2
:1050D00002C081E001C084E08093EF030E9483223C
:1050E0008091E80083FF0AC08091E800877F809369
:1050F000E8008091EB0080628093EB00AA960FB6E7
:10510000F894DEBF0FBECDBFDF91CF911F91089500
:105110000895CF938091EF038823A1F0C091E90017
:10512000CF709091EC00892F817090FD80E8C82BA2
:105130001092E9008091E80083FD0E942827CF703B
:10514000C093E900CF910895991B79E004C0991F9D
:10515000961708F0961B881F7A95C9F780950895D1
:1051600087FB082E062687FD819567FD61950E94C5
:10517000A4280EF4919507FC81950895AA1BBB1BEA
:1051800051E107C0AA1FBB1FA617B70710F0A61B47
:10519000B70B881F991F5A95A9F780959095BC0168
:1051A000CD01089597FB072E16F4009407D077FDE4
:1051B00009D00E94BE2807FC05D03EF49095819549
:1051C0009F4F0895709561957F4F0895A1E21A2E23
:1051D000AA1BBB1BFD010DC0AA1FBB1FEE1FFF1F9B
:1051E000A217B307E407F50720F0A21BB30BE40BEB
:1051F000F50B661F771F881F991F1A9469F7609532
:105200007095809590959B01AC01BD01CF010895EB
:10521000EE0FFF1F0024001C0BBE0790F691E02D3F
:1052200009940E941929332312F48A1B9B0B0C94B6
:105230002A29A29FB001B39FC001A39F700D811DB9
:105240001124911DB29F700D811D1124911D08958F
:105250000E941929B7FF0895821B930B08950E949D
:105260001929A59F900DB49F900DA49F800D911DAD
:1052700011240895B7FF0C942F290E942F29821B17
:10528000930B08958F929F92AF92BF92CF92DF922D
:10529000EF92FF92CF93DF93EC01688179818A814D
:1052A0009B81611571058105910521F464E279ED19
:1052B0008BE597E02DE133EF41E050E00E94FE29BD
:1052C00049015A019B01AC01A7EAB1E40E942F29D0
:1052D0006B017C01ACEEB4EFA50194010E943D2965
:1052E000DC01CB018C0D9D1DAE1DBF1DB7FF03C0A2
:1052F0000197A109B04888839983AA83BB839F77CC
:10530000DF91CF91FF90EF90DF90CF90BF90AF9063
:105310009F908F9008950C94422980E091E00C9426
:105320004229A0E0B0E08093000190930101A09396
:105330000201B09303010895FC014150504030F048
:1053400001900616D1F73197CF0108958827992744
:105350000895FB01DC0104C08D910190801921F4B6
:1053600041505040C8F7881B990B0895F999FECF1A
:1053700092BD81BDF89A992780B50895A6E1B0E065
:1053800044E050E00C94F029A8E1B0E042E050E0A5
:105390000C94F029262FF999FECF92BD81BDF89A81
:1053A000019700B4021639F01FBA20BD0FB6F89469
:1053B000FA9AF99A0FBE08950396272F0E94CB29D7
:1053C0000E94CA29252F0E94CB29242F0C94CB2977
:1053D0000196272F0E94CB290C94CA29DC01CB010E
:1053E000FC01F999FECF06C0F2BDE1BDF89A3196F5
:1053F00000B40D9241505040B8F70895052E97FB28
:105400001EF400940E94152A57FD07D00E94E6283A
:1054100007FC03D04EF40C94152A50954095309516
:1054200021953F4F4F4F5F4F089590958095709510
:0E54300061957F4F8F4F9F4F0895F894FFCFE7
:10543E00010000002D022808641E140A321E01010C
:10544E0002002A002A2A01191A1B1C1D1E1F2021C8
:10545E0022EE214322242220221C2201E200E90016
:10546E00EA00B500B600B700CD008301CC008A017A
:10547E009201940121022302240225022602270210
:10548E002A02B300B4006F007000818283E200E94B
:10549E0000EA00B500B600B700CD008301CC008A4B
:1054AE0001920194012102230224022502260227E1
:1054BE00022A02B300B4006F007000818283363579
:1054CE0034926061F5F4F3F2F1F094959697000141
:1054DE00020202020606060909090909090F0F0F41
:1054EE000F0F0F1515151819191919191919191949
:0A54FE001923242525252525250066
:00000001FF
