:100000000C9480020C94C9020C94C9020C94C9028D
:100010000C94C9020C94C9020C94C9020C94C90234
:100020000C94C9020C94C9020C941F250C94F5255C
:100030000C945B200C94C9020C94C9020C94C90264
:100040000C94C9020C94C9020C94C9020C94C90204
:100050000C94C9020C94B4200C94C9020C94C902EB
:100060000C94C9020C94C9020C94C9020C94C902E4
:100070000C94C9020C94C9020C94C9020C94C902D4
:100080000C94C9020C94C9020C94C9020C94C902C4
:100090000C94C9020C94C902DA04DA040C050C05AC
:1000A000590577059806980682051706280628063A
:1000B0008806980698069106380738074A074A07BF
:1000C00041074A074A074A073807380746074A07D9
:1000D0004A07460766268D2685278D268527D92639
:1000E000FC26852753276227290014001A000800E0
:1000F000150017001C0018000C00120013002A0045
:100100002B0004001600070009000A000B000D0078
:100110000E000F0033002800E1001D001B00060048
:100120001900050011001000360037003800E30008
:1001300000000000E000E20000412C002C00004123
:10014000010001000000000029001E001F00200027
:1001500021002200230024002500260027002A0079
:100160002B00C45CC35C010001000100005C0100C5
:10017000010052004F002800E100010001000100D1
:1001800001000100010001005000510001000100C8
:10019000000000000100010001002C002C00010003
:1001A000010001000000000000047F3F1F643214C2
:1001B000643214783C1E1E140A05222325262829A1
:1001C0002A2C2D2F3032333536383A3B3D3E4042D3
:1001D000434547494A4C4E5051535557595A5C5E16
:1001E0006062646668696B6D6F71737577797B7D2A
:1001F0007F81838587898A8C8E90929496989A9C29
:100200009E9FA1A3A5A7A8AAACAEAFB1B3B4B6B840
:10021000B9BBBCBEBFC1C2C3C5C6C7C9CACBCCCDA2
:10022000CED0D1D2D2D3D4D5D6D7D7D8D9D9DADA7D
:10023000DBDBDBDCDCDCDCDCDDDDDDDDDCDCDCDCFD
:10024000DCDBDBDBDADAD9D9D8D7D7D6D5D4D3D231
:10025000D2D1D0CECDCCCBCAC9C7C6C5C3C2C1BF0F
:10026000BEBCBBB9B8B6B4B3B1AFAEACAAA8A7A573
:10027000A3A19F9E9C9A98969492908E8C8A89872F
:100280008583817F7D7B79777573716F6D6B69680D
:10029000666462605E5C5A5957555351504E4C4AE1
:1002A0004947454342403E3D3B3A3836353332308C
:1002B0002F2D2C2A292826252322FFAA7F554000EE
:1002C0000101010101010101010202020202020217
:1002D00002020303030303030303040404040404EA
:1002E00004050505050506060606060707070707B0
:1002F00008080808090909090A0A0A0B0B0B0C0C63
:100300000C0D0D0D0E0E0E0F0F0F101011111112FE
:100310001213131414151516161717181819191A7D
:100320001A1B1B1C1D1D1E1E1F20202122222324E0
:1003300024252626272829292A2B2C2D2D2E2F301F
:10034000313232333435363738393A3B3C3D3E3F33
:10035000404142434445464748494A4C4D4E4F5020
:10036000515354555658595A5B5D5E5F61626465DE
:100370006668696B6C6D6F7072737577787A7B7D68
:100380007E8082838587888A8C8E8F9193959698BC
:100390009A9C9EA0A2A3A5A7A9ABADAFB1B3B5B7D8
:1003A000BABCBEC0C2C4C6C9CBCDCFD1D4D6D8DBAF
:1003B000DDDFE2E4E7E9EBEEF0F3F5F8FAFDFF1C30
:1003C00003730070006C00690074006300750073B3
:1003D0000074006F006D00340034000000140353FB
:1003E0000061006D00750078003600310034003681
:1003F0000000000403090409023B00020100A0FA06
:10040000090400000103010100092111010001227A
:1004100040000705810308000A09040100010300E8
:100420000000092111010001227B00070582032041
:10043000000A12010002000000082CB6466101000B
:100440000102000105010902A10185020901A100C3
:100450000509190129081500250195087501810272
:100460000501093009311581257F9502750881063E
:1004700009381581257F950175088106050C0A3814
:10048000021581257F950175088106C0C005010907
:1004900080A101850319012AB700150126B700952F
:1004A0000175108100C0050C0901A1018504190125
:1004B0002AA002150126A002950175108100C00531
:1004C000010906A101050719E029E7150025019595
:1004D0000875018102950175088101050719002938
:1004E000FF150026FF009506750881000508190113
:1004F0002905950575019102950175039101C000CB
:1005000011241FBECFEFD0E2DEBFCDBF04B603FE85
:1005100027C080911C0390911D03A0911E03B091F0
:100520001F038730904BA740B04BD1F410921C03AF
:1005300010921D0310921E0310921F0314BE84B765
:10054000877F84BF0FB6F894A8958091600088617A
:1005500080936000109260000FBEE0E0F0EF09951C
:1005600011E0A0E0B1E0E6E7F1E500E00BBF02C07A
:1005700007900D92A03CB107D9F723E0A0ECB1E0C1
:1005800001C01D92AC31B207E1F70E9441130C94F7
:10059000B9280C94000081E0089581E008950C943E
:1005A000CD0208950C94D1021F93CF93DF9300D016
:1005B00000D01F92CDB7DEB749835A836B83309149
:1005C000C20189819A81311114C0662359F0222316
:1005D00049F00E94DC08182F682F89819A810E94B7
:1005E000850803C00E94B008182F69817A81812F85
:1005F00004C00E94DC0869817A810F900F900F90EF
:100600000F900F90DF91CF911F910C947B0FFC0105
:10061000262F408151816281738184810C94D402A0
:1006200081E00895CF93DF93EC0160E00E9407031F
:10063000BE01DF91CF910C94D2020E94AB110E94B7
:1006400095030C94E8110C94E41108950E94260778
:100650000E9425032FEF84E39CE0215080409040CE
:10066000E1F700C000000C94DA200F931F93CF93A2
:10067000DF938C0161E00E940703EC01B8010E9446
:10068000CF02882309F444C0B801CE010E94AF1DF7
:100690008823F1F1B801CE010E94011E8823C1F127
:1006A000B801CE010E942C1F882391F1B801CE0120
:1006B0000E94451C882361F1F8018281882309F199
:1006C000CB358DE5D807C1F050F4C115FCE5DF0747
:1006D00081F0CF3DDC45A9F40E94770E19C0CC35DE
:1006E000EDE5DE0761F0CD35DD4559F40E94FB0CE8
:1006F00008C00E9426030CC00E94040D02C00E9484
:10070000070DC801DF91CF911F910F910C94CB027F
:1007100080E0DF91CF911F910F91089508950C947F
:100720008E0381E008950C9491030895CF93C82F10
:100730000E948F038C2F0E949303CF910895CF9333
:10074000DF93CDB7DEB72B970FB6F894DEBF0FBEA1
:10075000CDBF4F83588769877A878B8761110E9445
:100760002A0D9E012F5F3F4F86E0F90111928A9575
:10077000E9F785E0FE013796D90101900D928A953F
:10078000E1F789819A814C815D81452B31F09F3F52
:1007900031F491E08F3F19F403C091E001C090E083
:1007A00090FF09C049815A816B817C818D819E8136
:1007B0000E942A0C05C0C9010E9410038111F2CFCA
:1007C0002B960FB6F894DEBF0FBECDBFDF91CF9151
:1007D0000895FC01808191810E941E090895CF93A4
:1007E000882309F450C0C82F8CEF8C0F813AD0F4C5
:1007F0006C2F80910001909101010E94BF1F8823FE
:1008000049F06C2F80910001909101010E94F71F27
:100810000E945C0D6C2F80910001909101010E945B
:10082000F51F0CC080E28C0F883058F4C77081E04F
:1008300001C0880FCA95EAF70E940D0DCF910C9464
:100840005C0DEBE5EC0FE33040F4F0E0EA5AFE4FCC
:10085000808190E0CF910C94871FE8E5EC0FE731A1
:1008600050F4F0E0EE0FFF1FE85DFE4F80819181B4
:10087000CF910C949D1FCD3E30F08C2F0E94CE1353
:10088000CF910C94A014CF910895882389F19CEF07
:10089000980F913A40F4682F8091000190910101E6
:1008A0000E94F71F0DC090E2980F983058F487709F
:1008B00091E001C0990F8A95EAF7892F0E94130DE4
:1008C0000C945C0D9BE5980F933020F480E090E051
:1008D0000C94871F98E5980F973120F480E090E002
:1008E0000C949D1F8D3E20F00E9429140C94A0149E
:1008F00008951F93CF93DF93182FEB010E94EF030E
:10090000209741F08FE99FE00197F1F700C00000C8
:100910002197F6CF812FDF91CF911F910C94450441
:10092000893319F060E070E002C060E570E00C947B
:100930007904882321F00E940D0D0C945C0D08951C
:10094000882321F00E94130D0C945C0D0895CF9222
:10095000DF92EF92FF920F931F93CF93DF937C016F
:10096000062FC72FFC01D281158112951F700E949E
:10097000E20C882399F0DD2389F08C2F807F80346E
:1009800021F080E2800F883048F082E00E94AC0DB8
:100990000E94E20C91E0D82ED92601C0D12CCC2E99
:1009A000C2948FE0C8228C2D90E0FC01E45BFF4FE5
:1009B0000C9411288C2F807FCF70882311F0C29562
:1009C000C07FDD2399F0CC2309F48DC180E2800F34
:1009D000883010F0011104C08C2F0E940D0D03C04F
:1009E0008C2F0E941D0D0E945C0D7DC1802F0E94E6
:1009F0004504CC2309F49CC180E2800F883010F0BC
:100A0000011104C08C2F0E94130D03C08C2F0E9473
:100A1000230D0E945C0D8CC18C2F807FCF708032A3
:100A200011F0C295C07F002319F00130C9F022C037
:100A3000DD2371F0112341F0113031F40E943D0D9E
:100A40008C2B0E94450D74C10E943D0D8C2B1DC046
:100A5000112319F0113009F46BC10E94520D25C009
:100A6000DD2321F0163008F063C10EC0153008F008
:100A70005FC11BC0DD2361F0112331F0F7018581D7
:100A800080FF31C18F7085838C2F0E94990450C1E3
:100A9000112359F0093309F037C1FFEF27EE83E046
:100AA000F15020408040E1F72DC18C2F0E94A0041E
:100AB0003FC18C2F86958695837019F0813061F047
:100AC00037C1DD2321F0802F9C2F937002C080E07E
:100AD00090E00E94871F34C1DD2321F0802F9C2FDE
:100AE000937002C080E090E00E949D1F29C1802F7A
:100AF000DD2319F00E94CE1302C00E9429140E9427
:100B0000A0141EC18C2F837009F045C0D11114C1EF
:100B1000402F429546954770440F440F602F6F70E9
:100B2000862F90E0A0E0B0E0042E04C0880F991F4B
:100B3000AA1FBB1F0A94D2F704FF10C00FE010E0F9
:100B400020E030E004C0000F111F221F331F4A9520
:100B5000D2F7009510952095309503C000E010E085
:100B60009801C695C695C370BC01CD01602B712B51
:100B7000822B932BC23049F058F4C13019F00E94F7
:100B80009B07DAC00E948907D7C00E94AD07D4C076
:100B90000E948707D1C0DD2319F08C2F817001C01E
:100BA0008695882309F4C8C0402F42954695477022
:100BB000440F440F602F6F70862F90E0A0E0B0E0EC
:100BC000042E04C0880F991FAA1FBB1F0A94D2F7D6
:100BD00004FF10C00FE010E020E030E004C0000F80
:100BE000111F221F331F4A95D2F7009510952095AB
:100BF000309503C000E010E09801C695C695C3701B
:100C0000BC01CD01602B712B822B932BC23049F09C
:100C100058F4C13019F00E9460088EC00E944E083E
:100C20008BC00E94720888C00E94C10785C0CF7027
:100C3000DD2339F08C2F0E94E707802F0E94990452
:100C40007BC0802F0E94A0048C2F0E94080874C0D3
:100C5000023F01F128F4003F41F0013FA1F03FC005
:100C6000033FF9F0043F39F13AC0DD2341F015307C
:100C700008F05EC08C2F8F710E942D0859C016306D
:100C800008F056C0F7CFDD2339F08C2F8F710E940A
:100C9000E7074EC0DD23C9F38C2F8F710E9408082F
:100CA00047C0DD2329F08C2F8F710E94D20740C0EE
:100CB0000E94CD073DC0DD2349F0CF718C2F0E94EB
:100CC000E70763E08C2F0E94910D32C081E00E9403
:100CD000AC0D123068F182E00E94AC0D29C0DD231A
:100CE00031F0112391F2802F0E94EF0321C01123D4
:100CF00099F2093349F49FEFE7EEF3E09150E040B9
:100D0000F040E1F700C00000802F0E94450410C0B1
:100D10004C2F4F70602FC7010E94770F0E944C0923
:100D20000FC04C2F4F70602FC7010E947A0F08C070
:100D300088EF8C0D843020F40E94621F0E9496037D
:100D4000DD20C9F00E94DE0C80FD15C0F701128283
:100D50000E94D80C0E94E707C7010E94DC060E948F
:100D6000D80CDF91CF911F910F91FF90EF90DF9002
:100D7000CF900C940808DF91CF911F910F91FF90B5
:100D8000EF90DF90CF9008950F931F93CF93DF9351
:100D9000EC01688179818A810E9429098C010E9475
:100DA00084080E947507B801CE010E94A704DF9154
:100DB000CF911F910F910895CF93DF93EC0198810C
:100DC00089812B813C81232B31F08F3F31F481E0ED
:100DD0009F3F19F403C081E001C080E080FD19C08D
:100DE000CE010E94350381110CC00E94E20C8823C1
:100DF00081F08A81882369F082E0DF91CF910C94A1
:100E0000AC0DCE010E94C406CE01DF91CF910C94AF
:100E10001203DF91CF91089580E090E00E94871F38
:100E200080E090E00E949D1F0E942A0D0E943A0DD2
:100E30000E945C0D0E94D1150C94A01480910001B9
:100E4000909101010E94F91F0C940C070E941A0D49
:100E50000C941E07E92FE295EF704E2F50E0FA0137
:100E60003297EE30F105B0F4E45AFF4F0C9411289C
:100E7000803F91F018F4883E68F40EC0843F51F42E
:100E80000BC0883E48F0813F29F406C093FB8827B9
:100E900080F9089580E0089581E00895FC01808143
:100EA00091810E941E090E942A070895CF93DF9323
:100EB00000D000D01F92CDB7DEB70F900F900F90EB
:100EC0000F900F90DF91CF910895CF93DF9300D0D3
:100ED00000D000D0CDB7DEB726960FB6F894DEBFAF
:100EE0000FBECDBFDF91CF910895089508950C9462
:100EF00076070C9477070E9479076093E501709359
:100F0000E6018093E7019093E8010C940C070C94A0
:100F10007B070F931F930091E5011091E60120914B
:100F2000E7013091E801602B712B822B932B1F91ED
:100F30000F910C947B070F931F930091E501109183
:100F4000E6012091E7013091E801602371238223BB
:100F500093231F910F910C947B070F931F93009184
:100F6000E5011091E6012091E7013091E801602749
:100F70007127822793271F910F910C947B070C9464
:100F800076070E94BF076093E1017093E2018093AE
:100F9000E3019093E4010C940C0760E070E0CB0156
:100FA0000C94C1070F931F9341E050E060E070E0A4
:100FB0008A019B0104C0000F111F221F331F8A9555
:100FC000D2F7C901B8011F910F910C94C1070F937B
:100FD0001F9341E050E060E070E004C0440F551FF3
:100FE000661F771F8A95D2F78091E1019091E20107
:100FF000A091E301B091E4018A019B01082B192B18
:101000002A2B3B2BC901B8011F910F910C94C107EA
:101010000F931F9341E050E060E070E004C0440F84
:10102000551F661F771F8A95D2F74095509560959A
:1010300070958091E1019091E201A091E301B0915E
:10104000E4018A019B01082319232A233B23C901B8
:10105000B8011F910F910C94C1070F931F9341E0AA
:1010600050E060E070E004C0440F551F661F771F1A
:101070008A95D2F78091E1019091E201A091E3017C
:10108000B091E4018A019B01082719272A273B27F1
:10109000C901B8011F910F910C94C1070F931F93C1
:1010A0000091E1011091E2012091E3013091E4010E
:1010B000602B712B822B932B1F910F910C94C107E6
:1010C0000F931F930091E1011091E2012091E30140
:1010D0003091E40160237123822393231F910F91A8
:1010E0000C94C1070F931F930091E1011091E2014D
:1010F0002091E3013091E401602771278227932733
:101100001F910F910C94C10708952CE0929F800DC0
:101110001124E82FE695E695E695877051E001C029
:10112000550F8A95EAF785E0E89FF0011124ED5309
:10113000FE4F20E030E070E04081CB01022E02C083
:10114000969587950A94E2F7817081958427852387
:10115000842781932F5F3F4F2530310569F708952C
:101160002CE0929F800D1124682F669566956695F8
:10117000982F977085E0689FB001112440E050E0FF
:1011800080E0FB01E40FF51FED53FE4F208130E0BE
:10119000092E02C0369527950A94E2F7217033276D
:1011A000042E01C0220F0A94EAF7822B4F5F5F4F93
:1011B0004530510531F70895BF92CF92DF92EF92FB
:1011C000FF920F931F93CF93DF938C01C090E101A7
:1011D000D090E201E090E301F090E4018091E5011C
:1011E0009091E601A091E701B091E801C82AD92ABF
:1011F000EA2AFB2ACFE1D0E0D701C6010C2E04C0B9
:10120000B695A795979587950A94D2F780FD04C067
:10121000219790F7B12C07C0BC2EB8018C2F0E94EB
:10122000B2100197A9F38B2DDF91CF911F910F91F0
:10123000FF90EF90DF90CF90BF900895CF93DF9312
:10124000EC010E94DC08BE010E94B210DF91CF9138
:1012500008951F93CF93DF93EB019091C2019923DF
:1012600021F0CB010E941E0913C0882349F0CB0155
:101270000E94DC08182F682FCE010E94850804C048
:10128000CB010E94B008182FBE01812F0E94B2101E
:10129000DF91CF911F910895EF92FF920F931F93CB
:1012A000CF93DF938C01892B09F46CC0F12CEE24D1
:1012B000E394E8012196F8018491843740F4843066
:1012C00008F051C0813081F0823019F15BC0853760
:1012D00009F444C0A8F19CE7980F903708F052C079
:1012E0008F770E94450441C00E5F1F4FFE0184911D
:1012F00090E2980F983050F48770FE2D01C0FF0FD8
:101300008A95EAF78F2F0E942D0D14C00E94EF03DB
:101310002DC00E5F1F4FFE01849190E2980F983010
:1013200060F48770FE2D01C0FF0F8A95EAF78F2FBA
:101330000E94330D0E945C0D19C00E94450416C026
:101340000E5F1F4FFE01C491CC2381F08FE99FE017
:101350000197F1F700C00000C150F6CF0E5F1F4F9C
:10136000FE01F49003C00E94EF038E018F2D8823AD
:1013700009F49FCFEFE9FFE03197F1F700C00000DB
:101380008150F5CFDF91CF911F910F91FF90EF909A
:1013900008951F93CF93DF93C091E90116E08091E8
:1013A000EA01C81799F0D0E01C9FF0011D9FF00DD5
:1013B0001124E551FE4F4081518162817381848106
:1013C00095810E9465072196C770E9CFDF91CF9183
:1013D0001F91089540911B0250911C0260911D02C3
:1013E00070911E0280911F02909120020C9465075B
:1013F0000F931F93CF93DF938091200282958F707C
:1014000009F05DC080911D02882309F458C08091C5
:10141000E9011091EA0160911B0270911C02C091D8
:101420001E02D0911F0291E06F3F09F090E0292F3A
:1014300006E0811709F443C0209721F07F3F21F097
:1014400030E003C031E001C0322F90E030FD34C005
:10145000089FF001099FF00D1124DF01A551BE4F37
:1014600011963C911197371327C03C91361324C035
:1014700012963C91129731111FC013964D915C91B9
:1014800014974C1B5D0B483C5105B0F48091200231
:101490008F70806180932002E051FE4F80818F70B9
:1014A000806180838BE192E00E94DC06DF91CF9126
:1014B0001F910F910C94C90901968770BACFDF91E3
:1014C000CF911F910F9108959F92AF92BF92CF92AB
:1014D000DF92EF92FF920F931F93CF93DF93CDB7DD
:1014E000DEB761970FB6F894DEBF0FBECDBF8C019B
:1014F00085E0F801DE011D9601900D928A95E1F7D5
:10150000F801E28090911B0260911C0220911E0262
:1015100030911F022115310531F06F3F31F481E028
:101520009F3F19F403C081E001C080E0F82FF17003
:101530009F2E80FD3FC1F80140815181A380B4807E
:101540008BE1C82E82E0D82EF0901D02F501E21B3F
:10155000F30BFF2009F4D9C080912002E83CF1058B
:1015600008F095C0282F207F09F052C0561313C0F1
:10157000491311C0FE2CE1100EC08F708061809362
:1015800020020E94EA09C6010E94DC068091200226
:10159000F80185834CC1AB2831F05F3F31F481E025
:1015A0004F3F19F403C081E001C080E080FD03C01B
:1015B00081E08E2502C080E090E0F82FF170FF2ED0
:1015C00080FF1CC08091E9012091EA0136E082177A
:1015D00009F40BC190E0389FF001399FF00D112400
:1015E000E551FE4F6181561306C06081461303C06A
:1015F0006281E61203C001968770E9CFFE2CEE20CF
:1016000009F415C18091200281608093200254C0AA
:10161000561306C0491304C0E11002C0F80199C076
:10162000C8010E944E07882361F1EE2051F12091FC
:101630002002822F82958F7090E0029774F0809143
:101640001B0290911C0298878F831986BB86AA86FD
:101650002C87CE0107960E94DC0686E0F801ABE1FC
:10166000B2E001900D928A95E1F70E94F8090E947C
:10167000EA090AC0561711F1C8010E944E078111EC
:101680002CC0C8010E94DC06FF24F394D0C0282F90
:10169000207F81F77A2DB98AA88A6E2D89890E94C8
:1016A00056078BE192E00E94DC0686E0F60111927B
:1016B0008A95E9F70E94EA09F12CB9C04913DCCFF9
:1016C000E110DACFF8018583C8010E94DC0686E0CC
:1016D000F60111928A95E9F7AAC0EE2091F22091C5
:1016E0002002822F82958F7090E002970CF4B5CF84
:1016F00080911B0290911C029A8389831B82BD8278
:10170000AC822E83CE010196A6CFE83CF10508F00D
:1017100044C0FE2CEE2009F4B4CF561330C0491358
:101720002EC02091200220FD21C0822F82958F7033
:10173000482F50E041155105C9F0F80125834F307D
:10174000510541F08F5F982F9295907F822F8F7077
:10175000892B8583C8010E94DC0686E0F801ABE195
:10176000B2E001900D928A95E1F73CC086E0F80165
:10177000ABE1B2E001900D928A95E1F758C0C80143
:101780000E944E07811169CF809120028160809371
:101790002002C8010E94DC064AC07A2DB98AA88AB4
:1017A0006E2D89890E94560786E0F60111928A956E
:1017B000E9F718C0EE2009F464CFC8010E944E0773
:1017C000F82E882309F45DCF86E0F801ABE1B2E0A2
:1017D00001900D928A95E1F78BE192E00E94E90376
:1017E0000E94F8090E94EA0922C04D875E878D8514
:1017F0009E850E941E09292F22952F70223028F4E1
:101800009F7039F0811105C00BC0243028F49F70FF
:1018100049F4805E883020F0C8010E94DC069F2CCD
:10182000F92C05C0F8019581907F99F7F9CF8F2D9C
:1018300061960FB6F894DEBF0FBECDBFDF91CF919A
:101840001F910F91FF90EF90DF90CF90BF90AF90DE
:101850009F9008951F93CF93DF93CDB7DEB72C975A
:101860000FB6F894DEBF0FBECDBF4F835887698790
:101870007A878B879C87CE0107960E94640A88230B
:10188000D1F09F8188852A853B85232B31F08F3FBE
:1018900031F481E09F3F19F403C081E001C080E092
:1018A00080FD47C04F81588569857A858B859C85E9
:1018B0000E9465073EC086E0FE013796DE01119664
:1018C00001900D928A95E1F7FF81E8856A857B8515
:1018D0006115710531F0EF3F31F481E0FF3F19F4FC
:1018E00003C081E001C080E080FD23C02091EA01B7
:1018F00030E0C9010196877099274091E90150E0D5
:1019000084179507F1F1F983EA837D836C8396E070
:10191000929FD001939FB00D1124A551BE4FFE019F
:10192000319601900D929A95E1F78093EA010E9419
:10193000C90916E08091E9019091EA01891771F1D6
:10194000189FC001112485519E4F0E94640A88236C
:1019500029F1E091E9011E9FF0011124E551FE4FAC
:101960004081518162817381848195810E946507E4
:101970008091E90190E00196877099278093E901B1
:10198000D9CF0E9426071092EA011092E901EBE1FB
:10199000F2E086E0DF011D928A95E9F72C960FB6FA
:1019A000F894DEBF0FBECDBFDF91CF911F91089598
:1019B00080912102859585958595089580912102D4
:1019C0008770089590912102977081E009F480E07A
:1019D00008959091770292FB222720F9281751F061
:1019E00080FB92F990937702809176029091770232
:1019F0000C94F30D08958091770282FB882780F97B
:101A000091E089270C94E90C81E00C94E90C80E0CA
:101A10000C94E90C80912D02089590912D02892B50
:101A200080932D020895809590912D0289238093B3
:101A30002D02089510922D02089590912C02892B69
:101A400080932C020895809590912C028923809395
:101A50002C02089510922C02089590912B02892B4C
:101A600080932B020895809590912B028923809377
:101A70002B02089510922B0208958091220208955E
:101A800008950C94400D0C94410D9091770292FDB5
:101A900008C090912202981721F0809322020C94A2
:101AA000430D089580912202882329F0109222028A
:101AB00080E00C94430D0895E0910001F091010144
:101AC00080912D028083E0910001F09101019081CD
:101AD00080912C02892B8083E0910001F09101011B
:101AE000908180912B02892B808380912202882310
:101AF00081F0E0910001F09101019081892B8083B8
:101B000080910001909101010E94B31F81110E94F8
:101B1000520D80910001909101010C946E1F0C9464
:101B2000400D9091770292FD10C098E0899F90013E
:101B30001124262B209321020E94E7078091210285
:101B40008595859585950C948F0D0C94E7071092DB
:101B5000210280E00C948F0D209121028095822338
:101B600080932102982F977041F430E0482F082E7F
:101B7000000C550B2417350721F49091770292FF42
:101B800007C08595859585950E9408080C94A70D3A
:101B900008956FEF7FEF80E090E00C94A32880E041
:101BA00090E00E947F2821E0893E9E4F09F020E0CE
:101BB000822F089582E090E00C94712883E090E0F9
:101BC0000C947128CF9384E090E00E947128C82F74
:101BD00082E290E00E9471282C2F30E0A901582B5E
:101BE000CA01CF910895CF93C92F682F84E090E068
:101BF0000E9485286C2F82E290E0CF910C9485287A
:101C0000AB01BC018FE090E00C949728AB01BC01C4
:101C100083E190E00C94972860E070E0CB010C9495
:101C2000060E60E070E0CB010E94000E0C940C0EDA
:101C300069EE7EEF80E090E00E94A32860E082E001
:101C400090E00E94852860E083E090E00E94852873
:101C50001092E5011092E6011092E7011092E8015E
:101C600060E084E090E00E94852860E082E290E0FD
:101C70000E94852860E085E090E00E94852860E071
:101C800086E090E00E9485286FEF87E090E00E9458
:101C9000852840E050E0BA0188E090E00E94972853
:101CA00060E08DE090E00E94852840E050E0BA01BD
:101CB00088E190E00E94972860E087E190E00E9430
:101CC000852840E050E0BA018CE190E00E9497281E
:101CD00060E070E080E290E00E94A32840E050E0E5
:101CE000BA0188E190E00E9497280C94110E0C94A0
:101CF000180E682F8EE090E00C9485280E949920A1
:101D000060933B0270933C0280933D0290933E02AD
:101D100060933702709338028093390290933A02AD
:101D2000089585B7806885BF85B7806885BF0895A9
:101D300081E008950C94980E08950C949C0E0C94D8
:101D40009C0E0C949F0E0C949C0E0C94A30E0C9461
:101D50009C0E0E94910E8EE891E10E94FE200E944E
:101D6000A70E0C94A50E0E949D0E0C949C0E0E9432
:101D700084200E9499120E94531B0C94A10E6F9212
:101D80007F928F929F92AF92BF92CF92DF92EF920B
:101D9000FF920F931F93CF93DF93CDB7DEB72A97B0
:101DA0000FB6F894DEBF0FBECDBF0E94BB128111EB
:101DB0000E947E0E3FE2832E32E0932E00E010E080
:101DC000C02E802F0E94CF115C01F40161907190B0
:101DD0004F016826792661147104B1F40F5F1F4F1B
:101DE0000430110569F78FEF89838A831B820E9473
:101DF0008D208160782F9D838C8349815A816B81EE
:101E00008D810E949F033AC080913F0281FD0E9414
:101E1000D811D12CEE24E394F12CC3018E219F2103
:101E2000892B29F10E949A0E8823A9F0DE82CF82A5
:101E3000AE20BF2081E0AB2809F480E088870E94B3
:101E40008D208160782F9A8789874E815F81688590
:101E50008A850E949F03000F111FF801E15DFD4F6D
:101E600080819181E826F926F182E08207C0D3942F
:101E7000EE0CFF1CFCE0DF12D0CFB0CF0E94971B0E
:101E80000E94BE140E94621F90912E028917D1F009
:101E90000E94621F80932E022A960FB6F894DEBF2E
:101EA0000FBECDBFDF91CF911F910F91FF90EF90AB
:101EB000DF90CF90BF90AF909F908F907F906F906A
:101EC0000C9496032A960FB6F894DEBF0FBECDBFD2
:101ED000DF91CF911F910F91FF90EF90DF90CF9006
:101EE000BF90AF909F908F907F906F90089580E00B
:101EF00090E00895089520E3829FC0011124FC0121
:101F00002CE0729FE00DF11D1124E60FF11DEE0F84
:101F1000FF1FE851FF4F859194910895880F991FF5
:101F2000FC01E855FE4F859194910895CF93DF937E
:101F30000E94B710EC01811520E5920708F03FC020
:101F4000811540E4940708F0D2C0883E910500F561
:101F5000803E910508F002C1883A910570F4853AF7
:101F6000910508F0A6C08130910509F49FC008F4DE
:101F7000F2C0049708F0F2C0EEC08F3B910508F460
:101F8000A1C0803C910508F4E6C0805C9109A5C021
:101F9000811550E2950760F4C11581E0D80708F07B
:101FA000DDC0CD3ED10508F4D6C0CE019065D7C0C6
:101FB000811520E3920708F093C09F708EC08115B1
:101FC00045E5940708F046C0811554E5950708F0EB
:101FD000A6C0C11582E5D80718F5C11521E5D207BD
:101FE00008F088C0CE01F4E096958795FA95E1F760
:101FF000282F23703C2F337081E090E002C0880FBF
:10200000991F3A95E2F79C68922B2C2F2F702695FA
:10201000269540E2249F90011124822B932B9FC090
:102020009E01237033279C2F96959695C115D34515
:1020300008F065C041E050E002C0440F551F2A95EA
:10204000E2F780E2989F90011124CA01822B932B22
:102050009C6885C0811559E5950798F4C11588E5F8
:10206000D80708F061C0C11526E5D20708F073C093
:102070008C2F0E944B118F7190E0982F88279062CF
:102080006EC081154AE5940708F453C09056811537
:10209000904208F060C08D2F8F710E944B119E01FD
:1020A000332730628F71A901582B53C081E090E033
:1020B00056C0855AC82FD0E0C957DE4F888190E0BE
:1020C00090644DC0885AC82FD0E0CC0FDD1FC75A8E
:1020D000DE4F88819981946442C00E948E0F3FC078
:1020E0009927D3FF02C0986C3AC0906C38C09F709B
:1020F000906A35C09C2F8827816F906A30C041E07C
:1021000050E002C0440F551F2A95E2F780E2989FE5
:1021100090011124CA01822B932B9A6820C0982F1A
:102120008827846F906A1BC09C2F8827806F906AD5
:1021300016C08F700E944B119E0194E03695279532
:102140009A95E1F72F7030E0322F22273069A901EC
:10215000482BCA0104C080E090E001C0CE01DF91AD
:10216000CF9108950E947B0F0E94960F08958238A8
:10217000910569F1B0F48133910509F46DC048F41B
:102180008932910509F463C08A32910509F469C066
:1021900008958533910509F455C089339105B9F047
:1021A0000895833E910569F138F4803E9105B1F0C0
:1021B000823E910509F10895863E9105A9F1873E79
:1021C0009105B9F1843E910509F064C023C02091C6
:1021D000760220FD4FC021FD4DC00895809176020A
:1021E00080FD44C08091770280FF44C080917602D8
:1021F00084FD42C083EE4DC08091760282FF38C0DC
:10220000F5CF8091760282FD33C08091770280FD08
:1022100031C0ECCF8091770281FF32C0809176028D
:1022200084FD2AC087EE35C08091760283FF26C0E8
:10223000F5CF8091760283FD21C08091770281FDE8
:102240001FC0ECCF8091760285FD1CC01DC080911F
:10225000760285FD19C016C08091760286FD16C0F3
:1022600017C08091760286FD13C010C089E311C0AB
:1022700082EE0FC080EE0DC080E00BC086EE09C07C
:1022800084EE07C089E205C085E303C08AE201C08D
:1022900081E390E008959091760292FF0DC0282F7F
:1022A0002871283019F4877F846006C0282F247194
:1022B000243011F48B7F886093FF0DC0282F287184
:1022C000283119F4877E846106C0282F24712431B7
:1022D00011F48B7E88612091770220FF0DC0382F8A
:1022E0003871383019F4877F816006C0382F31711A
:1022F000313011F48E7F886021FF0DC0282F2871A6
:10230000283119F4877E816106C0282F217121317F
:1023100011F48E7E886194FD877E089580E0089593
:102320000C94C90D0E94BB122FEF86E791E021505B
:1023300080409040E1F700C000000E94BB1280E0A6
:102340000E94CF1180FF04C00E9490110C94DA20EB
:1023500008950C9492110E94CF0D811102C00E9429
:10236000770E0E94DA0D80933F020E94E20D909357
:102370007702809376020E94A9110E94DE0D682FD9
:1023800070E080E090E00E9487076091E101709129
:10239000E2018091E3019091E4010C94BF07E82FE2
:1023A000F0E0EE0FFF1FE058FD4F8081918108950E
:1023B000089580EA8A95F1F7089500C008950C9475
:1023C000D91108950C94E1110C94E2110C94E111CF
:1023D0000C94E611F894E82FE295EF70F0E031A14B
:1023E000282F2F7081E090E001C0880F2A95EAF72E
:1023F000982F9095932391A392A1892B82A37894EF
:1024000008950F931F93CF93DF93C6E9D1E089918D
:102410008F3F11F00E94EA1181E0CA39D807B9F75D
:10242000CAE8D1E006E911E089918F3F11F00E94DE
:10243000EA110C171D07C1F7DF91CF911F910F9182
:102440000895AF92BF92CF92DF92EF92FF920F93D7
:102450001F93CF93DF938C01C62FD0E0CE018A5615
:102460009E4F6C01DC019C919F3F09F457C0B62E32
:10247000F894E92FE295EF70F0E081A19F7021E0E0
:1024800030E001C0220F9A95EAF7822B81A382A146
:102490002095282322A378940E94DD11EAE8F1E038
:1024A00020E030E0E12CF12C41E050E081918F3FC1
:1024B000C1F0A82FA295AF70B0E090966C9170E03B
:1024C0008F70DB0102C0B595A7958A95E2F7A0FD54
:1024D00008C0CA01022E02C0880F991F0A94E2F7B1
:1024E00002C080E090E0E82AF92A2F5F3F4F2C30AD
:1024F0003105E1F6F60180818F3F11F00E94EA116B
:1025000061E0E114F10409F460E08B2D0E94DF1119
:10251000CC0FDD1FC00FD11FF982E882DF91CF9170
:102520001F910F91FF90EF90DF90CF90BF90AF90F1
:1025300008950E940112A8E7B2E011961C921E9223
:10254000E0E8F2E01182108213961C921E9212971C
:102550001382128215961C921E9214971582148271
:1025600017961C921E9216971782168284E00E947C
:1025700006130C941D03FF920F931F93CF93DF93C9
:10258000CDB7DEB728970FB6F894DEBF0FBECDBF2C
:102590008E010F5F1F4F88E0F80111928A95E9F7CD
:1025A000F12C6F2DC8010E942112F394F4E0FF1268
:1025B000F8CF48E050E0B80188E792E00E94642834
:1025C000FF24F394009709F4F12C892B41F088E063
:1025D000F801A8E7B2E001900D928A95E1F72F2D5E
:1025E00044E060E872E088E792E00E9407130E94EE
:1025F00023038F2D28960FB6F894DEBF0FBECDBFF4
:10260000DF91CF911F910F91FF9008950895FF9250
:102610000F931F93CF93DF93F82E092F162FD72FE9
:10262000C42F222349F081E0809342020E948D2032
:102630009093410280934002809142028823D9F016
:1026400080914002909141020E94A520059798F048
:10265000EF2DF02FA12FBD2F80E090E04C2F50E008
:102660008417950734F4219131912D933D93019670
:10267000F7CF10924202DF91CF911F910F91FF90FF
:1026800008950E9400200E945D220E9476220E94EE
:1026900088220E94B30EFBCF8091490280FF0BC0BD
:1026A0006091070185E0689FB001112475956795D9
:1026B000759567952BC081FF09C06091070185E082
:1026C000689FB00111247595679520C082FF07C0EF
:1026D0006091070185E0689FB001112417C09091B7
:1026E00048029923D1F060910601961788F720914E
:1026F000070185E0289F90011124929FA001939FDC
:10270000500D112470E0CA010E94DB27603871056A
:1027100040F46115710519F406C065E070E0862F7C
:1027200008958FE7089581E008958091490280FF20
:1027300008C06091030170E0759567957595679580
:1027400021C081FF06C06091030170E07595679517
:1027500019C082FF04C06091030170E010C0909125
:102760004702992399F0609102019617A0F7809192
:102770000301899FC001112470E00E94DB276038AB
:10278000710540F46115710519F406C061E070E04F
:10279000862F08958FE7089581E008958D3E21F4F6
:1027A0000E944C13819504C08E3E29F40E944C1364
:1027B00080934D0208958F3E21F40E944C13819521
:1027C00004C0803F29F40E944C1380934C0208956A
:1027D000893F19F40E94951305C08A3F31F40E9485
:1027E0009513819580934E0208958B3F21F40E94AA
:1027F0009513819504C08C3F29F40E949513809312
:102800004F0208959FE0980F983078F421E030E06F
:10281000A90102C0440F551F9A95E2F7CA01909191
:102820004B02892B80934B0208958D3F21F48091B8
:10283000490281600BC08E3F21F480914902826081
:1028400005C08F3F29F4809149028460809349023A
:1028500008958D3E39F490914D0297FF35C0109246
:102860004D0259C08E3E29F490914D021916BCF3C9
:102870002BC090914C028F3E29F497FF25C01092F7
:102880004C0249C0803F19F41916CCF31DC0909139
:102890004E02893F29F41916BCF410924E023BC037
:1028A0008A3F19F497FF10C0F8CF8B3F39F490910D
:1028B0004F0297FF09C010924F022DC08C3F21F4A8
:1028C00090914F021916BCF39FE0980F983080F456
:1028D00021E030E0A90102C0440F551F9A95E2F7AC
:1028E000CA01809590914B02892380934B0213C0BB
:1028F0008D3F21F4809149028E7F0BC08E3F21F4E1
:10290000809149028D7F05C08F3F29F48091490253
:102910008B7F8093490280914C02811106C0809187
:102920004D02811102C01092480280914E02811125
:1029300006C080914F02811102C010924702089593
:102940000E948D2020914C02211104C020914D0243
:10295000222321F0909346028093450220914E025B
:10296000211104C020914F02222321F090934402B0
:10297000809343028AE492E00C94791FEF92FF92D5
:102980000F931F93CF93DF9300D000D000D0CDB72B
:10299000DEB786E0EAE4F2E0DE01119601900D92E6
:1029A0008A95E1F7E0904C02F0904D0200914E02C2
:1029B00010914F0210924C0210924D0210924E0252
:1029C00010924F02E11003C0FF2009F45DC0809116
:1029D0004502909146020E94A520AC0190914802C8
:1029E000992339F02091080130E02417350758F079
:1029F0004BC0209109018AE0289F900111242417DF
:102A0000350718F041C09F3F19F09F5F909348022F
:102A1000EE2061F00E944C131E1414F09FEF01C0D1
:102A200091E0989F902D112490934C02FF2061F02B
:102A30000E944C131F1414F09FEF01C091E0989F67
:102A4000902D112490934D0230914C023323E1F0EC
:102A500020914D022223C1F045EB3403C001112423
:102A6000992319F090934C0203C081E080934C02AB
:102A700035EB2303C0011124992319F090934D02E3
:102A800003C081E080934D02011103C0112309F4BA
:102A90005DC080914302909144020E94A520AC0148
:102AA00090914702992339F02091040130E02417D6
:102AB000350758F04BC0209105018AE0289F90010E
:102AC00011242417350718F041C09F3F19F09F5F6C
:102AD00090934702002361F00E949513101614F0A2
:102AE0009FEF01C091E0989F902D112490934E028A
:102AF000112361F00E949513111614F09FEF01C08D
:102B000091E0989F902D112490934F0230914E02A6
:102B10003323E1F020914F022223C1F045EB34032F
:102B2000C0011124992319F090934E0203C081E053
:102B300080934E0235EB2303C0011124992319F031
:102B400090934F0203C081E080934F0280914C022A
:102B500081110BC080914D02811107C080914E02FE
:102B6000811103C080914F0281110E94A014EB8259
:102B7000FC820D831E8386E0FE013196AAE4B2E05A
:102B800001900D928A95E1F726960FB6F894DEBF74
:102B90000FBECDBFDF91CF911F910F91FF90EF90AE
:102BA0000895EAE4F2E086E0DF011D928A95E9F7F4
:102BB0001092480210924702109249020895EF9233
:102BC000FF920F931F93CF93DF938B01682F111107
:102BD0000AC0442329F0E82FF0E0E154FD4F64914E
:102BE000762F862F75C0212F30E0E82FF0E04423A8
:102BF00021F0E154FD4FE491F0E046E0049FC00174
:102C00001124CFEFD0E0BE010E94C7274BEA460354
:102C1000C001479F900D1124800F911D800F911DC1
:102C2000982F990F890FAE01421B530B4E9FD00175
:102C30004F9FB00D5E9FB00D11249B2F189FA001D8
:102C40001124452F55278E01041B150B0E9FA00143
:102C50000F9F500D1E9F500D11247E01E81AF108A0
:102C6000E29E8001E39E100DF29E100D1124212F93
:102C70003327C21BD30BCE9F9001CF9F300DDE9F19
:102C8000300D112462307105A9F048F46115710509
:102C900069F061307105C9F48B2F752F0DC0643058
:102CA000710581F058F06630710579F47E2F8B2F15
:102CB000932F0DC0832F7B2F9E2F09C08E2F7B2F2C
:102CC000952F05C08E2F732F02C07E2F852F692F61
:102CD000DF91CF911F910F91FF90EF90089541E008
:102CE0000E94DF15089508950E946F160895CF93EE
:102CF000DF93762FE901682F842F0E947416798361
:102D000068838A83DF91CF91089580918802282F6C
:102D1000269530E02115310519F48170826005C0D7
:102D20002532310524F081708864809388020895EB
:102D300088E090E00C947928CF92DF92EF92FF9296
:102D40006B017C010E948516B701A60188E090E026
:102D5000FF90EF90DF90CF900C949728E8E8F2E096
:102D600083E0808311828FEF82838383148260816A
:102D70007181828193810C949C168091880280FFDE
:102D800002C08695089580E0089590918C0293305A
:102D900018F49F5F90938C02882351F06091880211
:102DA0007091890280918A0290918B020C949C16FA
:102DB000089581E00C94C51690918C02992319F026
:102DC000915090938C02882351F060918802709109
:102DD000890280918A0290918B020C949C1608952E
:102DE00081E00C94DC1670E00C94111D60910E01D2
:102DF0008091880280FF0AC080910D0123E0829FAC
:102E0000C001112483579D4F0C94F31680910F013C
:102E100090911001891780F7E82FF0E09F01220FB1
:102E2000331FE20FF31FE357FD4F1182108212820E
:102E30008F5FF0CF9091880290FF16C090910F01A4
:102E400020911001921770F4E92FF0E0DF01AA0F32
:102E5000BB1FEA0FFB1FE357FD4F81836083428353
:102E60009F5FF0CF0C94F6160895CF93DF9300D0B8
:102E70001F92CDB7DEB79091880290FF0AC09E01E5
:102E80002F5F3F4F0E9477164B8169818A810E9494
:102E90001A170F900F900F90DF91CF910895CF9355
:102EA000DF93EC01EC81F0E0E654FE4F4491E8E85A
:102EB000F2E0628181810E9435178C818F5F8C8363
:102EC000DF91CF910895CF93DF93EC01E8E8F2E032
:102ED000438162818C810E9435178C818F5F8C8346
:102EE000DF91CF9108950F931F93CF93DF9300D07D
:102EF0001F92CDB7DEB78C018091500281110AC0BC
:102F00009E012F5F3F4F4FEF6FEF0E9477168A8130
:102F100080935002F8018481813051F028F0823092
:102F200061F4409150020AC08091500240E007C015
:102F30006091500240E080E003C040E080E060E04B
:102F40000E941A17F801848190E0019663E070E016
:102F50000E94DB2784830F900F900F90DF91CF9119
:102F60001F910F910895AF92BF92CF92DF92EF928F
:102F7000FF920F931F93CF93DF9300D01F92CDB793
:102F8000DEB7182FF62E042FE22E9091880290FFC4
:102F90006DC0E92FE695AE2FB0E0A656BE4F8C91DE
:102FA00080935C029E7F923061F49E012F5F3F4FC1
:102FB000812F0E9477164B8169818A810E941A179E
:102FC00043C0823019F400918B023EC0863019F460
:102FD0001091890239C08930D9F38931A9F5E951B5
:102FE0008E2F8170D82EE695F0E0E654FD4FA59027
:102FF000B490C12CBB2460911101C61618F52C2D7C
:1030000030E0A29EC001A39E900DB29E900D1124AF
:1030100070E00E94C727812FD11002C0860F01C027
:10302000861B90910F01290F311DA901440F551FD7
:10303000240F351F23573D4F402F6F2D0E947716C9
:10304000C394D9CF0E94F61610938902F0928A0297
:1030500000938B02EE2051F06091880270918902FA
:1030600080918A0290918B020E949C160F900F9083
:103070000F90DF91CF911F910F91FF90EF90DF9014
:10308000CF90BF90AF900895E8E8F2E09181282FAB
:103090004381628188E0890F0C94B31781E00C941E
:1030A0004418E8E8F2E09181282F4381628188EF9B
:1030B000890F0C94B31781E00C945118E8E8F2E002
:1030C000628128E0620F08F46FEF282F438181812D
:1030D0000C94B31781E00C945E18E8E8F2E062818A
:1030E00028E0621B08F460E0282F438181810C9462
:1030F000B31781E00C946D18E8E8F2E0438128E012
:10310000420F08F44FEF282F628181810C94B3178E
:1031100081E00C947C18E8E8F2E0438128E0421B4F
:1031200008F440E0282F628181810C94B31781E07C
:103130000C948B1820E00C94B317FF920F931F93FD
:10314000CF93DF93EC01F12C0FEF10E060911101B0
:10315000F616F0F480910F012F2D30E0280F311D6D
:10316000C901880F991F280F391F23573D4F70E061
:10317000C8010E94DB27962F8C8140918B026091C1
:103180008A02F99E800D11240E947716F394DECFF7
:103190000E94F6169A818C8190FF02C08F5F01C059
:1031A00081508C83DF91CF911F910F91FF900895F3
:1031B000AF92BF92CF92DF92EF92FF920F931F9345
:1031C000CF93DF93FC01828180FF02C00FEF01C02B
:1031D00001E010E04AE2A42E80911101181708F0D6
:1031E00043C080910F01C12ED12CE601C80FD11D23
:1031F000CE01880F991FC80FD91FC357DD4F198201
:1032000018821A8234E0E32EF12CB12C8091520204
:103210008B0D8B322CF06A2D0E94B927892F05C0A7
:1032200087FF03C090911101890F082E000C990BA4
:10323000C816D90691F480918B028E9DA0018F9DB6
:10324000500D112455954795559547959E016091D0
:103250008A02809189020E947716B00EF1E0EF1A7F
:10326000F108A1F61F5FB8CF0E94F61680915202B6
:10327000013031F4811102C080911101815007C0E9
:1032800090E001966091110170E00E94DB2780932D
:103290005202DF91CF911F910F91FF90EF90DF903D
:1032A000CF90BF90AF900895CF9380910F019091F0
:1032B0001001891770F4E82FF0E09F01220F331FEF
:1032C000E20FF31FE357FD4F1182108212828F5FCE
:1032D000F0CFC0E060911101C617C0F5EC2FF0E00F
:1032E00070E0CF010E94DB2720910F01820F209117
:1032F0005102022E000C330B90E0E217F307CCF0E2
:1033000020910C01022E000C330B2E173F078CF07E
:103310009C01220F331F820F931F9C0123573D4FA7
:1033200040918B0260918A02809189020E947716F7
:103330000BC0FC01EE0FFF1F8E0F9F1FFC01E35718
:10334000FD4F118210821282CF5FC4CF0E94F61609
:1033500020910B0180915102820F80935102909134
:103360000C01920F90930C0119165CF4082E000CBE
:10337000990B4091110150E0415051098417950774
:103380001CF0219520930B01CF9108958F929F926D
:10339000AF92BF92CF92DF92EF92FF920F931F9363
:1033A000CF93DF938C01FC014481C42FD0E09E01B8
:1033B000DE010E9422289B01AC010E9438286B018B
:1033C0007C01E0E2F0E0EC1BFD0BA5E5B0E09B0129
:1033D000AC010E9438284B015C019F01DF010E9473
:1033E0001A289B01AC010E9443289B01AC012C0DC3
:1033F0003D1D4E1D5F1DC501B4010E94EF27C22F68
:10340000D22F2A3228F4F3E02F9F900111240DC00F
:1034100025E530E02C1B3109C901880F991F280FC1
:10342000391F37FF02C02F5F3F4F35952795C22FB9
:10343000C095F12C85E5E82EED1A80911101F81662
:10344000C8F4F1FC02C08E2D01C08D2F90910F01A8
:103450002F2D30E0290F311DA901440F551F240FD6
:10346000351F23573D4F4C2F60918A020E947716DB
:10347000F394E3CF0E94F616F8018481811102C013
:1034800091E003C0803219F49FEF90930A0190916C
:103490000A01890FF8018483DF91CF911F910F9169
:1034A000FF90EF90DF90CF90BF90AF909F908F9064
:1034B00008950F931F93CF93DF93EC0100E010E08A
:1034C00080911101282F30E00217130724F5909105
:1034D0000F019801290F311DA901440F551F240F19
:1034E000351F23573D4F869590E04C8108171907EB
:1034F0001CF4442331F002C0411103C040918B02FF
:1035000001C040E060918A02809189020E94771692
:103510000F5F1F4FD5CF0E94F6168C8190E0019669
:10352000817099278C83DF91CF911F910F9108951E
:10353000E8E8F2E080818E7F808360817181828102
:1035400093810E949C1610925D022FEF80E792E01B
:10355000215080409040E1F700C000000C94F61626
:10356000E8E8F2E080818E7F808310925D022FEF89
:1035700080E792E0215080409040E1F700C00000D9
:103580000C94F61610925D0280915A0281110AC0C5
:1035900081E080935A028091880281708093590261
:1035A0000C94B01A089560918802669570E04BE023
:1035B00050E082E191E00E945728892B19F481E0C4
:1035C00080935D020E948D20909354028093530259
:1035D00008959091880290FF35C09170811102C0CA
:1035E000926006C0853210F0986402C0880F982B54
:1035F00090938802662351F060918802709189024D
:1036000080918A0290918B020E949C1660918802A0
:10361000669570E04BE050E082E191E00E9457280F
:10362000892B19F010925D0202C00E94D31A81E02A
:103630008093560240918B0260918A0280918902A8
:103640000C949A180895682F90918802969581E0BD
:10365000890F853208F081E00C94E91A81E00C941E
:10366000231B682F9091880296958FEF890F09F49C
:1036700084E20C94E91A81E00C94311B61E00C9413
:10368000E91AE8E8F2E080818160808386950C94F5
:103690003E1B8091880280FD0C94981A0C94411B6B
:1036A00060E00C94E91A80915B0281112EC00E94A7
:1036B000CF0D811104C00E94770E0E94AE160E94A9
:1036C0009816609388027093890280938A0290937F
:1036D0008B026E7F61F40E94AE160E949816609372
:1036E00088027093890280938A0290938B020E94D1
:1036F000851610925D028091880280FF03C0869536
:103700000E94501B81E080935B020895E8E8F2E09C
:1037100080818160808386950C94501B10925A02A0
:103720008091590281110E94861B0C94D31A0F9329
:103730001F93CF93DF9380915D02882309F485C0A6
:1037400080915C02E0918802E695E81BE0935502C7
:10375000823049F4F0E0EA54FE4FE491CE2FD0E0FD
:103760000FE417E149C0863049F4F0E0ED54FE4F14
:10377000E491CE2FD0E003E617E13EC0893051F44A
:10378000E695F0E0E055FE4FE491CE2FD0E00DE954
:1037900018E132C08F3051F4E695F0E0E355FE4F6A
:1037A000E491CE2FD0E008ED18E126C0853149F430
:1037B000F0E0E655FE4FE491CE2FD0E004E519E1AC
:1037C0001BC0883181F0833239F4E8EAF1E0C59119
:1037D000D49103E717E110C0843251F4C4EFD1E073
:1037E00009E51AE109C0C8E2D0E006EC19E104C01D
:1037F000C0EDD7E003E716E180915602882361F01F
:10380000109256020E948D2090935402809353028E
:1038100010925802109257020E948D20E09153029C
:10382000F09154028E1B9F0B8F3F9F4770F4EC0F5B
:10383000FD1FF0935402E093530283E592E0F801F8
:10384000DF91CF911F910F910994DF91CF911F913B
:103850000F910895882311F0FA0101C0FB0109942A
:10386000CF93DF93C82FD62F0E94BD168C1740F040
:103870000E94BD168D1720F4DF91CF910C942E1B62
:103880008C2FDF91CF910C943E1B1F93CF93DF932E
:10389000FB011281112309F4BCC0EC010E940A0D46
:1038A0008272CD3CFCE5DF0709F497C008F043C005
:1038B000C73CECE5DE0709F47CC0D8F4C43C9CE5C9
:1038C000D90709F46AC038F4C33CDC4509F0A4C048
:1038D0000E94491BA0C0C53C9CE5D90709F462C001
:1038E000C63CDC4509F098C04BE558E16EE478E150
:1038F0005DC0CA3CFCE5DF0709F465C070F4C83C54
:10390000ECE5DE0709F45AC0C93CDC4509F084C087
:103910004AE658E169E778E149C0CB3C9CE5D90724
:1039200009F456C0CC3CDC4509F076C040EF56E1C6
:1039300069ED76E13BC0C23DFCE5DF0709F45AC002
:1039400098F4CF3C9CE5D90709F44EC008F44AC06E
:10395000C03DFCE5DF0709F44AC0C13DDC4509F084
:103960005BC06EE089E04EC0C53D9CE5D90709F417
:1039700047C050F4C33DFCE5DF07F9F1C43DDC4529
:1039800009F04AC088E142C0C63D9CE5D907E9F18B
:10399000CE35DD4509F43FC03FC04BE35BE16EE24D
:1039A0007BE104C04EE25BE16BE37BE10E942A1CF9
:1039B00032C04EE458E16BE578E1F8CF49E758E1D1
:1039C0006AE678E1F3CF47E958E168E878E1EECFBD
:1039D00048E858E167E978E1E9CF49ED56E160EF61
:1039E00076E1E4CF81E012C065E082E00BC068E0E0
:1039F00086E008C064E18FE005C067E185E102C0B0
:103A000062E289E10E94301C06C083E20E943E1BF4
:103A100002C011E001C010E0812FDF91CF911F9112
:103A200008953C9A28B12F7E38B130614FB7F89491
:103A3000FC01CB01880F991F680F791F6E0F7F1F44
:103A4000E617F70789F0819198E038B9000000C0C7
:103A500087FF28B9880F000000C000C000C028B947
:103A600000C09A9591F7ECCF4FBF8FE594E0019796
:103A7000F1F700C0000008950F931F93CF93DF93D9
:103A8000C42FD22FFC0182818823C9F040936002A9
:103A90000E948D2090935F0280935E0280E28C0FE3
:103AA000883008F057C0C77081E001C0880FCA9500
:103AB000EAF7DF91CF911F910F910C9499048091B7
:103AC0006002481330C080915E0290915F020E94B4
:103AD000A520883C910538F510E21D0FCD17B9F0EF
:103AE00080E28C0F883040F4C77081E001C0880FFD
:103AF000CA95EAF70E94A004183028F581E09D2FAE
:103B0000977001C0880F9A95EAF70E949904802F58
:103B10000E9490041830F0F4D77081E001C0880F43
:103B2000DA95EAF70AC080E28C0F883098F4C77003
:103B300081E001C0880FCA95EAF7DF91CF911F910C
:103B40000F910C94A004802FDF91CF911F910F91C2
:103B50000C949004DF91CF911F910F9108950F93D2
:103B60009C01CB01243F4CE5340731F188F4293D19
:103B7000FCE53F07D9F02A3D4CE5340779F1283DB3
:103B80003C45A9F506E221EE41EE68ED7CE52BC04F
:103B9000263FFCE53F07E1F0A8F0273F3C4539F51B
:103BA00007E225EE46EE67EF7CE51DC007E225EE55
:103BB00045EE69ED7CE517C006E221EE40EE64EFCC
:103BC0007CE511C007E225EE44EE65EF7CE50BC015
:103BD00006E221EE42EE66EF7CE505C008E221E058
:103BE00045EE6AED7CE50E943C1D80E008C0FC01CA
:103BF0008281882319F01092600201C081E00F9148
:103C00000895CF93DF93EC01FB018281882309F4AF
:103C10001FC1C230FCE5DF0708F41BC1C6319CE5BB
:103C2000D90738F09E012B5F3C452930310508F05B
:103C300010C10E94E20D9093770280937602C0310A
:103C4000ECE5DE0709F4C3C008F041C0C8308CE5DC
:103C5000D80709F49AC0F0F4C430ECE5DE0709F4A3
:103C600087C068F4C2308CE5D80709F477C0C33048
:103C7000DC4509F0E3C080917602826076C0C630F0
:103C8000ECE5DE0709F46EC008F07BC08091760297
:103C900088606BC0CC308CE5D80709F485C068F427
:103CA000CA30ECE5DE0709F474C008F079C00E9460
:103CB000260780917602806858C0CE308CE5D80700
:103CC00009F476C008F07FC0809176028BC0CC3FAB
:103CD000ECE5DE0709F44FC018F5C3318CE5D807D1
:103CE00009F47DC078F4C131ECE5DE0709F473C056
:103CF000C231DC4509F0A2C00E94260780917602FD
:103D00008F7733C0C5318CE5D80709F472C008F449
:103D100086C0CB3FDC4509F091C0809177023EC060
:103D2000C115FDE5DF0709F45FC058F4CE3F9CE5FF
:103D3000D90709F444C008F43FC08091770282603B
:103D40002DC0C230FDE5DF0709F475C008F45DC081
:103D5000C330DD4509F072C080E06EC0809176020C
:103D6000816003C08091760280618093760266C094
:103D70008091760211C080917702826080937702F1
:103D80005DC0809176028062F0CF8091760280647F
:103D9000ECCF8091760288608460E7CF8160EECFBF
:103DA000809176028E7FE1CF809176028D7FDDCF8C
:103DB00080917602877FD9CF8091770218C0809159
:103DC00077028D7FDBCF809176028F7ECECF809180
:103DD00076028F7DCACF809176028F7BC6CF80918D
:103DE0007602877F8B7FC1CF809177028D7F8E7F18
:103DF000C5CF8091760282FB222720F991E092279D
:103E000090FB82F990FB83F9B0CF80917702982FD5
:103E1000909591708E7F892B90FB81F9AFCF0E9496
:103E200026078091760287FB222720F991E09227CE
:103E300090FB87F99ACF81E00E94790E80917602FB
:103E4000909177020E94F30D0E94260780E001C046
:103E500081E0DF91CF910895CF93DF9386319C4528
:103E600041F5EB010E940A0D982F8A8120910001F3
:103E700030910101882379F09A7A81E009F480E099
:103E800080936102911102C069E201C065E3C9013A
:103E90000E94F51F0AC080916102811102C069E28F
:103EA00001C065E3C9010E94F71F0E945C0D80E01C
:103EB00001C081E0DF91CF910895909367028093D4
:103EC00066020895E0916602F0916702309721F052
:103ED0000190F081E02D099480E00895E091660260
:103EE000F0916702309721F00280F381E02D099470
:103EF0000895E0916602F0916702309739F022E070
:103F0000DC012C930480F581E02D09940895209123
:103F10006402309165022817390771F090936502A9
:103F200080936402E0916602F0916702309721F07D
:103F30000680F781E02D0994089520916202309166
:103F400063022817390771F090936302809362022D
:103F5000E0916602F0916702309721F00084F185CC
:103F6000E02D09940895FC01329697E080E091508D
:103F700029F021912223D9F38F5FF9CF0895662389
:103F800049F0FC01329608962191621729F0E81752
:103F9000F907D1F780E0089581E008959C01FC01C4
:103FA00032969FEF80E04191461789F09F3F19F4C8
:103FB000411101C0982F8F5F8630A9F79F3F39F0DC
:103FC000F901E90FF11D97FDFA95628308950895AF
:103FD0009C012A5F3F4FFC014281461301C01282BF
:103FE000019682179307B9F708950C94CE1F0C948D
:103FF000E81F029626E0FC0111922A95E9F7089540
:10400000089508950C9401200C940120CF930E94F0
:1040100004200E94BB120E940220C0E08C2F0E944C
:10402000CF11892B29F4CF5FC430C1F780E001C0E4
:1040300081E0CF9108950C9401200C941B20809175
:104040001303843059F10E941D2080E00E949603E2
:104050000E94C21A1092680220E488E190E00FB634
:10406000F894A895809360000FBE2093600083B7FA
:10407000817F846083BF83B7816083BF7894889594
:1040800083B78E7F83BF0FB6F894A89580916000A8
:10409000886180936000109260000FBE08950C94B8
:1040A00001200E9426070E94621F0E9496030E9420
:1040B0008E1B0C944F201F920F920FB60F9211245B
:1040C0008F939F93AF93BF9380916802811113C028
:1040D00080910B0390910C03A0910D03B0910E03FE
:1040E0004196A11DB11D80930B0390930C03A093E7
:1040F0000D03B0930E03BF91AF919F918F910F90DD
:104100000FBE0F901F90189582E084BD93E095BD7F
:104110009AEF97BD80936E0008952FB7F894809121
:104120000B0390910C03A0910D03B0910E032FBFD0
:1041300008952FB7F89460910B0370910C03809150
:104140000D0390910E032FBF08959C014FB7F89473
:1041500080910B0390910C03A0910D03B0910E037D
:104160004FBF821B930B089578941F920F920FB646
:104170000F9211248F939F93AF93BF9380910B0362
:1041800090910C03A0910D03B0910E030196A11D17
:10419000B11D80930B0390930C03A0930D03B09378
:1041A0000E03BF91AF919F918F910F900FBE0F9013
:1041B0001F90189581E08093E00080E28093D80002
:1041C0001092C9008FE19EE40197F1F700C0000052
:1041D00087E090EBDC0180931C0390931D03A09378
:1041E0001E03B0931F039CE088E10FB6F894A895D6
:1041F000809360000FBE90936000FFCF9093C10149
:104200008093C001089580917402089590911303E2
:10421000943031F58093690270936B0260936A0267
:1042200082E08093E9008FEF9091E800815095FD46
:1042300006C095ED9A95F1F700008111F5CF8091B8
:10424000E80085FF0DC040E050E063E070E089E6E3
:1042500092E00E9414238091E8008E778093E8001A
:104260000895BC0184E00C940621BC0183E00C9409
:10427000062122E02093E9002FEF3091E800215041
:1042800035FD06C035ED3A95F1F700002111F5CF67
:104290002091E80025FF0BC040E050E066E070E0B0
:1042A0000E9414238091E8008E778093E80008959F
:1042B000CF93DF9321E02093E9002FEF3091E800C6
:1042C000215035FD06C035ED3A95F1F7000021117A
:1042D000F5CF2091E80025FF14C0EC0140E050E04C
:1042E00068E070E00E9414238091E8008E7780934C
:1042F000E80088E0FE01ACE6B2E001900D928A95FC
:10430000E1F7DF91CF91089580911203811109C0E7
:104310000E94A1240E9403258091E2008460809382
:10432000E2000895109212030895089508950895E3
:1043300042E061EC81E00E941A2442E261EC82E0FA
:104340000C941A2480911503833009F45EC030F474
:10435000813071F0823009F497C008958A3009F4F1
:1043600083C08B3009F469C0893009F0A5C020C032
:1043700080911403813A09F09FC08091E800877F03
:104380008093E8008091180390911903892B21F400
:1043900068E08CE692E003C060E080E090E070E0CE
:1043A0000E945F238091E8008B778093E800089556
:1043B00080911403813209F07FC08091180390919D
:1043C0001903029708F078C08091E800877F8093F6
:1043D000E8008091E80082FD05C0809113038111FF
:1043E000F8CF6AC08091F2009091F300029729F40F
:1043F0008091F1008B7F813021F48091F1008093D6
:1044000074028091E8008B7753C080911403813A45
:1044100009F052C08091180390911903892B09F07B
:104420004BC08091E800877F8093E8008091E8008E
:1044300080FFFCCF8091270136C080911403813228
:10444000D9F58091180390911903892BA9F58091D2
:10445000E800877F8093E8000E944F248091160334
:10446000809327010C94260780911403813221F553
:104470008091E800877F8093E8000E944F2480911C
:10448000170380937502089580911403813AA1F473
:104490008091E800877F8093E8008091E80080FFAA
:1044A000FCCF809175028093F1008091E8008E77B7
:1044B0008093E8000C944F24089584B7877F84BFCD
:1044C0000FB6F894A8958091600088618093600091
:1044D000109260000FBE90E080E80FB6F8948093D1
:1044E0006100909361000FBE0C94A90E0E94A1245C
:1044F0000E940325E2EEF0E080818460808378945E
:104500000E949E270E94B70E8DE191E00C945D1FE2
:10451000809113038530A9F480911303853079F4D9
:104520000E941F20809111038823B1F30E9406206E
:10453000882391F30E94FE220E942607EDCF0E945D
:1045400051200C94BF0E0C94A522292F3327233021
:104550003105C9F060F42130310581F02230310598
:1045600009F044C08BE390E027EF33E043C02132F1
:104570003105E1F02232310549F138C082E190E0A5
:1045800022E334E037C099278130910549F028F0C3
:10459000029761F5EFEBF3E005C0E3EFF3E002C053
:1045A000EDEDF3E0849190E09F0124C06115710569
:1045B00041F061307105D1F489E090E022E234E00D
:1045C00019C089E090E029E034E014C0611571055C
:1045D00041F06130710551F48BE790E024E434E060
:1045E00009C080E490E02FEB34E004C080E090E06C
:1045F00020E030E0FA0131832083089584E189BD11
:1046000086E189BD09B400FEFDCF8091D8008F7D81
:104610008093D8008091E00082608093E0008091D8
:10462000E00081FDFCCF0895CF92DF92EF92FF92E0
:104630000F931F93CF93DF93EC018B017A010E94BC
:104640006E24811133C0E114F10439F0F701808147
:104650009181081B190BC80FD91FC12CD12C011532
:10466000110519F18091E80085FD16C08091E800E0
:104670008E778093E800E114F10449F0F70180811E
:104680009181C80ED91ED182C08285E00FC00E94E0
:104690006E24882321F30AC089918093F100015090
:1046A0001109FFEFCF1ADF0ADACF80E0DF91CF9157
:1046B0001F910F91FF90EF90DF90CF900895209180
:1046C0001A0330911B032617370748F0611571054F
:1046D00039F42091E8002E772093E80001C0B90159
:1046E000FC0120E06115710569F1809113038823B5
:1046F000E1F18530E1F18091E80083FD3AC08091DD
:10470000E80082FD2CC08091E80080FFEBCF809113
:10471000F2009091F3006115710551F08830910518
:1047200038F421912093F100615071090196F3CF83
:1047300021E0089709F020E08091E8008E778093CF
:10474000E800D0CF2111D1CF0AC080911303882374
:1047500061F0853061F08091E80083FD0AC08091AE
:10476000E80082FFF2CF80E0089582E0089583E0C0
:10477000089581E0089520911A0330911B032617B4
:10478000370748F06115710539F42091E8002E775C
:104790002093E80001C0B901FC0120E0611571051A
:1047A00081F180911303882309F43EC0853009F418
:1047B0003DC08091E80083FD3BC08091E80082FD10
:1047C0002DC08091E80080FFE9CF8091F2009091A8
:1047D000F3006115710559F08830910540F424917A
:1047E0002093F1003196615071090196F2CF21E0DA
:1047F000089709F020E08091E8008E778093E80028
:10480000CDCF2111CECF0AC080911303882361F050
:10481000853061F08091E80083FD0AC08091E80056
:1048200082FFF2CF80E0089582E0089583E008954A
:1048300081E00895982F973068F59093E9009817D4
:1048400039F07091EC002091ED005091F00003C020
:10485000242F762F50E021FD02C09F5FECCF3091D6
:10486000EB003E7F3093EB003091ED003D7F3093C5
:10487000ED003091EB0031603093EB007093EC0071
:104880002093ED005093F0002091EE0027FDE5CF3E
:1048900080E008958F708093E90081E00895809111
:1048A000140387FF11C08091E80082FD05C080914C
:1048B00013038111F8CF11C08091E8008B770BC0F2
:1048C00080911303882349F08091E80080FFF8CF9E
:1048D0008091E8008E778093E80008952091E400AD
:1048E0003091E50095E64091EC00842F817040FF07
:1048F00023C08091E80080FD1DC0809113038823B0
:1049000099F0853099F08091EB0085FD11C04091C0
:10491000E4005091E5002417350729F3915011F078
:104920009A01E1CF84E0089582E0089583E008953C
:1049300081E0089580E008954091E80042FFDDCFD6
:1049400008950E9412250E941A25E0EEF0E0808171
:1049500081608083E8EDF0E080818F77808319BCEF
:10496000A7EDB0E08C918E7F8C9380818F7E8083C9
:104970001092120308950F931F93CF93DF930E9419
:1049800012250E941A25C8EDD0E088818F77888390
:1049900088818068888388818F7D8883E7EDF0E057
:1049A00080818068808319BC1092130310920F03DA
:1049B000109211031092100300EE10E0F8018081B4
:1049C0008B7F808388818160888342E060E080E023
:1049D0000E941A24E1EEF0E080818E7F8083E2EE77
:1049E000F0E0808181608083808188608083F8012D
:1049F00080818E7F8083888180618883DF91CF91E1
:104A00001F910F910895E8EDF0E080818F7E808303
:104A1000E7EDF0E080818160808381E08093120384
:104A20000C94BB24E8EDF0E080818C7F80831092B1
:104A3000E20008951092DA001092E10008951F92AA
:104A40000F920FB60F9211240BB60F922F933F9334
:104A50004F935F936F937F938F939F93AF93BF9386
:104A6000EF93FF938091E10082FF0BC08091E20001
:104A700082FF07C08091E1008B7F8093E1000E945C
:104A80009D278091DA0080FF1FC08091D80080FFB1
:104A90001BC08091DA008E7F8093DA008091D9006C
:104AA00080FF0DC084E189BD86E189BD09B400FEA7
:104AB000FDCF81E0809313030E94842105C019BCBF
:104AC000109213030E9492218091E10080FF19C08F
:104AD0008091E20080FF15C08091E2008E7F80937C
:104AE000E2008091E20080618093E2008091D80032
:104AF00080628093D80019BC85E0809313030E94E4
:104B000096218091E10084FF30C08091E20084FF13
:104B10002CC084E189BD86E189BD09B400FEFDCFCA
:104B20008091D8008F7D8093D8008091E1008F7EA6
:104B30008093E1008091E2008F7E8093E20080917B
:104B4000E20081608093E20080910F03882311F0DE
:104B500084E007C08091E30087FD02C081E001C0CE
:104B600083E0809313030E9497218091E10083FFEB
:104B700029C08091E20083FF25C08091E100877FFA
:104B80008093E10082E08093130310920F038091E1
:104B9000E1008E7F8093E1008091E2008E7F809320
:104BA000E2008091E20080618093E20042E060E0F8
:104BB00080E00E941A248091F00088608093F000C9
:104BC0000E949521FF91EF91BF91AF919F918F919D
:104BD0007F916F915F914F913F912F910F900BBEFD
:104BE0000F900FBE0F901F9018951F920F920FB647
:104BF0000F9211240BB60F922F933F934F935F9315
:104C00006F937F938F939F93AF93BF93CF93DF93D4
:104C1000EF93FF93C091E900CF708091EC00D82F03
:104C2000D17080FDD0E81092E9008091F000877F7C
:104C30008093F00078940E943D261092E9008091C4
:104C4000F00088608093F000CD2BCF70C093E90016
:104C5000FF91EF91DF91CF91BF91AF919F918F9194
:104C60007F916F915F914F913F912F910F900BBE6C
:104C70000F900FBE0F901F9018951F93CF93DF9347
:104C8000CDB7DEB7AA970FB6F894DEBF0FBECDBF83
:104C9000E4E1F3E08091F100819323E0EC31F2074D
:104CA000C9F70E94A2218091E80083FF2EC1809164
:104CB000140390911503492F50E04A30510508F034
:104CC00024C1FA01E659FF4F0C941128803821F0D5
:104CD000823809F01AC108C0809110039091110325
:104CE000992389F082600FC0809118038F708730FC
:104CF00008F00BC18093E9008091EB0085FB8827C9
:104D000080F91092E9009091E800977F9093E80075
:104D10008093F1001092F100D1C0282F2D7F09F06F
:104D2000F4C0882319F0823061F0EFC0809116033F
:104D3000813009F0EAC0933009F080E080931103DC
:104D40002EC08091160381112AC0809118038F70A4
:104D50002FEF280F263008F0D8C08093E90020916B
:104D6000EB0020FF1CC0933021F48091EB008062A7
:104D700014C09091EB0090619093EB0021E030E043
:104D8000A90102C0440F551F8A95E2F74093EA003B
:104D90001092EA008091EB0088608093EB00109203
:104DA000E9008091E800877F8093E8000E944F240B
:104DB000ACC08111AAC0109116031F778091E30047
:104DC0008078812B8093E3008091E800877F809337
:104DD000E8000E944F248091E80080FFFCCF809182
:104DE000E30080688093E300111102C082E001C0FB
:104DF00083E08093130389C08058823008F085C017
:104E000080911603909117038C3D53E0950779F537
:104E100083E08A838AE289834FB7F894DE01139690
:104E200020E03EE051E2E32FF0E050935700E491A0
:104E300020FF03C0E295EF703F5FEF708E2F90E090
:104E4000EA3010F0C79601C0C0968D939D932F5FF6
:104E5000243149F74FBF8091E800877F8093E800B5
:104E60006AE270E0CE0101960E945F2316C0609155
:104E7000180370911903AE014F5F5F4F0E94A32288
:104E8000BC01892B09F441C09091E800977F909371
:104E9000E80089819A810E94BB238091E8008B778A
:104EA0008093E80032C0803881F58091E800877FE8
:104EB0008093E80080910F038093F1008091E800D7
:104EC0008E7772CF811121C08091160390911703C4
:104ED00099270297D4F48091E800877F8093E800B7
:104EE0008091160380930F030E944F2480910F033B
:104EF000811106C08091E30087FD02C081E001C0FE
:104F000084E0809313030E9498218091E80083FF3E
:104F10000AC08091E800877F8093E8008091EB00D1
:104F200080628093EB00AA960FB6F894DEBF0FBEA6
:104F3000CDBFDF91CF911F9108950895CF938091B8
:104F400013038823A1F0C091E900CF709091EC0089
:104F5000892F817090FD80E8C82B1092E900809124
:104F6000E80083FD0E943D26CF70C093E900CF91F9
:104F7000089587FB082E062687FD819567FD6195BC
:104F80000E944B280EF4919507FC81950895AA1B69
:104F9000BB1B51E107C0AA1FBB1FA617B70710F024
:104FA000A61BB70B881F991F5A95A9F78095909556
:104FB000BC01CD01089597FB072E16F4009407D08D
:104FC00077FD09D00E94C72707FC05D03EF49095D5
:104FD00081959F4F0895709561957F4F0895A1E247
:104FE0001A2EAA1BBB1BFD010DC0AA1FBB1FEE1F63
:104FF000FF1FA217B307E407F50720F0A21BB30BAE
:10500000E40BF50B661F771F881F991F1A9469F729
:1050100060957095809590959B01AC01BD01CF0185
:105020000895EE0FFF1F0024001C0BBE0790F691A1
:10503000E02D09940E942228332312F48A1B9B0B33
:105040000C943328A29FB001B39FC001A39F700DA1
:10505000811D1124911DB29F700D811D1124911D80
:1050600008950E942228B7FF0895821B930B08958C
:105070000E942228A59F900DB49F900DA49F800DA3
:10508000911D11240895B7FF0C9438280E943828E8
:10509000821B930B0895991B79E004C0991F961702
:1050A00008F0961B881F7A95C9F780950895FC0132
:1050B0004150504030F001900616D1F73197CF01A2
:1050C0000895882799270895FB01DC0104C08D917C
:1050D0000190801921F441505040C8F7881B990B6A
:1050E0000895F999FECF92BD81BDF89A992780B5B0
:1050F0000895A6E1B0E044E050E00C94AB28A8E1AC
:10510000B0E042E050E00C94AB28262FF999FECF96
:1051100092BD81BDF89A019700B4021639F01FBA0A
:1051200020BD0FB6F894FA9AF99A0FBE0895039627
:10513000272F0E9486280E948528252F0E948628D6
:10514000242F0C9486280196272F0E9486280C94E1
:105150008528DC01CB01FC01F999FECF06C0F2BD28
:10516000E1BDF89A319600B40D9241505040B8F725
:065170000895F894FFCF42
:1051760023022808641E140A321E010102002A00B6
:105186002A2A01191A1B1C1D1E1F20212203215821
:105196002139213521312101E200E900EA00B5007B
:1051A600B600B700CD008301CC008A0192019401BC
:1051B6002102230224022502260227022A02B30024
:1051C600B4006F007000818283E200E900EA00B556
:1051D60000B600B700CD008301CC008A019201948D
:1051E600012102230224022502260227022A02B3F3
:1051F60000B4006F0070008182833635349260619E
:10520600F5F4F3F2F1F0949596970001020202028A
:105216000606060909090909090F0F0F0F0F0F15D1
:1052260015151819191919191919191919232400F5
:00000001FF
