:100000000C9469030C94B2030C94B2030C94B203E5
:100010000C94B2030C94B2030C94B2030C94B2038C
:100020000C94B2030C94B2030C94DF140C941614C9
:100030000C944E1D0C94B2030C94B2030C94B203B6
:100040000C94B2030C94B2030C94B2030C94B2035C
:100050000C94B2030C94B8160C94B2030C94B20333
:100060000C94B2030C94B2030C94B2030C94B2033C
:100070000C94B2030C94B2030C94B2030C94B2032C
:100080000C94B2030C94B2030C94B2030C94B2031C
:100090000C94B2030C94B203E708E7082209220982
:1000A0007C099A09A40AA40AA509190A2A0A2A0A93
:1000B000C90ECC0EFC0E090F100F300F330F750F49
:1000C000960F38103810A10FA30FA80FCD0FEF0F08
:1000D000F20FF50F18102D125412F8135412F813D2
:1000E000A012C312F813B513C513FD25FD25102664
:1000F00010260626102610261026FD25FD250B2687
:10010000102610260B260000000000000000000052
:1001100000000000000000000000000000000000DF
:10012000000000000000000000007E0F00D4FFFF70
:10013000FFC70000007800000000000000002A2B2C
:100140002800000000000000000000000000000087
:100150000029000000002C1E3420212224342627F0
:10016000252E362D3738271E1F2021222324252611
:100170003333362E37381F0405060708090A0B0CDF
:100180000D0E0F101112131415161718191A1B1C27
:100190001D2F3130232D350405060708090A0B0CE5
:1001A0000D0E0F101112131415161718191A1B1C07
:1001B0001D2F3130354C1E0F0500047F3F1F643268
:1001C00014643214783C1E1E140A0505010902A1AC
:1001D0000185020901A10005091901290815002559
:1001E0000195087501810205010930093115812544
:1001F0007F95027508810609381581257F9501755F
:10020000088106050C0A38021581257F95017508BD
:100210008106C0C005010980A101850319012AB723
:1002200000150126B700950175108100C0050C0965
:1002300001A101850419012AA002150126A0029539
:100240000175108100C00660FF0961A101096215F6
:100250000026FF009520750881020963150026FF1E
:1002600000952075089102C005010906A101050746
:1002700019E029E71500250195087501810295010E
:10028000750881010507190029FF150026FF009553
:100290000675088100050819012905950575019164
:1002A00002950175039101C009025B00030100A0E2
:1002B000FA090400000103010100092111010001F4
:1002C0002240000705810308000A09040100020317
:1002D000000000092111010001222200070582030C
:1002E00020000107050303200001090402000103A7
:1002F000000000092111010001227B000705840391
:1003000020000A12010002000000082CB64661011C
:1003100000010200011C03730070006C006900748E
:100320000063007500730074006F006D00340034CA
:100330000000001403530061006D00750078003662
:100340000031003400360000000403090422232594
:100350002628292A2C2D2F3032333536383A3B3D8A
:100360003E4042434547494A4C4E505153555759D8
:100370005A5C5E6062646668696B6D6F71737577F5
:10038000797B7D7F81838587898A8C8E90929496F4
:10039000989A9C9E9FA1A3A5A7A8AAACAEAFB1B303
:1003A000B4B6B8B9BBBCBEBFC1C2C3C5C6C7C9CA53
:1003B000CBCCCDCED0D1D2D2D3D4D5D6D7D7D8D915
:1003C000D9DADADBDBDBDCDCDCDCDCDDDDDDDDDC73
:1003D000DCDCDCDCDBDBDBDADAD9D9D8D7D7D6D585
:1003E000D4D3D2D2D1D0CECDCCCBCAC9C7C6C5C347
:1003F000C2C1BFBEBCBBB9B8B6B4B3B1AFAEACAA94
:10040000A8A7A5A3A19F9E9C9A98969492908E8C43
:100410008A89878583817F7D7B79777573716F6D1D
:100420006B6968666462605E5C5A595755535150F7
:100430004E4C4A4947454342403E3D3B3A383635AB
:100440003332302F2D2C2A29282625232229001447
:10045000001A000800150017001C0018000C0012FC
:100460000013002A002B0004001600070009000AF0
:10047000000B000D000E000F0033002800E1001DEE
:10048000001B00060019000500110010003600379F
:10049000003800E30000000000E000E20000412C12
:1004A000002C000041010001000000000029001E96
:1004B000001F002000210022002300240025002628
:1004C0000027002A002B00C35CC25C010001000170
:1004D00000005C0100010052004F002800E1000113
:1004E0000001000100010001000100010050005165
:1004F0000001000100000000000100010001002CCB
:10050000002C0001000100010000000000010001BA
:1005100000010001000100010001000100010001D3
:1005200000010001000100010001000100010001C3
:1005300000010001000100010001000100010001B3
:1005400000010001000100010001000100010001A3
:100550000001000100000000000100010001000195
:100560000001000100010001000000000001000185
:100570000001000100010001000100010001000173
:100580000001000100010001000100010001000163
:100590000001000100010001000100010001000153
:1005A0000001000100010001000100010001000143
:1005B0000001000100000000000100010001000135
:1005C0000001000100010001000000000000010125
:1005D0000101010101010102020202020202020202
:1005E00003030303030303030404040404040405D2
:1005F0000505050506060606060707070707080896
:100600000808090909090A0A0A0B0B0B0C0C0C0D46
:100610000D0D0E0E0E0F0F0F1010111111121213DF
:10062000131414151516161717181819191A1A1B5A
:100630001B1C1D1D1E1E1F202021222223242425B9
:100640002626272829292A2B2C2D2D2E2F303132F2
:1006500032333435363738393A3B3C3D3E3F404102
:1006600042434445464748494A4C4D4E4F505153EA
:1006700054555658595A5B5D5E5F616264656668A1
:10068000696B6C6D6F7072737577787A7B7D7E8025
:1006900082838587888A8C8E8F91939596989A9C71
:1006A0009EA0A2A3A5A7A9ABADAFB1B3B5B7BABC85
:1006B000BEC0C2C4C6C9CBCDCFD1D4D6D8DBDDDF56
:1006C000E2E4E7E9EBEEF0F3F5F8FAFDFFFFAA7FCD
:1006D000554011241FBECFEFD0E2DEBFCDBF04B620
:1006E00003FE27C08091AB039091AC03A091AD03B2
:1006F000B091AE038730904BA740B04BD1F410922D
:10070000AB031092AC031092AD031092AE0314BE73
:1007100084B7877F84BF0FB6F894A8958091600056
:10072000886180936000109260000FBEE0E0F0EFFF
:10073000099511E0A0E0B1E0E4EEF0E500E00BBFC8
:1007400002C007900D92A839B107D9F723E0A8E9B4
:10075000B1E001C01D92AB3AB207E1F70E94F90A7D
:100760000C9470280C9400001F93CF93DF93CDB7A7
:10077000DEB767970FB6F894DEBF0FBECDBF4B8BC9
:100780005C8B6D8B7E8B8F8B611110921B0286E0D0
:100790009E01235F3F4FD901E82F1D92EA95E9F7AB
:1007A00095E0FE017396D90101900D929A95E1F7BB
:1007B0009C894E895F897B897D879E876F87598B4E
:1007C000488BF901DE01179601900D928A95E1F7A9
:1007D000CE0107960E94481B81113EC086E0FE01B3
:1007E0003796DE01119601900D928A95E1F7FF810F
:1007F000E8856A857B856115710531F0EF3F31F43D
:1008000081E0FF3F19F403C081E001C080E080FD7A
:1008100023C02091E70130E0C90101968770992734
:100820004091180250E08417950779F1F983EA8323
:100830007D836C8396E0929FD001939FB00D11242D
:10084000A851BE4FFE01319601900D929A95E1F7A5
:100850008093E7010E94C51A16E0809118029091DA
:10086000E7018917F9F0189FC001112488519E4FA4
:100870000E94481B8823B1F08091180290E00196F5
:100880008770992780931802E8CF0E94142610924F
:10089000E70110921802E1EEF1E086E0DF011D921F
:1008A0008A95E9F767960FB6F894DEBF0FBECDBF05
:1008B000DF91CF911F9108953F924F925F926F9277
:1008C0007F928F929F92AF92BF92CF92DF92EF92E0
:1008D000FF920F931F93CF93DF93CDB7DEB7299786
:1008E0000FB6F894DEBF0FBECDBFFC0180819181B1
:1008F00023813481232B31F09F3F31F491E08F3FEE
:1009000019F403C091E001C090E090FD5AC67F0148
:1009100085E0DE01119601900D928A95E1F7F701CD
:10092000228189819A81222349F00E944325182F30
:10093000682F89819A810E949E2503C00E9472259A
:10094000182F69817A81812F0E94A61E8C01F701E0
:100950008281882309F4F2C0980122513F45203159
:10096000310508F019C18FEF9FE00E944A278111DD
:10097000EFC0025137EA832E99249394002379F033
:100980008114F0E19F0609F4E3C0C4010E944A27E4
:10099000811101C001502FEF821A920AEFCF1E82FF
:1009A0001F8218861986442443942AE0322E84013B
:1009B0000F5F1F4FC4010E944A278E831F82882326
:1009C00009F4C6C09FEF980F933060F48F834E8276
:1009D00032E0830E911CC8010E944A27888781114A
:1009E00002C0B6C048018E010A5F1F4FF801208186
:1009F0002223E9F2213009F04CC08181813049F491
:100A00006801F2E0CF0ED11CF80182810E94D2264B
:100A10000AC0823051F46801F2E0CF0ED11CF80117
:100A200082810E947326860186C0833049F4680162
:100A3000F2E0CF0ED11CF80182810E943426F3CF60
:100A4000843019F00F5F1F4F76C0F80122810E5FCE
:100A50001F4F80E090E030E0205331092A3031050B
:100A600068F4389EA001399E500D1124C901840FED
:100A7000951F0F5F1F4FF8012081EDCF009709F4FC
:100A80005AC0EFE9FFE03197F1F700C0000001978D
:100A9000F5CFE22FF0E0EA5CFE4F5490822F86956E
:100AA0008695869590E0FC01EA5DFE4F6490277084
:100AB000712C022E02C0759467940A94E2F7F1E05B
:100AC0006F227724FC01EA5EFE4FA490B12C022E27
:100AD00002C0B594A7940A94E2F731E0A322BB24A4
:100AE000FC01EA5FFE4FC490D12C02C0D594C7949C
:100AF0002A95E2F781E0C822DD246114710419F01F
:100B000081EE0E947326A114B10419F086EE0E94B2
:100B10007326852D0E94D226AB2819F086EE0E94FE
:100B20003426672819F081EE0E943426CD2819F06A
:100B30008CE20E94D2260F5F1F4F58CF00313FE555
:100B4000130709F035C581E00E94CD250E943E11B2
:100B500080911902877009F434C5F70182818823D6
:100B600009F42FC582E029960FB6F894DEBF0FBEB8
:100B7000CDBFDF91CF911F910F91FF90EF90DF904C
:100B8000CF90BF90AF909F908F907F906F905F902D
:100B90004F903F900C94A81A0031FFE51F0711F405
:100BA00081E005C001312FE5120721F482E00E94A7
:100BB000D925CCCF033FFCE51F0749F406E221EE1F
:100BC00040EE63EF7CE5C7010E94C91DC1CF043F21
:100BD0002CE5120708F049C1083D3CE5130731F444
:100BE00007E225EE45EE68ED7CE5EDCF093D9CE59D
:100BF000190731F408E221E045EE69ED7CE5E3CF29
:100C0000073DECE51E0731F406E221EE41EE67ED0B
:100C10007CE5D9CF882309F45DC1109284030230AA
:100C20009CE5190708F440C10631ECE51E0730F0D9
:100C3000C8018A5F9C45099708F036C10E94D51902
:100C400090939C0180939B010031FCE51F0709F400
:100C5000C3C008F041C008303CE5130709F49AC04E
:100C6000F0F404309CE5190709F487C068F40230F9
:100C7000FCE51F0709F477C003301C4509F0E5C007
:100C800080919B01826076C006303CE5130709F431
:100C90006EC008F07BC080919B0188606BC00C30F7
:100CA0009CE5190709F485C068F40A30FCE51F07C4
:100CB00009F474C008F079C00E94142680919B0149
:100CC000806858C00E303CE5130709F476C008F080
:100CD0007FC080919B018BC00B3F9CE5190709F4F5
:100CE0004FC018F50331FCE51F0709F47DC078F407
:100CF00001313CE5130709F473C002311C4509F0CA
:100D0000A4C00E94142680919B018F7733C00531C7
:100D10009CE5190709F472C008F486C00A3F1C4517
:100D200009F093C080919C013EC00F3F2CE5120753
:100D300009F45FC058F40D3F8CE5180709F444C06E
:100D400008F43FC080919C0182602DC00130EDE528
:100D50001E0709F475C008F45DC002301D4509F096
:100D600074C060E06EC080919B01816003C080917F
:100D70009B01806180939B0168C080919B0111C0A1
:100D800080919C01826080939C015FC080919B0157
:100D90008062F0CF80919B018064ECCF80919B01B9
:100DA00088608460E7CF8160EECF80919B018E7F69
:100DB000E1CF80919B018D7FDDCF80919B01877F6B
:100DC000D9CF80919C0118C080919C018D7FDBCF91
:100DD00080919B018F7ECECF80919B018F7DCACF6A
:100DE00080919B018F7BC6CF80919B01877F8B7FFA
:100DF000C1CF80919C018D7F8E7FC5CF80919B015B
:100E000082FB222720F991E0922790FB82F990FB48
:100E100083F9B0CF80919C01982F909591708E7F2F
:100E2000892B90FB81F9AFCF0E94142680919B0102
:100E300087FB222720F991E0922790FB87F99ACF30
:100E400061E08EE090E00E945E2760919B0110912E
:100E50009C0184E090E00E945E27612F82E290E096
:100E60000E945E270E94142673CE053FFCE51F07F3
:100E700031F406E221EE42EE65EF7CE5A4CE053FBB
:100E80002CE5120730F407E225EE44EE64EF7CE532
:100E90009ACE063F3CE5130709F0BCCE07E225EEEB
:100EA00046EE66EF7CE58FCE80911C0206319CE514
:100EB000190741F58A7A91E009F490E090939A013C
:100EC000882311F065E301C069E289ED91E00E9499
:100ED000771D15C006311C4509F030C180919A017B
:100EE000882309F46CC385E3E9EDF1E0928189136D
:100EF00001C01282319631E0EF3DF307B9F70E944D
:100F0000611A26CE82720C3C9CE5190709F4C4C014
:100F100008F045C0063CFCE51F0709F4A9C0D8F459
:100F2000033C3CE5130709F499C030F4023CECE5BE
:100F30001E0709F46EC0D1C0043CFCE51F0709F48C
:100F400092C0053C2CE5120709F0C7C048E853E2FF
:100F500061E973E2A5C0093C3CE5130709F492C0BE
:100F600078F4073CECE51E0709F487C0083CFCE573
:100F70001F0709F0B2C04CE753E260E773E290C08C
:100F80000A3C2CE5120709F482C00B3C3CE5130730
:100F900009F0A3C04CED51E26DEE71E281C0013D5C
:100FA0008CE5180709F488C0A0F40E3CECE51E0798
:100FB00009F47CC008F477C00F3C2CE5120709F453
:100FC00078C0003D3CE5130709F087C06EE089E07A
:100FD00081C0043D8CE5180709F474C068F4023D33
:100FE000ECE51E0709F46BC0033DFCE51F0709F0A3
:100FF00074C061E088E16BC0053D2CE5120709F47F
:1010000064C00D353DE5130709F067C06AE285E26B
:1010100061C080917D0380FF1BC08E7F80937D0324
:1010200060917D0370917E0380917F039091800396
:101030000E94CA21109229028FEF90E7E2E08150CE
:101040009040E040E1F700C000000E94271F80CDE3
:10105000816080937D0361E0869539C045ED53E260
:101060006EED73E21DC04EED53E265ED73E218C004
:1010700041E953E268E873E213C040E753E26CE7EA
:1010800073E20EC048E553E264E673E209C044E649
:1010900053E268E573E204C04DEE51E26CED71E29B
:1010A0000E940B1F55CD61E081E011C065E082E038
:1010B00011C068E086E00EC064E18FE00BC067E11C
:1010C00085E108C062E289E105C061E083E20E9437
:1010D0009A233ECD0E94F91E3BCD0A35FDE51F0740
:1010E00041F150F401153CE51307A9F00E3D1C45F4
:1010F00029F50E94F1192CCD0B359DE51907D9F082
:101100000C351D45D9F480919C0182FB882780F91C
:1011100091E0892711C00E941426FFEF24E33CE0F0
:10112000F15020403040E1F700C000000E949416CA
:101130000FCD81E001C080E00E948E1AF70182810C
:1011400000811181882349F0C8010E944325D82ECF
:10115000682FC8010E949E2504C0C8010E94722504
:10116000D82EB8018D2D0E94A61E0E943B18B82EC5
:10117000192F982EF7010281A580A2949FE0A92241
:1011800080911902877099F0002389F0812F807F68
:10119000803421F080E28B0D883048F082E00E949C
:1011A000A81A809119028770DD24D3948111D12C63
:1011B000C12EC2948FE0C8228C2D90E08C30910516
:1011C00008F0C2C1FC01E45BFF4F0C943728812F6B
:1011D000807F1F70882311F01295107F0023B9F0D3
:1011E000112309F49DC180E28B0D883010F091101D
:1011F00006C080911C02182B10931C0205C0809120
:101200001B02182B10931B020E94611A89C18B2D9F
:101210000E943426112309F497C180E28B0D1095AA
:10122000883010F0911006C080911C021823109392
:101230001C0205C080911B02182310931B020E9400
:10124000611A82C1812F807F1F70803211F0129548
:10125000107F8B2D992021F0F1E09F1611F130C005
:101260000023B1F0AA2081F021E0A2120DC08091EC
:101270009C0182FD69C180911D02182B181709F489
:1012800063C110931D0260C180911D02812B10C0AB
:10129000AA2021F031E0A31609F456C10E945B1A7E
:1012A00027C0002341F085E08A1508F44DC1812F45
:1012B0000E942A2649C194E09A1508F445C118C035
:1012C000002349F0AA2099F3F701858180FF28C106
:1012D0008F708583ECCFAA2059F0893309F031C192
:1012E000FFEF27EE33E0F15020403040E1F727C117
:1012F000812F0E941F2628C1812F86958695837095
:1013000019F0813061F020C1002321F08B2D912F45
:10131000937002C080E090E00E94A71D1BC10023D3
:1013200021F08B2D912F937002C080E090E00E94FD
:10133000911D10C18B2D002319F00E94CB2402C0F7
:101340000E9412240E94E82305C1812F8370A9F511
:101350000111FEC04B2D429546954770440F440F36
:101360008B2D8F7090E09C01042E01C0220F0A94F7
:10137000EAF7B4FE08C08FE090E001C0880F4A95FC
:10138000EAF7809501C080E016951695137012302B
:1013900069F088F490911E02113019F0822B892394
:1013A00002C0922B892B0E94E425D2C0822B9091FF
:1013B0001E028927F8CF822BF6CF002319F0812F48
:1013C000817001C08695882309F4C2C04B2D4295D7
:1013D00046954770440F440F8B2D8F7090E09C0111
:1013E000042E01C0220F0A94EAF7B4FE08C08FE071
:1013F00090E001C0880F4A95EAF7809501C080E02F
:10140000169516951370123059F078F49091D80112
:10141000113019F0822B892309C0922B892B06C029
:10142000822B9091D801892701C0822B0E94C92567
:101430008FC01F70002339F0812F0E94D9258B2D7A
:101440000E942A2685C08B2D0E941F26812F0E9474
:10145000CD257EC08B2D92EF991659F1991538F054
:10146000E0EF9E1659F0F1EF9F16F1F055C023EF13
:10147000921631F134EF931681F14EC0002379F0CA
:1014800084E08A1508F460C01F7181E090E001C01B
:10149000880F1A95EAF79091D80189271BC095E02B
:1014A0009A1508F451C0F0CF002329F0812F8F71D5
:1014B00026C00023D9F3812F8F710E94CD2544C00F
:1014C000002339F01F7181E001C0880F1A95EAF7F7
:1014D00001C080E00E94C92537C0002399F01F7128
:1014E000812F0E94D92580919C0182FD07C0E8E0F0
:1014F0001E9FC0011124836080931902812F0E94D6
:10150000D92522C081E00E94A81AF1E0FA15E0F482
:1015100082E00E94A81A18C0002331F0AA2031F2FC
:101520008B2D0E94732610C0AA2029F2893349F41A
:101530002FEF37EE83E0215030408040E1F700C0CC
:1015400000008B2D0E94342688EF8C0D843010F41F
:101550000E94BD1DDD20A9F18091190280FD31C0DE
:10156000F70112828595859585950E94D925C70139
:101570000E945C0480911902859585958595299630
:101580000FB6F894DEBF0FBECDBFDF91CF911F9194
:101590000F91FF90EF90DF90CF90BF90AF909F9012
:1015A0008F907F906F905F904F903F900C94CD25DF
:1015B00001319FE5190709F0FDCA82E0C5CA89E239
:1015C00093CC29960FB6F894DEBF0FBECDBFDF9146
:1015D000CF911F910F91FF90EF90DF90CF90BF9030
:1015E000AF909F908F907F906F905F904F903F90C3
:1015F0000895CF93DF93CDB7DEB7AA970FB6F894CF
:10160000DEBF0FBECDBF84B7877F84BF0FB6F8940F
:10161000A8958091600088618093600010926000BE
:101620000FBE90E080E80FB6F8948093610090932D
:1016300061000FBE85B7806885BF85B7806885BFAC
:1016400089EF96E190939901809398010E945E142E
:101650000E947D148091E20084608093E20078947F
:101660008091CE018823A1F01091E9001F70909124
:10167000EC00892F817090FD80E8182B1092E90012
:101680008091E80083FD0E9449111F701093E900CA
:1016900082E084BD93E095BD9AEF97BD80936E0084
:1016A0000E94E01E811102C00E94D11E0DE111E0D6
:1016B000A1E2EA2EA1E0FA2EF80181918F018F3F7D
:1016C00011F00E943E17E016F106B1F701E211E0B9
:1016D000FDE2EF2EF1E0FF2EF80181918F018F3FA7
:1016E00011F00E943E17E016F106B1F710929E012C
:1016F00010929D011092B3011092B2011092A001BC
:1017000010929F011092B5011092B4011092A201A3
:101710001092A1011092B7011092B6011092A4018B
:101720001092A3011092B9011092B8010E94E6191B
:10173000811102C00E94F11982E090E00E944A27C4
:101740008093A9010E94D51990939C0180939B01DD
:101750000E945517FFEF26E731E0F150204030405E
:10176000E1F700C000000E9455178091B20180FF90
:1017700008C06FEF7FEF80E090E00E947C270E941E
:10178000941683E090E00E944A270E94E42580910D
:10179000A501811133C00E94E619811104C00E9485
:1017A000F1190E94FE2188E090E00E945227609388
:1017B0007D0370937E0380937F03909380036E7FFD
:1017C00071F40E94FE2188E090E00E94522760930D
:1017D0007D0370937E0380937F03909380030E9428
:1017E000B7211092290280917D0380FF04C060E040
:1017F00086950E949A2381E08093A50184E091E080
:10180000909388038093870378E1C72ED12CE0E47E
:101810005E2EBB24B394AA24A3948E010F5F1F4FA6
:101820008091CE01853009F073C054E1E52E66E168
:10183000F62E8091CE01853009F055C08091CE0101
:10184000843009F43DC0109229028091A7018111D2
:1018500016C0A092A70180917D03982F917090935C
:10186000A6018E7F80937D034FEF80E792E0415089
:1018700080409040E1F700C000000E94271F1092B6
:101880008B030FB6F894A895C09260000FBE5092DB
:10189000600083B7817F846083BF83B7816083BF2B
:1018A0007894889583B78E7F83BF0FB6F894A895F8
:1018B00080916000886180936000109260000FBE8C
:1018C0008091CD01882309F4B4CF0E945517E2EB33
:1018D000F1E081919191892B09F0F4C321E0EA3B79
:1018E000F207B9F7A6CF0E9414260E94BD1D1092E0
:1018F000A7018091A601882349F080917D03816032
:1019000080937D0360E086950E949A230E94111FB8
:101910000E945517882359F08FB7F8944091BA0167
:101920005091BB016091BC017091BD018FBFE2EB92
:10193000F1E0AAEAB1E0E12CF12C7E2D2191319168
:101940008D919D9182279327009779F160E08824FB
:101950008394912CAC0148215921452B09F169A3AD
:101960007AA32821392181E0232B09F480E08BA37D
:101970000E94ED168160782F9DA38CA349A15AA1E6
:101980006BA18DA10E94B403F701EE0FFF1FE65576
:10199000FE4F8081918188269926918280821CC089
:1019A0006F5F880C991C6C30A9F63FEFE31AF30ABD
:1019B00044E0E416F10409F68FEF8EA38FA318A676
:1019C0000E94ED168160782F9AA789A74EA15FA18A
:1019D00068A58AA50E94B40380912902882309F48E
:1019E000AAC080912802E0917D03E695E81BE09370
:1019F0002402823059F4F0E0E953FE4FE491EE2ED8
:101A0000F12C9AE3892E9DE1992E70C0863059F40D
:101A1000F0E0EC53FE4FE491EE2EF12C8AE2882E9A
:101A20008DE1982E63C0893061F4E695F0E0EF53C4
:101A3000FE4FE491EE2EF12CBCE78B2EB1E29B2EF3
:101A400055C08F3061F4E695F0E0E254FE4FE4912A
:101A5000EE2EF12CAFE08A2EA1E29A2E47C08531FE
:101A600059F4F0E0E554FE4FE491EE2EF12CF1EC48
:101A70008F2EF0E29F2E3AC08831F9F0833249F47C
:101A8000E9EBF1E0E590F490EAEE8E2EECE19E2E8B
:101A90002DC08432D1F0853209F58E2F63E00E948B
:101AA000F527E92FF0E0EA54FE4FE491EE2EF12CF9
:101AB0007DE5872E7FE1972E19C058E2E52EF12CA7
:101AC00068E3862E60E2962E11C034EFE32EFF24E9
:101AD000F3944EEF842E4FE1942E08C090EDE92E42
:101AE00097E0F92E29EE822E2CE1922E809125028C
:101AF000882361F0109225020E94ED169093230234
:101B00008093220210922702109226020E94ED1664
:101B1000E0912202F09123028E1B9F0B8F3F9F4783
:101B200050F4EE0EFF1EF0922302E092220282E2B7
:101B300092E0F401099586E0E3E9F3E0D801019031
:101B40000D928A95E1F78090950390909603E0902E
:101B50009703F090980310929503109296031092B9
:101B6000970310929803811003C0992009F44FC085
:101B700080919103909192030E94DE169C019091B6
:101B80008D03992309F4BDC22333310508F43FC006
:101B90009F3F19F09F5F90938D03882061F00E9412
:101BA000AB24181414F491E001C09FEF899F802D9D
:101BB000112480939503992061F00E94AB2419149D
:101BC00014F491E001C09FEF899F802D1124809330
:101BD0009603309195033323D1F02091960322236D
:101BE000B1F045EB3403C0011124992319F090930F
:101BF000950302C0B092950335EB2303C001112475
:101C0000992319F09093960302C0B0929603E110C5
:101C100003C0FF2009F44FC080918F03909190037F
:101C20000E94DE169C0190918C03992309F46EC2E8
:101C30002536310508F43FC09F3F19F09F5F909310
:101C40008C03EE2061F00E9489241E1414F491E0AC
:101C500001C09FEF899F802D112480939703FF205F
:101C600061F00E9489241F1414F491E001C09FEFD9
:101C7000899F802D112480939803309197033323FB
:101C8000D1F0209198032223B1F045EB3403C00139
:101C90001124992319F09093970302C0B0929703EF
:101CA00035EB2303C0011124992319F09093980375
:101CB00002C0B09298038091950381110BC080916E
:101CC0009603811107C080919703811103C0809111
:101CD000980381110E94E8238B829C82ED82FE8210
:101CE00086E0F801A3E9B3E001900D928A95E1F74F
:101CF0000E94BD1D9091A801891721F00E94BD1D71
:101D00008093A8018091CE01843009F089CD83E0D1
:101D10008093E9008091E80082FF82CD8091E80005
:101D200085FF21C00E94B81581111BC080E2E82EFA
:101D3000F12C480109C08091F100F40181934F0119
:101D4000F1E0EF1AF10869F08091E80085FDF3CF2A
:101D50008091E8008B778093E8000E94B815882373
:101D600099F391E001C090E08091E8008B77809337
:101D7000E800992309F454CDE9818E2F90E0FC010D
:101D80003197E331F10508F073C1E85AFF4F0C9425
:101D900037281A8289E0DAC08A81823009F4A8C122
:101DA000833089F0813009F063C12FB7F8948091B6
:101DB000BA019091BB01A091BC01B091BD012FBFB0
:101DC000BB83AC832BC08091B2019091B3019B8304
:101DD0008C838091B4019091B5019D838E83809115
:101DE000B6019091B7019F8388878091B801909147
:101DF000B90199878A873EC18A81823009F038C14A
:101E00006B817C818D819E810E94402886E290E0DA
:101E100024C04C816B818A810E94801E9D836FC18A
:101E20008D809E809824892498248C81EB809A81CF
:101E300028E1E29E7001112430E6939FE00CF11C32
:101E40001124E80EF11CE80EF11C692DC7018796DC
:101E50000E945E27682DC70188960E945E270AC1EE
:101E60000E944C1E07C18A818138B1F050F480383D
:101E700009F000C120E04B8160917F0380917E03D7
:101E800031C0823859F1833809F0F4C020E0409124
:101E900080036C818B8126C060E08B810E949A2335
:101EA0009B8180917D03911111C08E7F80937D0372
:101EB000109229024FEF80E792E04150804090401D
:101EC000E1F700C000000E94271FD4C0816080930A
:101ED0007D0360E086950E949A23CCC08B8180931D
:101EE0008103C8C00E94BD22C5C08A81813899F093
:101EF00030F4803809F0BEC08091800327C082385A
:101F000091F0833809F0B6C080917E038B83809175
:101F10007F038C83AFC080917D0380FF02C08695D4
:101F200015C080E013C08091810310C060917D03D3
:101F300070917E0380917F03909180030E94CA215B
:101F400099C080E150C08EE08A8389E58B8392C07E
:101F5000EA80FB80FE24EF24FE248C80912C380143
:101F6000C70189559E4F9301201B310B2815390558
:101F700008F080C0E9E5EE16EEE0FE0628F40E94C7
:101F80004A27F301848302C0F3011482FFEFEF1AA2
:101F9000FF0A2FEF621A720AE3CFEA80FB80FE2469
:101FA000EF24FE248C80912C3801C70189559E4F67
:101FB0009301201B310B2815390508F05BC039E56A
:101FC000E3163EE0F30620F4F30164810E945E27ED
:101FD000FFEFEF1AFF0A2FEF621A720AE6CF0E9494
:101FE0003C1E48C084E08A8345C0EA80FB80FE2412
:101FF000EF24FE248C80912C3801C7018796930131
:10200000201B310B28153905A8F530E8E31631E01F
:10201000F30628F40E944A27F301848302C0F301E7
:102020001482FFEFEF1AFF0A2FEF621A720AE5CF50
:10203000EA80FB80FE24EF24FE248C80912C380162
:10204000C70187969301201B310B2815390590F4A1
:1020500030E8E31631E0F30620F4F30164810E94D6
:102060005E27FFEFEF1AFF0A2FEF621A720AE8CF1E
:102070008FEF89838091CE01843009F0D1CB80919C
:10208000E9008F702091EC00922F917020FD90E874
:10209000F92EF82A82E08093E9008091E80080FF21
:1020A0000CC040E050E060E270E0C8010E94EB1517
:1020B0008091E8008E778093E8008F2D8F70809359
:1020C000E900AECBE9BCF9BC09B400FEFDCF8091BC
:1020D000D8008F7D8093D8008091E000826080934B
:1020E000E0008091E00081FDFCCF0E941426A1CB8E
:1020F00086E290E00E944A271B821C821D828E830A
:10210000B9CF2D32314008F045CD81CD2D3231404F
:1021100008F094CDD0CD8091D00187FF11C080917F
:10212000E80082FD05C08091CE018111F8CF11C079
:102130008091E8008B770BC08091CE01882349F015
:102140008091E80080FFF8CF8091E8008E7780933F
:10215000E8000895982F973068F59093E900981754
:1021600039F07091EC002091ED005091F00003C027
:10217000242F762F50E021FD02C09F5FECCF3091DD
:10218000EB003E7F3093EB003091ED003D7F3093CC
:10219000ED003091EB0031603093EB007093EC0078
:1021A0002093ED005093F0002091EE0027FDE5CF45
:1021B00080E008958F708093E90081E00895209178
:1021C000D6013091D7012617370748F06115710500
:1021D00039F42091E8002E772093E80001C0B9017E
:1021E000FC0120E06115710569F18091CE01882321
:1021F000E1F18530E1F18091E80083FD3AC0809102
:10220000E80082FD2CC08091E80080FFEBCF809138
:10221000F2009091F3006115710551F0883091053D
:1022200038F421912093F100615071090196F3CFA8
:1022300021E0089709F020E08091E8008E778093F4
:10224000E800D0CF2111D1CF0AC08091CE018823E0
:1022500061F0853061F08091E80083FD0AC08091D3
:10226000E80082FFF2CF80E0089582E0089583E0E5
:10227000089581E008958091C30108958091D80167
:10228000982F9670963011F4886001C0877F0C9467
:10229000C9251F93CF93DF93CDB7DEB7AA970FB6AB
:1022A000F894DEBF0FBECDBFE0EDF1E08091F1000C
:1022B000819341E0E83DF407C9F78091D101833073
:1022C00009F460C030F4813071F0823009F49AC0B2
:1022D000B1C08A3009F486C08B3009F46BC08930F4
:1022E00009F0A8C020C08091D001813A09F0A2C0B5
:1022F0008091E800877F8093E8008091D4019091DD
:10230000D501892B21F468E084EC91E003C060E002
:1023100080E090E070E00E94DF108091E8008B7711
:102320008093E80087C08091D001813209F082C09B
:102330008091D4019091D501009719F0029709F08E
:1023400079C08091E800877F8093E8008091E80061
:1023500082FD05C08091CE018111F8CF6BC08091C4
:10236000F2009091F300029729F48091F1008B7FA5
:10237000813021F48091F1008093C3018091E800C5
:102380008B7754C08091D001813A09F053C080917D
:10239000D4019091D501892B09F04CC08091E800BF
:1023A000877F8093E8008091E80080FFFCCF8091D8
:1023B0000E0137C08091D0018132E1F58091D401C6
:1023C0009091D501892BB1F58091E800877F8093AA
:1023D000E8000E948B108091D20180930E010E9430
:1023E000142628C08091D001813221F58091E80027
:1023F000877F8093E8000E948B108091D3018093A7
:10240000C20118C08091D001813AA1F48091E80006
:10241000877F8093E8008091E80080FFFCCF809167
:10242000C2018093F1008091E8008E778093E800EC
:102430000E948B108091E80083FFDAC18091D00167
:102440009091D101492F50E04A30510508F0D0C198
:10245000FA01E559FF4F0C943728803821F0823873
:1024600009F0C6C108C08091CC019091CD0199239B
:1024700089F082600FC08091D4018F70873008F09E
:10248000B7C18093E9008091EB0085FB882780F934
:102490001092E9009091E800977F9093E800809374
:1024A000F1001092F1006DC1282F2D7F09F0A0C11D
:1024B000882319F0823061F09BC18091D201813074
:1024C00009F096C1933009F080E08093CD012EC0D1
:1024D0008091D20181112AC08091D4018F702FEF99
:1024E000280F263008F084C18093E9002091EB008A
:1024F00020FF1CC0933021F48091EB00806214C057
:102500009091EB0090619093EB0021E030E0A90105
:1025100002C0440F551F8A95E2F74093EA001092DB
:10252000EA008091EB0088608093EB001092E90054
:102530008091E800877F8093E8000E948B1058C14B
:10254000811156C11091D2011F778091E3008078EC
:10255000812B8093E3008091E800877F8093E800DF
:102560000E948B108091E80080FFFCCF8091E300F7
:1025700080688093E300111102C082E001C083E013
:102580008093CE0135C18058823008F031C120914E
:10259000D2013091D3012C3D53E0350779F583E02A
:1025A0008A838AE289834FB7F894DE01139620E08C
:1025B0003EE051E2E32FF0E050935700E49120FF1A
:1025C00003C0E295EF703F5FEF708E2F90E0EA302E
:1025D00010F0C79601C0C0968D939D932F5F243154
:1025E00049F74FBF8091E800877F8093E8006AE257
:1025F00070E0CE0101960E94DF10B1C08091D4013D
:102600009091D501432F552743305105A9F068F427
:102610004130510509F4FBC04230510509F0E8C0D2
:102620008BE590E0E8EAF2E04BC04132510529F138
:102630004232510589F1DCC0C901992781309105E9
:10264000A1F058F0029709F0D3C0E5E1F3E0E4917E
:102650008E2F90E0E5E1F3E030C0E9E4F3E0E491AF
:102660008E2F90E0E9E4F3E028C0E3E3F3E0E491A7
:102670008E2F90E0E3E3F3E020C08330910508F073
:10268000B7C0880F991FFC01EA5CFE4F0190F081F2
:10269000E02D89E090E014C08330910508F0A8C0D7
:1026A000FC01EE0FFF1FE05DFE4F0190F081E02D79
:1026B000DC01A35DBE4F8C9190E0009709F498C0B7
:1026C0002091E800277F2093E8002091D6013091E7
:1026D000D7012817390708F4C90140E0009771F1C4
:1026E0002091CE012223D9F12530C9F12091E800B3
:1026F00023FD35C02091E80022FD2DC02091E80087
:1027000020FFECCF2091F2003091F300009759F0B8
:102710002830310540F444914093F10031960197FF
:102720002F5F3F4FF3CF41E02830310509F040E003
:102730002091E8002E772093E800D0CF4111D0CF30
:102740000AC08091CE01882351F0853041F08091FC
:10275000E80083FD04C08091E80082FFF2CF809101
:10276000E8008B778093E80043C0803809F040C0D0
:102770008091E800877F8093E8008091CF0180936B
:10278000F1008091E8008E77D6CE811131C0809122
:10279000D2019091D3019927029754F58091E800D6
:1027A000877F8093E8001091D2011093CF010E949F
:1027B0008B10111106C08091E30087FD02C081E0FB
:1027C00001C084E08093CE0142E061EC81E00E9490
:1027D000AA1042E261EC84E00E94AA1042E261EC9D
:1027E00082E00E94AA1042E260EC83E00E94AA10FC
:1027F0008091E80083FF10C08091E800877F80937C
:10280000E8008091EB0080628093EB0005C082E1DC
:1028100090E0E3E0F3E054CFAA960FB6F894DEBF61
:102820000FBECDBFDF91CF911F9108951F920F92E0
:102830000FB60F9211240BB60F922F933F934F9325
:102840005F936F937F938F939F93AF93BF93CF9338
:10285000DF93EF93FF93C091E900CF708091EC007C
:10286000D82FD17080FDD0E81092E9008091F0005F
:10287000877F8093F00078940E9449111092E900BC
:102880008091F00088608093F000CD2BCF70C093D2
:10289000E900FF91EF91DF91CF91BF91AF919F91AF
:1028A0008F917F916F915F914F913F912F910F90F9
:1028B0000BBE0F900FBE0F901F901895E8EDF0E043
:1028C00080818C7F80831092E2001092DA00109257
:1028D000E100A0EEB0E08C9181608C9380818F77D5
:1028E000808319BCA7EDB0E08C918E7F8C938081A2
:1028F0008F7E80831092C1010895CF92DF92EF9274
:10290000FF920F931F93CF93DF93C8EDD0E08881A0
:102910008F7E8883E7EDF0E080818160808381E0B5
:102920008093C10188818C7F888302EE10E0D801FA
:102930001C921092DA0081EEC82ED12CD6011C9286
:1029400088818F77888388818068888388818F7D5C
:10295000888380818068808319BC1092CE01109298
:10296000CF011092CD011092CC0190EEE92EF12C06
:10297000F70180818B7F808388818160888342E03A
:1029800060E080E00E94AA10D6018C918E7F8C932B
:10299000F801808181608083808188608083D70195
:1029A0008C918E7F8C93888180618883DF91CF9119
:1029B0001F910F91FF90EF90DF90CF9008951F929D
:1029C0000F920FB60F9211240BB60F922F933F93D5
:1029D0004F935F936F937F938F939F93AF93BF9327
:1029E000EF93FF938091E10082FF09C08091E200A4
:1029F00082FF05C08091E1008B7F8093E100809190
:102A0000DA0080FF2AC08091D80080FF26C0809124
:102A1000DA008E7F8093DA008091D90080FF18C0A1
:102A200084E189BD86E189BD09B400FEFDCF81E066
:102A30008093CE018091C10181110FC00E945E146C
:102A40000E947D148091E20084608093E20005C0C2
:102A500019BC1092CE011092C1018091E10080FF5B
:102A600017C08091E20080FF13C08091E2008E7F4A
:102A70008093E2008091E20080618093E200809187
:102A8000D80080628093D80019BC85E08093CE0185
:102A90008091E10084FF2EC08091E20084FF2AC073
:102AA00084E189BD86E189BD09B400FEFDCF809136
:102AB000D8008F7D8093D8008091E1008F7E809335
:102AC000E1008091E2008F7E8093E2008091E2003D
:102AD00081608093E2008091CF01882311F084E02F
:102AE00007C08091E30087FD02C081E001C083E060
:102AF0008093CE018091E10083FF27C08091E200A6
:102B000083FF23C08091E100877F8093E10082E012
:102B10008093CE011092CF018091E1008E7F80934F
:102B2000E1008091E2008E7F8093E2008091E200DC
:102B300080618093E20042E060E080E00E94AA10A1
:102B40008091F00088608093F000FF91EF91BF9139
:102B5000AF919F918F917F916F915F914F913F9135
:102B60002F910F900BBE0F900FBE0F901F901895D6
:102B70002091E4003091E50095E64091EC00842F2F
:102B8000817040FF23C08091E80080FD1DC08091CE
:102B9000CE01882399F0853099F08091EB0085FD76
:102BA00011C04091E4005091E5002417350729F346
:102BB000915011F09A01E1CF84E0089582E00895E8
:102BC00083E0089581E0089580E008954091E80051
:102BD00042FFDDCF0895EF92FF920F931F93CF93A3
:102BE000DF937C018B010E94B815811119C0E701A8
:102BF00001151105A1F08091E80085FD0AC08091C2
:102C0000E8008E778093E8000E94B815882381F34E
:102C100007C089918093F10001501109E9CF80E04C
:102C2000DF91CF911F910F91FF90EF9008959091B8
:102C3000CE01943029F58093BE017093C00160935A
:102C4000BF019093E9008FEF9091E800815095FDCE
:102C500006C095ED9A95F1F700008111F5CF8091AE
:102C6000E80085FF0DC040E050E063E070E08EEBCF
:102C700091E00E94EB158091E8008E778093E80048
:102C80000895BC0184E00C941716BC0183E00C94F9
:102C9000171624E02093E9002FEF3091E80021502F
:102CA00035FD06C035ED3A95F1F700002111F5CF5D
:102CB0002091E80025FF0BC040E050E066E070E0A6
:102CC0000E94EB158091E8008E778093E8000895CC
:102CD000CF93DF9321E02093E9002FEF3091E800BC
:102CE000215035FD06C035ED3A95F1F70000211170
:102CF000F5CF2091E80025FF14C0EC0140E050E042
:102D000068E070E00E94EB158091E8008E77809378
:102D1000E80088E0FE01A4ECB1E001900D928A95F4
:102D2000E1F7DF91CF91089581E08093E00080E2A8
:102D30008093D8001092C9008FE19EE40197F1F7CB
:102D400000C0000087E090EBDC018093AB03909320
:102D5000AC03A093AD03B093AE039CE088E10FB643
:102D6000F894A895809360000FBE90936000FFCF09
:102D700078941F920F920FB60F9211248F939F9306
:102D8000AF93BF938091BA019091BB01A091BC0118
:102D9000B091BD010196A11DB11D8093BA01909320
:102DA000BB01A093BC01B093BD01BF91AF919F91B6
:102DB0008F910F900FBE0F901F9018959C014FB7E9
:102DC000F8948091BA019091BB01A091BC01B0919F
:102DD000BD014FBF821B930B08952FB7F8948091CC
:102DE000BA019091BB01A091BC01B091BD012FBF70
:102DF000089580E0089590919B0192FF0DC0282FC7
:102E00002871283019F4877F846006C0282F247128
:102E1000243011F48B7F886093FF0DC0282F287118
:102E2000283119F4877E846106C0282F247124314B
:102E300011F48B7E886120919C0120FF0DC0382FFA
:102E40003871383019F4877F816006C0382F3171AE
:102E5000313011F48E7F886021FF0DC0282F28713A
:102E6000283119F4877E816106C0282F2171213114
:102E700011F48E7E886194FD877E0895F894E82F82
:102E8000E295EF70F0E031A1282F2F7081E090E003
:102E900001C0880F2A95EAF7982F9095932391A364
:102EA00092A1892B82A3789408956F927F928F923A
:102EB0009F92AF92BF92CF92DF92EF92FF920F93C9
:102EC0001F93CF93DF93CDB7DEB728970FB6F89453
:102ED000DEBF0FBECDBFAE014F5F5F4F7A0188E00E
:102EE000DA011D928A95E9F70DE111E06A0181E2AC
:102EF000682E81E0782E88248394912CF8018081BB
:102F00008F3F09F44DC0F894E82FE295EF70F0E0A0
:102F100021A18F70A40102C0440F551F8A95E2F7CA
:102F2000CA01922F982B91A392A18095892382A305
:102F3000789400C0E1E2F1E020E030E0A12CB12C77
:102F400081918F3FC1F0A82FA295AF70B0E090960D
:102F50004C9150E08F70DA0102C0B595A7958A9523
:102F6000E2F7A0FD08C0C401022E02C0880F991F1D
:102F70000A94E2F702C080E090E0A82AB92A2F5F05
:102F80003F4F2C303105E1F6F80180818F3F11F081
:102F90000E943E17F0EAFA95F1F7D601AD92BC9285
:102FA0000F5F1F4FB2E0CB0ED11C6016710609F007
:102FB000A5CF48E050E0B7018DE991E00E94632879
:102FC00011E0009709F410E0892B89F088E0F701FF
:102FD000ADE9B1E001900D928A95E1F781E080932F
:102FE00021020E94ED169093200280931F0280918F
:102FF0002102882351F180911F02909120020E94AA
:10300000DE16059710F180919D0190919E0190939D
:10301000B3018093B20180919F019091A0019093A0
:10302000B5018093B4018091A1019091A201909388
:10303000B7018093B6018091A3019091A401909370
:10304000B9018093B80110922102812F28960FB602
:10305000F894DEBF0FBECDBFDF91CF911F910F91CE
:10306000FF90EF90DF90CF90BF90AF909F908F90A8
:103070007F906F900895CF93DF938238910569F127
:10308000B0F48133910509F46FC048F48932910599
:1030900009F465C08A32910509F46BC08AC0853392
:1030A000910509F457C089339105B9F082C0833E78
:1030B000910571F138F4803E9105B1F0823E9105A1
:1030C00011F177C0863E9105B9F1873E9105C9F1AE
:1030D000843E910509F06DC024C020919B0120FD24
:1030E00053C021FD51C065C080919B0180FD46C049
:1030F00080919C0180FF48C080919B0184FD50C15C
:1031000083EE90E04FC180919B0182FF3AC0F4CFE3
:1031100080919B0182FD35C080919C0180FD34C06F
:10312000EBCF80919C0181FF35C080919B0184FD94
:1031300037C187EE90E036C180919B0183FF27C0A5
:10314000F4CF80919B0183FD22C080919C0181FD81
:1031500021C0EBCF80919B0185FD1FC021C08091D4
:103160009B0185FD1DC019C080919B0186FD1BC080
:103170001DC080919B0186FD19C015C089E390E0B8
:1031800011C182EE90E00EC180EE90E00BC186EEA0
:1031900090E008C184EE90E005C189E290E002C1B0
:1031A00085E390E0FFC08AE290E0FCC081E390E01C
:1031B000F9C0811531E5930708F069C0811540E534
:1031C0009407F0F09C0174E0369527957A95E1F725
:1031D000922F9370482F437021E030E002C0220FFD
:1031E000331F4A95E2F73C68392B982F9F709695CC
:1031F000969540E2949FC0011124822B932BD2C05C
:10320000883E910568F5803E910508F0CBC0883A6C
:103210009105B8F4853A910548F0855AE82FF0E019
:10322000E45CFE4F808190E09064BCC081309105E9
:1032300009F4B3C008F4B4C08430910508F4B0C0F8
:10324000B1C08F3B910508F0ABC0885AE82FF0E081
:10325000EE0FFF1FE15CFE4F808191819464A2C05C
:10326000811520E2920758F4811531E0930708F0A8
:1032700099C0803F910508F493C0906593C0811573
:1032800040E4940708F48CC09F70906A8BC081154D
:1032900025E5920708F042C0811534E5930728F030
:1032A000982F8827846F906A7DC0811543E5940725
:1032B000B0F09C012370332741E050E002C0440F7E
:1032C000551F2A95E2F7282F2695269580E2289FFC
:1032D00090011124CA01822B932B9A6863C0811537
:1032E00022E5920728F4982F8827816F906A5AC0A8
:1032F0009C012370332741E050E002C0440F551F6A
:103300002A95E2F7282F2695269580E2289F90019E
:103310001124CA01822B932B9C6844C0EC018115B7
:1033200039E59307A8F48115984528F09C2F882744
:10333000806F906A37C0C11586E5D80788F58C2F55
:103340000E94FB168F7190E0982F882790622AC008
:1033500081152AE5920790F48C2F8F700E94FB163E
:1033600094E0D695C7959A95E1F7CF70D0E0DC2F21
:10337000CC27D0699E01282BC90114C09056811515
:10338000904270F48D2F8F710E94FB16282F2F71A1
:10339000CE0199279062922B05C081E090E002C097
:1033A00080E090E0DF91CF910895CF9384E090E0AA
:1033B0000E944A27C82F82E290E00E944A272C2FC1
:1033C00030E0A901582BCA01CF91089580E090E028
:1033D0000E945827893E9E4F11F40C94E01E80E015
:1033E000089569EE7EEF80E090E00E947C2760E027
:1033F00082E090E00E945E2760E083E090E00E941F
:103400005E2710921E0260E084E090E00E945E273A
:1034100060E082E290E00E945E2760E085E090E05C
:103420000E945E2760E086E090E00E945E276FEFDA
:1034300087E090E00E945E2740E050E0BA0188E01B
:1034400090E00E94702760E08DE090E00E945E278F
:1034500040E050E0BA0188E190E00E94702760E00F
:1034600087E190E00E945E2740E050E0BA018CE1E5
:1034700090E00E94702760E070E080E290E00E949F
:103480007C2740E050E0BA0188E190E00E9470277C
:1034900080E00E94B31E0E94D11E40E050E0BA01BD
:1034A0008FE090E00E94702740E050E0BA0183E195
:1034B00090E00C94702780911D02811110921D02E2
:1034C000089590911C0280911B02892B20911A0271
:1034D000982F922B9093D90180911D02882389F017
:1034E000892B8093D901EBEDF1E097E080E09150DA
:1034F00029F021912223D9F38F5FF9CF81110E9406
:103500005B1AE0918703F0918803309731F00280D5
:10351000F381E02D89ED91E009940895CF93C09156
:103520009C01C2FB992790F9981781F080FBC2F9A2
:10353000C0939C0160919B0184E090E00E945E2713
:103540006C2F82E290E0CF910C945E27CF9108958A
:10355000209119028095822380931902982F9770E9
:1035600041F430E0482F082E000C550B2417350786
:1035700021F490919C0192FF07C0859585958595D2
:103580000E94CD2510921902089580911802909101
:10359000E701891719F08F5F8770FBCF08950F93AC
:1035A0001F93CF93DF938091E60182958F7009F08E
:1035B0005DC08091E301882309F458C0809118020E
:1035C0001091E7016091E1017091E201C091E40185
:1035D000D091E50191E06F3F09F090E0292F06E0DE
:1035E000811709F443C0209721F07F3F21F030E09C
:1035F00003C031E001C0322F90E030FD34C0089F9D
:10360000F001099FF00D1124DF01A851BE4F119662
:103610003C911197371327C03C91361324C0129662
:103620003C91129731111FC013964D915C911497E4
:103630004C1B5D0B483C5105B0F48091E6018F7046
:1036400080618093E601E351FE4F80818F7080613D
:10365000808381EE91E00E945C04DF91CF911F9105
:103660000F910C94C51A01968770BACFDF91CF9154
:103670001F910F910895CF93DF93EC010E94432592
:10368000BE010E94A61E0E943B18DF91CF910895B3
:103690009F92AF92BF92CF92DF92EF92FF920F93E1
:1036A0001F93CF93DF93CDB7DEB761970FB6F89432
:1036B000DEBF0FBECDBF8C0185E0F801DE011D9697
:1036C00001900D928A95E1F7F801E2809091E10175
:1036D0006091E2014091E4015091E50141155105ED
:1036E00031F06F3F31F481E09F3F19F403C081E076
:1036F00001C080E0F82FF1709F2E80FD1AC1F80103
:1037000030812181C380D48081EEA82E81E0B82E43
:10371000F090E301F601E41BF50BFF2009F4C6C0AD
:103720008091E601E83CF10508F091C0482F407F08
:1037300009F050C0621311C093130FC0FE2CE110AA
:103740000CC08F7080618093E601C5010E945C040B
:103750008091E601F801858329C1CD2831F02F3F02
:1037600031F481E03F3F19F403C081E001C080E003
:1037700080FD03C081E08E2502C080E090E0F82F3C
:10378000F170FF2E80FF1CC0809118024091E7016C
:1037900056E0841709F4E8C090E0589FF001599F63
:1037A000F00D1124E851FE4F6181261306C060819F
:1037B000631303C06281E61203C001968770E9CFEC
:1037C000FE2CEE2009F4F2C08091E6018160809326
:1037D000E60149C0621306C0931304C0E11002C0A1
:1037E000F80186C0C8010E94E825882351F1EE2027
:1037F00041F12091E601822F82958F7090E002972F
:1038000074F08091E1019091E20198878F8319868D
:10381000DB86CA862C87CE0107960E945C0486E070
:10382000F801A1EEB1E001900D928A95E1F70E94B6
:10383000CF1A0AC06217C9F0C8010E94E825811199
:103840001EC0C8010E945C04FF24F394AFC0482F3F
:10385000407F81F781EE91E00E945C0486E0F501F3
:1038600011928A95E9F7F12CA1C09313E5CFE110ED
:10387000E3CFF8018583C8010E945C0454C0EE20A8
:1038800001F32091E601822F82958F7090E00297DC
:1038900034F28091E1019091E2019A8389831B8245
:1038A000DD82CC822E83CE010196B7CFE83CF105B4
:1038B000D0F5FE2CEE2029F2621327C0931325C009
:1038C0002091E60120FD18C0822F82958F70482F2D
:1038D00050E04115510581F0F80125834F30510525
:1038E00041F08F5F982F9295907F822F8F70892B58
:1038F0008583C8010E945C0486E0F801A1EEB1E076
:1039000001900D928A95E1F751C0C8010E94E82507
:10391000811185CF8091E60181608093E601C80125
:103920000E945C0443C086E0F50111928A95E9F794
:103930003DC0EE2009F485CFC8010E94E825F82E8D
:10394000882309F47ECF86E0F801A1EEB1E0019072
:103950000D928A95E1F78091E1019091E2010E9438
:103960003B1B0E94CF1A22C03D872E878D859E85E6
:103970000E943B1B292F22952F70223028F49F7024
:1039800039F0811105C00BC0243028F49F7049F430
:10399000805E883020F0C8010E945C049F2CF92CC6
:1039A00005C0F8019581907F99F7F9CF8F2D619629
:1039B0000FB6F894DEBF0FBECDBFDF91CF911F9140
:1039C0000F91FF90EF90DF90CF90BF90AF909F90BE
:1039D000089508950F931F93CF93DF9300D01F9204
:1039E000CDB7DEB78C0180912C0281110AC09E01F7
:1039F0002F5F3F4F4FEF6FEF0E940D228A81809320
:103A00002C02F8018481813051F028F0823061F479
:103A100040912C020AC080912C0240E007C06091C6
:103A20002C0240E080E003C040E080E060E00E94C3
:103A3000A621F801848190E0019663E070E00E9485
:103A4000232884830F900F900F90DF91CF911F91C7
:103A50000F910895CF93DF93EC01EDE7F3E04381FD
:103A600062818C810E94A3228C818F5F8C83DF9185
:103A7000CF910895CF93DF93EC01EC81F0E0E35B0D
:103A8000FC4F4491EDE7F3E0628181810E94A32223
:103A90008C818F5F8C83DF91CF9108951F920F925D
:103AA0000FB60F9211248F939F93AF93BF93809182
:103AB0008B03811113C08091BA019091BB01A09139
:103AC000BC01B091BD014196A11DB11D8093BA0109
:103AD0009093BB01A093BC01B093BD01BF91AF9186
:103AE0009F918F910F900FBE0F901F9018959C0182
:103AF000FC0132969FEF80E04191461789F09F3F8D
:103B000019F4411101C0982F8F5F8630A9F79F3FAC
:103B100039F0F901E90FF11D97FDFA9562830895D7
:103B200008952091890330918A032817390771F08D
:103B300090938A0380938903E0918703F09188032F
:103B4000309721F00084F185E02D099408952091AB
:103B50008503309186032817390771F09093860307
:103B600080938503E0918703F0918803309721F0DB
:103B70000680F781E02D09940895E0918703F09184
:103B80008803309721F00190F081E02D099480E0C6
:103B900008950F931F93CF93DF93C42FD22FFC016F
:103BA00082818823C9F0409384030E94ED1690938C
:103BB00083038093820380E28C0F883008F057C023
:103BC000C77081E001C0880FCA95EAF7DF91CF91F5
:103BD0001F910F910C942A2680918403481330C0C2
:103BE00080918203909183030E94DE16883C9105A8
:103BF00038F510E21D0FCD17B9F080E28C0F883038
:103C000040F4C77081E001C0880FCA95EAF70E94AE
:103C10001F26183028F581E09D2F977001C0880F6E
:103C20009A95EAF70E942A26802F0E94D226183001
:103C3000F0F4D77081E001C0880FDA95EAF70AC086
:103C400080E28C0F883098F4C77081E001C0880F43
:103C5000CA95EAF7DF91CF911F910F910C941F261F
:103C6000802FDF91CF911F910F910C94D226DF917D
:103C7000CF911F910F910895CF93DF93C7EAD1E0C1
:103C800060E0CE010E945E272196C11580E1D80731
:103C9000B9F7DF91CF910895CF92DF92EF92FF9223
:103CA0000F931F93CF93DF93C0E0D0E08E01005AB3
:103CB0001F4F6E0188E1C80ED11CFE01E35BFB4F74
:103CC000E590F4906F2DCE0187960E945E276E2DB1
:103CD000CE0188960E945E272296CC15DD0569F7F5
:103CE0000C171D0731F7E80100381140F9F6DF9194
:103CF000CF911F910F91FF90EF90DF90CF9008959B
:103D00000F931F93CF93DF93C42FD0E0CC0FDD1F11
:103D100028E1629FC00DD11D112430E6839FC00DA4
:103D2000D11D1124CE0187960E944A27082F10E04A
:103D3000102F0027CE0188960E944A279801282B31
:103D4000C901DF91CF911F910F910895462F8430C3
:103D500038F4743028F46C3018F4672F0C94801EFB
:103D600080E090E00895CF93C82F811102C06FEFDB
:103D700001C061E283E290E00E945E27C11102C0AF
:103D80006FEF01C068E084E290E00E945E27C111FD
:103D900002C06FEF01C061E385E290E0CF910C9427
:103DA0005E2780E00E94B31E60E086E290E00E9401
:103DB0005E270E944C1E0E943C1E81E00C94B31EA4
:103DC00083E290E00E944A27813281F484E290E00D
:103DD0000E944A27883051F485E290E00E944A27E9
:103DE00091E0813309F090E0892F01C080E081707B
:103DF000089590917D0390FF04C09695981740F028
:103E000003C0811105C090E0961710F40C94DE23D6
:103E100061E00C949A23882311F0FA0101C0FB01A0
:103E2000099460917D03669570E04BE050E08FE06F
:103E300091E00E945628892B19F481E08093290291
:103E40000E94ED16909323028093220208958091A0
:103E50007D0380FF0AC03C9A88B18F7E98B1906143
:103E60002FB7F894EDE2F2E00BC0EDE2F2E0118240
:103E700010821282339632E0EB3AF307C1F7EBCFB0
:103E800032E0EB3AF30789F0319148E098B900004D
:103E900000C037FF88B9330F000000C000C000C069
:103EA00088B900C04A9591F7EBCF2FBF8FE594E01A
:103EB0000197F1F700C0000008959F92AF92BF9262
:103EC000CF92DF92EF92FF920F931F93CF93DF93E6
:103ED000FC01A280948081E08483EDE4F3E0B4905F
:103EE000ECECF3E0E491CBEAD2E0FDE2EF2EF2E07D
:103EF000FF2ECC24CA94D12CEB190E2F10E022E017
:103F00002A1530F080917E03888380917F03898316
:103F1000911003C01B821A8255C08B818823F9F04F
:103F200081508B832FEF829FC00111246C8170E040
:103F30000E940F28FB01FF27E35BFC4F8491E82FD1
:103F4000EB192FEFE29FC0011124B8010E940F2846
:103F500080918003689FB00111247A8333C00E944E
:103F60003B27209180032695215830E0A901440F7A
:103F7000551F322F2227240F351F232F3327821757
:103F8000930704F582E08A1588F40E943B27B60166
:103F90000E94232888830E943B2720917F03269537
:103FA000622F70E00E942328280F29831A828091B3
:103FB0008003843120F0893C18F088EC01C084E152
:103FC0008C838B8397014A81698188810E940D22AD
:103FD000259623E0E20EF11C83E0CD37D80709F0E7
:103FE0008ECFDF91CF911F910F91FF90EF90DF90D7
:103FF000CF90BF90AF909F900C94271FEF92FF92AD
:104000000F931F93CF93DF938C01CDE2D2E0E12C8D
:10401000F12CF8018481F5E1EF16F1041CF48823FA
:1040200039F002C0811104C09E014091800302C09A
:104030009E0140E060917F0380917E030E940D22EB
:104040008FEFE81AF80A23969AE2E916F10409F7C5
:104050000E94271FF801848190E0019681709927C2
:104060008483DF91CF911F910F91FF90EF9008957E
:104070008F929F92AF92BF92CF92DF92EF92FF9278
:104080000F931F93CF93DF93EC014C81042F10E02B
:104090009801D8010E94E6279B01AC010E94B1273C
:1040A0006B017C01E0E2F0E0E01BF10BA5E5B0E084
:1040B0009B01AC010E94B1274B015C019F01DF0114
:1040C0000E9447289B01AC010E94BC279B01AC01C8
:1040D0002C0D3D1D4E1D5F1DC501B4010E94C4275E
:1040E000822FF22E99E2921728F093E0299F9001F7
:1040F00011240DC025E530E0281B3109C901880FC6
:10410000991F280F391F37FF02C02F5F3F4F35958A
:104110002795122F10959DE2C92E92E0D92E00E02E
:1041200085E5E82EEF1801FD02C08E2D01C08F2D10
:104130009601412F60917F030E940D220F5F83E063
:10414000C80ED11C0A3279F70E94271F8C81811179
:1041500002C091E003C0803219F49FEF90931C01DC
:1041600090911C01890F8C83DF91CF911F910F914A
:10417000FF90EF90DF90CF90BF90AF909F908F9087
:1041800008950F931F93CF93DF93CDE2D2E0FE010A
:10419000118210821282339682E0EB3AF807C1F75F
:1041A00000E010E080912B02082E000C990B0817FC
:1041B000190794F080911B01082E000C990B8017B1
:1041C000910754F09E014091800360917F0380919C
:1041D0007E030E940D2203C0198218821A820F5F8B
:1041E0001F4F23960A321105E9F60E94271F80917E
:1041F0001A0190912B02980F90932B0220911B0192
:10420000280F20931B01121614F499321CF081958B
:1042100080931A01DF91CF911F910F910895BF9262
:10422000CF92DF92EF92FF920F931F93CF93DF9382
:10423000FC01828180FF03C0DD24DA9402C0DD240A
:10424000D3940DE212E0C0E0D0E02AE2B22EF801F1
:1042500011821082128294E0E92EF12CC12C8091FF
:104260002A028C0D8B322CF06B2D0E940128892F95
:1042700002C087FD865D082E000C990BC817D90770
:1042800091F4809180038E9DA0018F9D500D11248B
:104290005595479555954795980160917F03809175
:1042A0007E030E940D22CD0CF1E0EF1AF108B9F661
:1042B00021960D5F1F4FCA32D10549F60E94271F74
:1042C00080912A0291E0D91206C0811102C089E2D0
:1042D00007C0815005C090E00196BE010E942328CE
:1042E00080932A02DF91CF911F910F91FF90EF9061
:1042F000DF90CF90BF900895EF92FF921F93CF93DE
:10430000DF93EC018DE2E82E82E0F82E10E08C8144
:1043100097014091800360917F03810F0E940D22DD
:104320001A5F83E0E80EF11C1C3F89F70E94271FEB
:104330009A818C8190FF02C08F5F01C081508C8375
:10434000DF91CF911F91FF90EF90089590917D03A1
:1043500090FF0CC0EDE2F2E08183608342833396EC
:1043600092E0EB3AF907C1F70C94271F089580916A
:104370007D03282F269530E02115310519F4817031
:10438000826005C02B32310524F0817084658093F2
:104390007D030895CF92DF92EF92FF926B017C0133
:1043A0000E94B721B701A60188E090E0FF90EF904E
:1043B000DF90CF900C94702780918103882319F0AF
:1043C00081508093810360917D0370917E03809181
:1043D0007F03909180030C94CA21809181038330E4
:1043E00018F48F5F8093810360917D0370917E0349
:1043F00080917F03909180030C94CA21EDE7F3E054
:1044000083E0808311828FEF8283838314826081B3
:104410007181828193810C94CA21AF92BF92CF9215
:10442000DF92EF92FF920F931F93CF93DF93E82ECB
:10443000F62EE901E42FF0E0611106C0E353FA4FD4
:10444000E4914E2F2E2F71C0062F10E0E353FA4F48
:104450004491F42FC42ED12C26E0829FC001112458
:104460002FEF30E0B9010E940F285BEA5603C0012C
:10447000579F900D11248E0D911D8E0D911D582F5B
:10448000550F580FD901A01BB10BAC9DC001AD9DBC
:10449000900DBC9D900D1124E92FF59ED0011124A3
:1044A000AB2FBB277901EA1AFB0AEC9CD001ED9CEB
:1044B000B00DFC9CB00D11245901A51AB108A09EA5
:1044C0007001A19EF00CB09EF00C1124EF2CFF2483
:1044D0002E193F092C9D80012D9D100D3C9D100D26
:1044E0001124212F6230710591F048F46115710596
:1044F000E1F061307105B9F4242F4B2F16C0643000
:10450000710569F040F06630710579F00CC0242F18
:10451000492FE12F0AC0492FEF2F2B2F06C0292F3B
:10452000E42F412F02C0292FEB2F49832883EA83F0
:10453000DF91CF911F910F91FF90EF90DF90CF907F
:10454000BF90AF900895CF93DF9300D01F92CDB767
:10455000DEB790917D0390FF0AC09E012F5F3F4F11
:104560000E940D224B8169818A810E94A6210F90B1
:104570000F900F90DF91CF9108955F926F927F928D
:104580008F929F92AF92BF92CF92DF92EF92FF9263
:104590000F931F93CF93DF9300D01F92CDB7DEB759
:1045A000182F762E042F622E90917D0390FF6DC000
:1045B000E92FE695AE2FB0E0A359BE4F8C918093C2
:1045C00028029E7F923061F49E012F5F3F4F812F22
:1045D0000E940D224B8169818A810E94A62143C0DD
:1045E000823019F4009180033EC0863019F4109196
:1045F0007E0339C08930D9F38931A9F5E9518E2F6D
:104600008170582EE695F0E0E353F94FA590B490F1
:104610008DE2C82E82E0D82EE12CF12CBB249AE248
:10462000892E912CAE9CC001AF9C900DBE9C900D2C
:104630001124B4010E940F28812F511002C0860F4F
:1046400001C0861B9601402F672D0E940D228FEF1F
:10465000E81AF80A83E0C80ED11C8AE2E816F104D1
:1046600009F70E94271F10937E0370927F03009327
:104670008003662051F060917D0370917E038091EC
:104680007F03909180030E94CA210F900F900F909A
:10469000DF91CF911F910F91FF90EF90DF90CF901E
:1046A000BF90AF909F908F907F906F905F90089594
:1046B000EDE7F3E0438128E0421B08F440E021E00D
:1046C000628181810C94BD22EDE7F3E0438128E013
:1046D000420F08F44FEF21E0628181810C94BD22EA
:1046E000EDE7F3E0628128E0621B08F460E021E07E
:1046F000438181810C94BD22EDE7F3E0628128E0E3
:10470000620F08F46FEF21E0438181810C94BD2298
:10471000EDE7F3E0818121E04381628188500C94D0
:10472000BD22EDE7F3E0818121E043816281885F72
:104730000C94BD2290917D0390FF36C09170811141
:1047400002C0926006C08B3210F0946502C0880FE0
:10475000982B90937D03662351F060917D037091B7
:104760007E0380917F03909180030E94CA21609113
:104770007D03669570E04BE050E08FE091E00E9491
:104780005628892B19F01092290202C00E94111F8D
:1047900081E08093250220E04091800360917F03B7
:1047A00080917E030C94BD22089580917D038695AF
:1047B000815009F48AE261E00C949A2380917D0390
:1047C00086958F5F8B3208F081E061E00C949A232C
:1047D0000E94ED1620919503211104C020919603AB
:1047E000222321F0909392038093910320919703C9
:1047F000211104C020919803222321F0909390036B
:1048000080938F03E0918703F0918803309749F0FC
:1048100082E0809393030480F581E02D83E993E0A7
:1048200009940895803F39F49091960397FF35C01D
:104830001092960359C0813F29F49091960319165E
:10484000BCF32BC090919503823F29F497FF25C0BC
:104850001092950349C0833F19F41916CCF31DC07B
:1048600090919703893F29F41916BCF4109297038D
:104870003BC08A3F19F497FF10C0F8CF8B3F39F443
:104880009091980397FF09C0109298032DC08C3F18
:1048900021F4909198031916BCF39CE0980F953081
:1048A00080F421E030E0A90102C0440F551F9A9521
:1048B000E2F7CA0180959091940389238093940331
:1048C00013C08D3F21F480918E038E7F0BC08E3FED
:1048D00021F480918E038D7F05C08F3F29F4809154
:1048E0008E038B7F80938E0380919503811106C088
:1048F00080919603811102C010928D0380919703DD
:10490000811106C080919803811102C010928C031E
:10491000089580918E0380FD16C081FD16C082FD32
:1049200018C080918C03882391F0883290F428E09D
:10493000829FC001112468E270E00E942328862F24
:10494000672B29F007C082E0089584E0089581E094
:10495000089588E0089580918E0380FD14C081FD44
:1049600014C082FD16C080918D03882381F08431AC
:1049700080F422E3829FC001112464E170E00E9470
:104980002328862F08958CE0089589E1089585E015
:10499000089582E30895803F21F40E94AB2481951D
:1049A00004C0813F29F40E94AB24809396030895AC
:1049B000823F21F40E94AB24819504C0833F29F4F7
:1049C0000E94AB24809395030895893F19F40E94B7
:1049D000892405C08A3F31F40E94892481958093FF
:1049E000970308958B3F21F40E948924819504C088
:1049F0008C3F29F40E9489248093980308959CE0B9
:104A0000980F953078F421E030E0A90102C0440FFE
:104A1000551F9A95E2F7CA0190919403892B8093D0
:104A2000940308958D3F21F480918E0381600BC023
:104A30008E3F21F480918E03826005C08F3F29F460
:104A400080918E03846080938E03089580E090E0CF
:104A50000E94A71D80E090E00E94911D10921B0211
:104A600010921A020E94611AE3E9F3E086E0DF0186
:104A70001D928A95E9F710928D0310928C03109283
:104A80008E030C94E823CF92DF92FF920F931F9333
:104A9000CF93DF936C010091D80180911E02082B07
:104AA000C7E0D0E010E0C8010C2E02C095958795B4
:104AB0000A94E2F780FD04C02197A8F7F12C09C001
:104AC000FC2EB6018C2F0E94A61E0E943B18019757
:104AD00099F38F2DDF91CF911F910F91FF90DF9070
:104AE000CF9008952CE0929F800D1124682F669539
:104AF00066956695982F977083E0689FB0011124A2
:104B000040E050E080E0FB01E40FF51FE756FC4F6A
:104B1000208130E0092E02C0369527950A94E2F7ED
:104B200021703327042E01C0220F0A94EAF7822B4A
:104B30004F5F5F4F4330510531F708952CE0929F4E
:104B4000800D1124E82FE695E695E695877051E0F3
:104B500001C0550F8A95EAF783E0E89FF001112420
:104B6000E756FC4F20E030E070E04081CB01022EA0
:104B700002C0969587950A94E2F781708195842703
:104B80008523842781932F5F3F4F2330310569F7B9
:104B900008958093D8010C94262521E030E001C0CF
:104BA000220F8A95EAF720958091D80182230C94F0
:104BB000C92521E030E001C0220F8A95EAF78091F3
:104BC000D801822B0C94C92580931E020C942625B3
:104BD000FC01808191810E943B1B292F2F70E92FBE
:104BE000E295EF704E2F50E0FA013297EE30F1056A
:104BF000B8F4EB58FF4F0C943728803F99F018F425
:104C0000883E70F40FC0843F59F40CC0883E50F0C9
:104C1000813F31F407C0822F869586958695089549
:104C200080E0089581E0089510921C0286E0EBED8B
:104C3000F1E0DF011D928A95E9F70C94262588237F
:104C400041F0809590911C02892380931C020C9462
:104C5000611A0895882339F090911C02892B809362
:104C60001C020C94611A08958823E1F19CEF980FBF
:104C7000913A60F4E9EDF1E09281891301C012826A
:104C8000319641E0EF3DF407B9F714C090E2980F78
:104C9000983090F4877021E030E0A90102C0440F01
:104CA000551F8A95E2F7CA01809590911C028923CD
:104CB00080931C020C94611A9BE5980F933020F4AA
:104CC00080E090E00C94A71D98E5980F973120F4B0
:104CD00080E090E00C94911D803F20F00E9412240F
:104CE0000C94E8230895CF93882309F459C0C82F62
:104CF0008CEF8C0F813AF8F4EBEDF1E081EE91E06E
:104D00002191C21721F08E179F07D1F70EC0E9ED50
:104D1000F1E08FED91E02281C21301C01282319641
:104D20008E179F07C1F70E94611A6C2F89ED91E0E1
:104D30000E94771D10C080E28C0F883078F4C77015
:104D400081E090E001C0880FCA95EAF790911C02BB
:104D5000892B80931C02CF910C94611AEBE5EC0F28
:104D6000E33040F4F0E0E45CFE4F808190E0CF91CE
:104D70000C94A71DE8E5EC0FE73150F4F0E0EE0FDE
:104D8000FF1FE15CFE4F80819181CF910C94911DBA
:104D9000C03F30F08C2F0E94CB24CF910C94E8239D
:104DA000CF9108951F93CF93DF93182F893319F074
:104DB000C0E0D0E002C0C0E5D0E0812F0E947326A1
:104DC000209741F08FE99FE00197F1F700C00000C4
:104DD0002197F6CF812FDF91CF911F910C9434262C
:104DE0008F929F92AF92BF92CF92DF92EF92FF92FB
:104DF000CF93DF93EC01688179818A819B81611572
:104E000071058105910521F464E279ED8BE597E068
:104E10002DE133EF41E050E00E94922749015A0111
:104E20009B01AC01A7EAB1E40E94B1276B017C01B0
:104E3000ACEEB4EFA50194010E94BF27DC01CB01C9
:104E40008C0D9D1DAE1DBF1DB7FF03C00197A109AD
:104E5000B04888839983AA83BB839F77DF91CF91E2
:104E6000FF90EF90DF90CF90BF90AF909F908F908A
:104E700008950C94F02680E091E00C94F026A0E0D8
:104E8000B0E08093000190930101A0930201B093E0
:104E900003010895F999FECF92BD81BDF89A992733
:104EA00080B50895A6E1B0E044E050E00C9484277A
:104EB000A8E1B0E042E050E00C948427262FF99955
:104EC000FECF92BD81BDF89A019700B4021639F069
:104ED0001FBA20BD0FB6F894FA9AF99A0FBE08953A
:104EE0000396272F0E945F270E945E27252F0E948E
:104EF0005F27242F0C945F270196272F0E945F279E
:104F00000C945E27DC01CB01FC01F999FECF06C0B1
:104F1000F2BDE1BDF89A319600B40D924150504077
:104F2000B8F70895052E97FB1EF400940E94A92758
:104F300057FD07D00E94C42707FC03D04EF40C9401
:104F4000A92750954095309521953F4F4F4F5F4F82
:104F5000089590958095709561957F4F8F4F9F4FE5
:104F600008950E94E627A59F900DB49F900DA49FE1
:104F7000800D911D11240895B7FF0C94B1270E9454
:104F8000B127821B930B0895A1E21A2EAA1BBB1B0B
:104F9000FD010DC0AA1FBB1FEE1FFF1FA217B30705
:104FA000E407F50720F0A21BB30BE40BF50B661F1B
:104FB000771F881F991F1A9469F7609570958095DF
:104FC00090959B01AC01BD01CF010895A29FB00156
:104FD000B39FC001A39F700D811D1124911DB29F2D
:104FE000700D811D1124911D0895991B79E004C055
:104FF000991F961708F0961B881F7A95C9F7809518
:10500000089587FB082E062687FD819567FD61952B
:105010000E94F5270EF4919507FC81950895AA1B2F
:10502000BB1B51E107C0AA1FBB1FA617B70710F093
:10503000A61BB70B881F991F5A95A9F780959095C5
:10504000BC01CD01089597FB072E16F4009407D0FC
:1050500077FD09D00E940F2807FC05D03EF49095FB
:1050600081959F4F0895709561957F4F0895EE0F3C
:10507000FF1F0024001C0BBE0790F691E02D099441
:1050800069279627692778278727782708950E9418
:10509000E627332312F48A1B9B0B0C9451280E94A1
:1050A000E627B7FF0895821B930B0895FC0141503A
:1050B000504030F001900616D1F73197CF01089596
:1050C000882799270895FB01DC0104C08D91019088
:1050D000801921F441505040C8F7881B990B08955E
:0450E000F894FFCF72
:1050E400010000003B1168164916451641160101DE
:1050F400191A1B1C1D1E1F202122010201949596C2
:1051040097363534926061F5F4F3F2F1F040227B86
:1051140068024602CB01BA02D302F302818283E21F
:1051240000E900EA00B500B600B700CD008301CC69
:10513400008A0192019401210223022402250226FD
:105144000227022A02B300B4006F007000000102BB
:105154000202020606060909090909090F0F0F0FC1
:105164000F0F1515151819191919191919191919CC
:0851740023242525252525250E
:00000001FF
